{
  "address": "0xEadBC6dDF1142Fe7070AD3346717E86A99852A64",
  "abi": [
    {
      "inputs": [],
      "stateMutability": "nonpayable",
      "type": "constructor"
    },
    {
      "anonymous": false,
      "inputs": [
        {
          "indexed": true,
          "internalType": "bytes32",
          "name": "role",
          "type": "bytes32"
        },
        {
          "indexed": true,
          "internalType": "bytes32",
          "name": "previousAdminRole",
          "type": "bytes32"
        },
        {
          "indexed": true,
          "internalType": "bytes32",
          "name": "newAdminRole",
          "type": "bytes32"
        }
      ],
      "name": "RoleAdminChanged",
      "type": "event"
    },
    {
      "anonymous": false,
      "inputs": [
        {
          "indexed": true,
          "internalType": "bytes32",
          "name": "role",
          "type": "bytes32"
        },
        {
          "indexed": true,
          "internalType": "address",
          "name": "account",
          "type": "address"
        },
        {
          "indexed": true,
          "internalType": "address",
          "name": "sender",
          "type": "address"
        }
      ],
      "name": "RoleGranted",
      "type": "event"
    },
    {
      "anonymous": false,
      "inputs": [
        {
          "indexed": true,
          "internalType": "bytes32",
          "name": "role",
          "type": "bytes32"
        },
        {
          "indexed": true,
          "internalType": "address",
          "name": "account",
          "type": "address"
        },
        {
          "indexed": true,
          "internalType": "address",
          "name": "sender",
          "type": "address"
        }
      ],
      "name": "RoleRevoked",
      "type": "event"
    },
    {
      "inputs": [],
      "name": "DEFAULT_ADMIN_ROLE",
      "outputs": [
        {
          "internalType": "bytes32",
          "name": "",
          "type": "bytes32"
        }
      ],
      "stateMutability": "view",
      "type": "function"
    },
    {
      "inputs": [
        {
          "internalType": "bytes32",
          "name": "role",
          "type": "bytes32"
        }
      ],
      "name": "getRoleAdmin",
      "outputs": [
        {
          "internalType": "bytes32",
          "name": "",
          "type": "bytes32"
        }
      ],
      "stateMutability": "view",
      "type": "function"
    },
    {
      "inputs": [
        {
          "internalType": "address",
          "name": "contractAddress",
          "type": "address"
        },
        {
          "internalType": "string",
          "name": "functionSig",
          "type": "string"
        },
        {
          "internalType": "address",
          "name": "accountToPermit",
          "type": "address"
        }
      ],
      "name": "giveCallPermission",
      "outputs": [],
      "stateMutability": "nonpayable",
      "type": "function"
    },
    {
      "inputs": [
        {
          "internalType": "bytes32",
          "name": "role",
          "type": "bytes32"
        },
        {
          "internalType": "address",
          "name": "account",
          "type": "address"
        }
      ],
      "name": "grantRole",
      "outputs": [],
      "stateMutability": "nonpayable",
      "type": "function"
    },
    {
      "inputs": [
        {
          "internalType": "bytes32",
          "name": "role",
          "type": "bytes32"
        },
        {
          "internalType": "address",
          "name": "account",
          "type": "address"
        }
      ],
      "name": "hasRole",
      "outputs": [
        {
          "internalType": "bool",
          "name": "",
          "type": "bool"
        }
      ],
      "stateMutability": "view",
      "type": "function"
    },
    {
      "inputs": [
        {
          "internalType": "address",
          "name": "account",
          "type": "address"
        },
        {
          "internalType": "string",
          "name": "functionSig",
          "type": "string"
        }
      ],
      "name": "isAllowedToCall",
      "outputs": [
        {
          "internalType": "bool",
          "name": "",
          "type": "bool"
        }
      ],
      "stateMutability": "view",
      "type": "function"
    },
    {
      "inputs": [
        {
          "internalType": "bytes32",
          "name": "role",
          "type": "bytes32"
        },
        {
          "internalType": "address",
          "name": "account",
          "type": "address"
        }
      ],
      "name": "renounceRole",
      "outputs": [],
      "stateMutability": "nonpayable",
      "type": "function"
    },
    {
      "inputs": [
        {
          "internalType": "address",
          "name": "contractAddress",
          "type": "address"
        },
        {
          "internalType": "string",
          "name": "functionSig",
          "type": "string"
        },
        {
          "internalType": "address",
          "name": "accountToRevoke",
          "type": "address"
        }
      ],
      "name": "revokeCallPermission",
      "outputs": [],
      "stateMutability": "nonpayable",
      "type": "function"
    },
    {
      "inputs": [
        {
          "internalType": "bytes32",
          "name": "role",
          "type": "bytes32"
        },
        {
          "internalType": "address",
          "name": "account",
          "type": "address"
        }
      ],
      "name": "revokeRole",
      "outputs": [],
      "stateMutability": "nonpayable",
      "type": "function"
    },
    {
      "inputs": [
        {
          "internalType": "bytes4",
          "name": "interfaceId",
          "type": "bytes4"
        }
      ],
      "name": "supportsInterface",
      "outputs": [
        {
          "internalType": "bool",
          "name": "",
          "type": "bool"
        }
      ],
      "stateMutability": "view",
      "type": "function"
    }
  ],
  "transactionHash": "0xe51b999484fed8f059655f26fb32cc27611fa39195c7cafa31f5a3bcd05c1454",
  "args": [],
  "numDeployments": 1,
  "solcInputHash": "bd7b7b49aadd8e29ac14a4aca0f47cf3",
  "bytecode": "0x608060405234801561001057600080fd5b506100246000801b3361002960201b60201c565b61019b565b610039828261003d60201b60201c565b5050565b61004d828261012960201b60201c565b61012557600160008084815260200190815260200160002060000160008373ffffffffffffffffffffffffffffffffffffffff1673ffffffffffffffffffffffffffffffffffffffff16815260200190815260200160002060006101000a81548160ff0219169083151502179055506100ca61019360201b60201c565b73ffffffffffffffffffffffffffffffffffffffff168173ffffffffffffffffffffffffffffffffffffffff16837f2f8788117e7eff1d82e926ec794901d17c78024a50270940304540a733656f0d60405160405180910390a45b5050565b600080600084815260200190815260200160002060000160008373ffffffffffffffffffffffffffffffffffffffff1673ffffffffffffffffffffffffffffffffffffffff16815260200190815260200160002060009054906101000a900460ff16905092915050565b600033905090565b611357806101aa6000396000f3fe608060405234801561001057600080fd5b506004361061009e5760003560e01c8063545f7a3211610066578063545f7a321461016b578063584f6b601461018757806391d14854146101a3578063a217fddf146101d3578063d547741f146101f15761009e565b806301ffc9a7146100a357806318c5e8ab146100d3578063248a9ca3146101035780632f2ff15d1461013357806336568abe1461014f575b600080fd5b6100bd60048036038101906100b89190610ad2565b61020d565b6040516100ca9190610b1a565b60405180910390f35b6100ed60048036038101906100e89190610cd9565b610287565b6040516100fa9190610b1a565b60405180910390f35b61011d60048036038101906101189190610d6b565b610310565b60405161012a9190610da7565b60405180910390f35b61014d60048036038101906101489190610dc2565b61032f565b005b61016960048036038101906101649190610dc2565b610350565b005b61018560048036038101906101809190610e02565b6103d3565b005b6101a1600480360381019061019c9190610e02565b610410565b005b6101bd60048036038101906101b89190610dc2565b6104b4565b6040516101ca9190610b1a565b60405180910390f35b6101db61051e565b6040516101e89190610da7565b60405180910390f35b61020b60048036038101906102069190610dc2565b610525565b005b60007f7965db0b000000000000000000000000000000000000000000000000000000007bffffffffffffffffffffffffffffffffffffffffffffffffffffffff1916827bffffffffffffffffffffffffffffffffffffffffffffffffffffffff19161480610280575061027f82610546565b5b9050919050565b600080338360405160200161029d929190610f33565b6040516020818303038152906040528051906020012090506102bf81856104b4565b156102ce57600191505061030a565b6000801b836040516020016102e4929190610f7c565b60405160208183030381529060405280519060200120905061030681856104b4565b9150505b92915050565b6000806000838152602001908152602001600020600101549050919050565b61033882610310565b610341816105b0565b61034b83836105c4565b505050565b6103586106a4565b73ffffffffffffffffffffffffffffffffffffffff168173ffffffffffffffffffffffffffffffffffffffff16146103c5576040517f08c379a00000000000000000000000000000000000000000000000000000000081526004016103bc90611027565b60405180910390fd5b6103cf82826106ac565b5050565b600083836040516020016103e8929190610f33565b60405160208183030381529060405280519060200120905061040a8183610525565b50505050565b60008073ffffffffffffffffffffffffffffffffffffffff168473ffffffffffffffffffffffffffffffffffffffff1603610478576000801b8360405160200161045b929190610f7c565b6040516020818303038152906040528051906020012090506104a4565b838360405160200161048b929190610f33565b6040516020818303038152906040528051906020012090505b6104ae818361032f565b50505050565b600080600084815260200190815260200160002060000160008373ffffffffffffffffffffffffffffffffffffffff1673ffffffffffffffffffffffffffffffffffffffff16815260200190815260200160002060009054906101000a900460ff16905092915050565b6000801b81565b61052e82610310565b610537816105b0565b61054183836106ac565b505050565b60007f01ffc9a7000000000000000000000000000000000000000000000000000000007bffffffffffffffffffffffffffffffffffffffffffffffffffffffff1916827bffffffffffffffffffffffffffffffffffffffffffffffffffffffff1916149050919050565b6105c1816105bc6106a4565b61078d565b50565b6105ce82826104b4565b6106a057600160008084815260200190815260200160002060000160008373ffffffffffffffffffffffffffffffffffffffff1673ffffffffffffffffffffffffffffffffffffffff16815260200190815260200160002060006101000a81548160ff0219169083151502179055506106456106a4565b73ffffffffffffffffffffffffffffffffffffffff168173ffffffffffffffffffffffffffffffffffffffff16837f2f8788117e7eff1d82e926ec794901d17c78024a50270940304540a733656f0d60405160405180910390a45b5050565b600033905090565b6106b682826104b4565b1561078957600080600084815260200190815260200160002060000160008373ffffffffffffffffffffffffffffffffffffffff1673ffffffffffffffffffffffffffffffffffffffff16815260200190815260200160002060006101000a81548160ff02191690831515021790555061072e6106a4565b73ffffffffffffffffffffffffffffffffffffffff168173ffffffffffffffffffffffffffffffffffffffff16837ff6391f5c32d9c69d2a47ea670b442974b53935d1edc7fd64eb21e047a839171b60405160405180910390a45b5050565b61079782826104b4565b610826576107bc8173ffffffffffffffffffffffffffffffffffffffff16601461082a565b6107ca8360001c602061082a565b6040516020016107db9291906110df565b6040516020818303038152906040526040517f08c379a000000000000000000000000000000000000000000000000000000000815260040161081d9190611152565b60405180910390fd5b5050565b60606000600283600261083d91906111ad565b6108479190611207565b67ffffffffffffffff8111156108605761085f610bae565b5b6040519080825280601f01601f1916602001820160405280156108925781602001600182028036833780820191505090505b5090507f3000000000000000000000000000000000000000000000000000000000000000816000815181106108ca576108c961125d565b5b60200101907effffffffffffffffffffffffffffffffffffffffffffffffffffffffffffff1916908160001a9053507f78000000000000000000000000000000000000000000000000000000000000008160018151811061092e5761092d61125d565b5b60200101907effffffffffffffffffffffffffffffffffffffffffffffffffffffffffffff1916908160001a9053506000600184600261096e91906111ad565b6109789190611207565b90505b6001811115610a18577f3031323334353637383961626364656600000000000000000000000000000000600f8616601081106109ba576109b961125d565b5b1a60f81b8282815181106109d1576109d061125d565b5b60200101907effffffffffffffffffffffffffffffffffffffffffffffffffffffffffffff1916908160001a905350600485901c945080610a119061128c565b905061097b565b5060008414610a5c576040517f08c379a0000000000000000000000000000000000000000000000000000000008152600401610a5390611301565b60405180910390fd5b8091505092915050565b6000604051905090565b600080fd5b600080fd5b60007fffffffff0000000000000000000000000000000000000000000000000000000082169050919050565b610aaf81610a7a565b8114610aba57600080fd5b50565b600081359050610acc81610aa6565b92915050565b600060208284031215610ae857610ae7610a70565b5b6000610af684828501610abd565b91505092915050565b60008115159050919050565b610b1481610aff565b82525050565b6000602082019050610b2f6000830184610b0b565b92915050565b600073ffffffffffffffffffffffffffffffffffffffff82169050919050565b6000610b6082610b35565b9050919050565b610b7081610b55565b8114610b7b57600080fd5b50565b600081359050610b8d81610b67565b92915050565b600080fd5b600080fd5b6000601f19601f8301169050919050565b7f4e487b7100000000000000000000000000000000000000000000000000000000600052604160045260246000fd5b610be682610b9d565b810181811067ffffffffffffffff82111715610c0557610c04610bae565b5b80604052505050565b6000610c18610a66565b9050610c248282610bdd565b919050565b600067ffffffffffffffff821115610c4457610c43610bae565b5b610c4d82610b9d565b9050602081019050919050565b82818337600083830152505050565b6000610c7c610c7784610c29565b610c0e565b905082815260208101848484011115610c9857610c97610b98565b5b610ca3848285610c5a565b509392505050565b600082601f830112610cc057610cbf610b93565b5b8135610cd0848260208601610c69565b91505092915050565b60008060408385031215610cf057610cef610a70565b5b6000610cfe85828601610b7e565b925050602083013567ffffffffffffffff811115610d1f57610d1e610a75565b5b610d2b85828601610cab565b9150509250929050565b6000819050919050565b610d4881610d35565b8114610d5357600080fd5b50565b600081359050610d6581610d3f565b92915050565b600060208284031215610d8157610d80610a70565b5b6000610d8f84828501610d56565b91505092915050565b610da181610d35565b82525050565b6000602082019050610dbc6000830184610d98565b92915050565b60008060408385031215610dd957610dd8610a70565b5b6000610de785828601610d56565b9250506020610df885828601610b7e565b9150509250929050565b600080600060608486031215610e1b57610e1a610a70565b5b6000610e2986828701610b7e565b935050602084013567ffffffffffffffff811115610e4a57610e49610a75565b5b610e5686828701610cab565b9250506040610e6786828701610b7e565b9150509250925092565b60008160601b9050919050565b6000610e8982610e71565b9050919050565b6000610e9b82610e7e565b9050919050565b610eb3610eae82610b55565b610e90565b82525050565b600081519050919050565b600081905092915050565b60005b83811015610eed578082015181840152602081019050610ed2565b83811115610efc576000848401525b50505050565b6000610f0d82610eb9565b610f178185610ec4565b9350610f27818560208601610ecf565b80840191505092915050565b6000610f3f8285610ea2565b601482019150610f4f8284610f02565b91508190509392505050565b6000819050919050565b610f76610f7182610d35565b610f5b565b82525050565b6000610f888285610f65565b602082019150610f988284610f02565b91508190509392505050565b600082825260208201905092915050565b7f416363657373436f6e74726f6c3a2063616e206f6e6c792072656e6f756e636560008201527f20726f6c657320666f722073656c660000000000000000000000000000000000602082015250565b6000611011602f83610fa4565b915061101c82610fb5565b604082019050919050565b6000602082019050818103600083015261104081611004565b9050919050565b7f416363657373436f6e74726f6c3a206163636f756e7420000000000000000000600082015250565b600061107d601783610ec4565b915061108882611047565b601782019050919050565b7f206973206d697373696e6720726f6c6520000000000000000000000000000000600082015250565b60006110c9601183610ec4565b91506110d482611093565b601182019050919050565b60006110ea82611070565b91506110f68285610f02565b9150611101826110bc565b915061110d8284610f02565b91508190509392505050565b600061112482610eb9565b61112e8185610fa4565b935061113e818560208601610ecf565b61114781610b9d565b840191505092915050565b6000602082019050818103600083015261116c8184611119565b905092915050565b6000819050919050565b7f4e487b7100000000000000000000000000000000000000000000000000000000600052601160045260246000fd5b60006111b882611174565b91506111c383611174565b9250817fffffffffffffffffffffffffffffffffffffffffffffffffffffffffffffffff04831182151516156111fc576111fb61117e565b5b828202905092915050565b600061121282611174565b915061121d83611174565b9250827fffffffffffffffffffffffffffffffffffffffffffffffffffffffffffffffff038211156112525761125161117e565b5b828201905092915050565b7f4e487b7100000000000000000000000000000000000000000000000000000000600052603260045260246000fd5b600061129782611174565b9150600082036112aa576112a961117e565b5b600182039050919050565b7f537472696e67733a20686578206c656e67746820696e73756666696369656e74600082015250565b60006112eb602083610fa4565b91506112f6826112b5565b602082019050919050565b6000602082019050818103600083015261131a816112de565b905091905056fea26469706673582212206fc26b8c0a1e1f96ecf29dcd0ed92beae85c0be871bd4831f201fbfa9ca5582b64736f6c634300080d0033",
  "devdoc": {
    "author": "0xLucian",
    "details": "This contract is a wrapper of OpenZeppelin AccessControl\t\textending it in a way to standartize access control\t\twithin Venus Smart Contract Ecosystem",
    "kind": "dev",
    "methods": {
      "getRoleAdmin(bytes32)": {
        "details": "Returns the admin role that controls `role`. See {grantRole} and {revokeRole}. To change a role's admin, use {_setRoleAdmin}."
      },
      "giveCallPermission(address,string,address)": {
        "details": "this function can be called only from Role Admin or DEFAULT_ADMIN_ROLE \t\tMay emit a {RoleGranted} event.",
        "params": {
          "accountToPermit": "account that will be given access to the contract function",
          "contractAddress": "address of contract for which call permissions will be granted NOTE: if contractAddress is zero address, we give the account DEFAULT_ADMIN_ROLE,      meaning that this account can access the certain function on ANY contract managed by this ACL",
          "functionSig": "signature e.g. \"functionName(uint,bool)\""
        }
      },
      "grantRole(bytes32,address)": {
        "details": "Grants `role` to `account`. If `account` had not been already granted `role`, emits a {RoleGranted} event. Requirements: - the caller must have ``role``'s admin role. May emit a {RoleGranted} event."
      },
      "hasRole(bytes32,address)": {
        "details": "Returns `true` if `account` has been granted `role`."
      },
      "isAllowedToCall(address,string)": {
        "details": "Since the contract is calling itself this function, we can get contracts address with msg.sender",
        "params": {
          "account": "address (eoa or contract) for which call permissions will be checked",
          "functionSig": "signature e.g. \"functionName(uint,bool)\""
        },
        "returns": {
          "_0": "false if the user account cannot call the particular contract function"
        }
      },
      "renounceRole(bytes32,address)": {
        "details": "Revokes `role` from the calling account. Roles are often managed via {grantRole} and {revokeRole}: this function's purpose is to provide a mechanism for accounts to lose their privileges if they are compromised (such as when a trusted device is misplaced). If the calling account had been revoked `role`, emits a {RoleRevoked} event. Requirements: - the caller must be `account`. May emit a {RoleRevoked} event."
      },
      "revokeCallPermission(address,string,address)": {
        "details": "this function can be called only from Role Admin or DEFAULT_ADMIN_ROLE \t\tMay emit a {RoleRevoked} event.",
        "params": {
          "contractAddress": "address of contract for which call permissions will be revoked",
          "functionSig": "signature e.g. \"functionName(uint,bool)\""
        }
      },
      "revokeRole(bytes32,address)": {
        "details": "Revokes `role` from `account`. If `account` had been granted `role`, emits a {RoleRevoked} event. Requirements: - the caller must have ``role``'s admin role. May emit a {RoleRevoked} event."
      },
      "supportsInterface(bytes4)": {
        "details": "See {IERC165-supportsInterface}."
      }
    },
    "title": "Venus Access Control Contract",
    "version": 1
  },
  "userdoc": {
    "kind": "user",
    "methods": {
      "giveCallPermission(address,string,address)": {
        "notice": "Gives a function call permission to one single account"
      },
      "isAllowedToCall(address,string)": {
        "notice": "Verifies if the given account can call a praticular contract's function"
      },
      "revokeCallPermission(address,string,address)": {
        "notice": "Revokes an account's permission to a particular function call"
      }
    },
    "version": 1
  },
  "storageLayout": {
    "storage": [
      {
        "astId": 24,
        "contract": "contracts/AccessControlManager.sol:AccessControlManager",
        "label": "_roles",
        "offset": 0,
        "slot": "0",
        "type": "t_mapping(t_bytes32,t_struct(RoleData)19_storage)"
      }
    ],
    "types": {
      "t_address": {
        "encoding": "inplace",
        "label": "address",
        "numberOfBytes": "20"
      },
      "t_bool": {
        "encoding": "inplace",
        "label": "bool",
        "numberOfBytes": "1"
      },
      "t_bytes32": {
        "encoding": "inplace",
        "label": "bytes32",
        "numberOfBytes": "32"
      },
      "t_mapping(t_address,t_bool)": {
        "encoding": "mapping",
        "key": "t_address",
        "label": "mapping(address => bool)",
        "numberOfBytes": "32",
        "value": "t_bool"
      },
      "t_mapping(t_bytes32,t_struct(RoleData)19_storage)": {
        "encoding": "mapping",
        "key": "t_bytes32",
        "label": "mapping(bytes32 => struct AccessControl.RoleData)",
        "numberOfBytes": "32",
        "value": "t_struct(RoleData)19_storage"
      },
      "t_struct(RoleData)19_storage": {
        "encoding": "inplace",
        "label": "struct AccessControl.RoleData",
        "members": [
          {
            "astId": 16,
            "contract": "contracts/AccessControlManager.sol:AccessControlManager",
            "label": "members",
            "offset": 0,
            "slot": "0",
            "type": "t_mapping(t_address,t_bool)"
          },
          {
            "astId": 18,
            "contract": "contracts/AccessControlManager.sol:AccessControlManager",
            "label": "adminRole",
            "offset": 0,
            "slot": "1",
            "type": "t_bytes32"
          }
        ],
        "numberOfBytes": "64"
      }
    }
  }
}