{
  "address": "0xb65b8F3b08DF73350c11EAA76DdED3cd506A0D32",
  "abi": [
    {
      "inputs": [],
      "payable": false,
      "stateMutability": "nonpayable",
      "type": "constructor"
    },
    {
      "anonymous": false,
      "inputs": [
        {
          "indexed": true,
          "internalType": "contract VToken",
          "name": "vToken",
          "type": "address"
        },
        {
          "indexed": true,
          "internalType": "enum ComptrollerV9Storage.Action",
          "name": "action",
          "type": "uint8"
        },
        {
          "indexed": false,
          "internalType": "bool",
          "name": "pauseState",
          "type": "bool"
        }
      ],
      "name": "ActionPausedMarket",
      "type": "event"
    },
    {
      "anonymous": false,
      "inputs": [
        {
          "indexed": false,
          "internalType": "bool",
          "name": "state",
          "type": "bool"
        }
      ],
      "name": "ActionProtocolPaused",
      "type": "event"
    },
    {
      "anonymous": false,
      "inputs": [
        {
          "indexed": true,
          "internalType": "contract VToken",
          "name": "vToken",
          "type": "address"
        },
        {
          "indexed": true,
          "internalType": "address",
          "name": "borrower",
          "type": "address"
        },
        {
          "indexed": false,
          "internalType": "uint256",
          "name": "venusDelta",
          "type": "uint256"
        },
        {
          "indexed": false,
          "internalType": "uint256",
          "name": "venusBorrowIndex",
          "type": "uint256"
        }
      ],
      "name": "DistributedBorrowerVenus",
      "type": "event"
    },
    {
      "anonymous": false,
      "inputs": [
        {
          "indexed": true,
          "internalType": "contract VToken",
          "name": "vToken",
          "type": "address"
        },
        {
          "indexed": true,
          "internalType": "address",
          "name": "supplier",
          "type": "address"
        },
        {
          "indexed": false,
          "internalType": "uint256",
          "name": "venusDelta",
          "type": "uint256"
        },
        {
          "indexed": false,
          "internalType": "uint256",
          "name": "venusSupplyIndex",
          "type": "uint256"
        }
      ],
      "name": "DistributedSupplierVenus",
      "type": "event"
    },
    {
      "anonymous": false,
      "inputs": [
        {
          "indexed": false,
          "internalType": "uint256",
          "name": "amount",
          "type": "uint256"
        }
      ],
      "name": "DistributedVAIVaultVenus",
      "type": "event"
    },
    {
      "anonymous": false,
      "inputs": [
        {
          "indexed": false,
          "internalType": "uint256",
          "name": "error",
          "type": "uint256"
        },
        {
          "indexed": false,
          "internalType": "uint256",
          "name": "info",
          "type": "uint256"
        },
        {
          "indexed": false,
          "internalType": "uint256",
          "name": "detail",
          "type": "uint256"
        }
      ],
      "name": "Failure",
      "type": "event"
    },
    {
      "anonymous": false,
      "inputs": [
        {
          "indexed": false,
          "internalType": "contract VToken",
          "name": "vToken",
          "type": "address"
        },
        {
          "indexed": false,
          "internalType": "address",
          "name": "account",
          "type": "address"
        }
      ],
      "name": "MarketEntered",
      "type": "event"
    },
    {
      "anonymous": false,
      "inputs": [
        {
          "indexed": false,
          "internalType": "contract VToken",
          "name": "vToken",
          "type": "address"
        },
        {
          "indexed": false,
          "internalType": "address",
          "name": "account",
          "type": "address"
        }
      ],
      "name": "MarketExited",
      "type": "event"
    },
    {
      "anonymous": false,
      "inputs": [
        {
          "indexed": false,
          "internalType": "contract VToken",
          "name": "vToken",
          "type": "address"
        }
      ],
      "name": "MarketListed",
      "type": "event"
    },
    {
      "anonymous": false,
      "inputs": [
        {
          "indexed": false,
          "internalType": "address",
          "name": "oldAccessControlAddress",
          "type": "address"
        },
        {
          "indexed": false,
          "internalType": "address",
          "name": "newAccessControlAddress",
          "type": "address"
        }
      ],
      "name": "NewAccessControl",
      "type": "event"
    },
    {
      "anonymous": false,
      "inputs": [
        {
          "indexed": true,
          "internalType": "contract VToken",
          "name": "vToken",
          "type": "address"
        },
        {
          "indexed": false,
          "internalType": "uint256",
          "name": "newBorrowCap",
          "type": "uint256"
        }
      ],
      "name": "NewBorrowCap",
      "type": "event"
    },
    {
      "anonymous": false,
      "inputs": [
        {
          "indexed": false,
          "internalType": "uint256",
          "name": "oldCloseFactorMantissa",
          "type": "uint256"
        },
        {
          "indexed": false,
          "internalType": "uint256",
          "name": "newCloseFactorMantissa",
          "type": "uint256"
        }
      ],
      "name": "NewCloseFactor",
      "type": "event"
    },
    {
      "anonymous": false,
      "inputs": [
        {
          "indexed": false,
          "internalType": "contract VToken",
          "name": "vToken",
          "type": "address"
        },
        {
          "indexed": false,
          "internalType": "uint256",
          "name": "oldCollateralFactorMantissa",
          "type": "uint256"
        },
        {
          "indexed": false,
          "internalType": "uint256",
          "name": "newCollateralFactorMantissa",
          "type": "uint256"
        }
      ],
      "name": "NewCollateralFactor",
      "type": "event"
    },
    {
      "anonymous": false,
      "inputs": [
        {
          "indexed": false,
          "internalType": "address",
          "name": "oldComptrollerLens",
          "type": "address"
        },
        {
          "indexed": false,
          "internalType": "address",
          "name": "newComptrollerLens",
          "type": "address"
        }
      ],
      "name": "NewComptrollerLens",
      "type": "event"
    },
    {
      "anonymous": false,
      "inputs": [
        {
          "indexed": false,
          "internalType": "uint256",
          "name": "oldLiquidationIncentiveMantissa",
          "type": "uint256"
        },
        {
          "indexed": false,
          "internalType": "uint256",
          "name": "newLiquidationIncentiveMantissa",
          "type": "uint256"
        }
      ],
      "name": "NewLiquidationIncentive",
      "type": "event"
    },
    {
      "anonymous": false,
      "inputs": [
        {
          "indexed": false,
          "internalType": "address",
          "name": "oldLiquidatorContract",
          "type": "address"
        },
        {
          "indexed": false,
          "internalType": "address",
          "name": "newLiquidatorContract",
          "type": "address"
        }
      ],
      "name": "NewLiquidatorContract",
      "type": "event"
    },
    {
      "anonymous": false,
      "inputs": [
        {
          "indexed": false,
          "internalType": "address",
          "name": "oldPauseGuardian",
          "type": "address"
        },
        {
          "indexed": false,
          "internalType": "address",
          "name": "newPauseGuardian",
          "type": "address"
        }
      ],
      "name": "NewPauseGuardian",
      "type": "event"
    },
    {
      "anonymous": false,
      "inputs": [
        {
          "indexed": false,
          "internalType": "contract PriceOracle",
          "name": "oldPriceOracle",
          "type": "address"
        },
        {
          "indexed": false,
          "internalType": "contract PriceOracle",
          "name": "newPriceOracle",
          "type": "address"
        }
      ],
      "name": "NewPriceOracle",
      "type": "event"
    },
    {
      "anonymous": false,
      "inputs": [
        {
          "indexed": true,
          "internalType": "contract VToken",
          "name": "vToken",
          "type": "address"
        },
        {
          "indexed": false,
          "internalType": "uint256",
          "name": "newSupplyCap",
          "type": "uint256"
        }
      ],
      "name": "NewSupplyCap",
      "type": "event"
    },
    {
      "anonymous": false,
      "inputs": [
        {
          "indexed": false,
          "internalType": "address",
          "name": "oldTreasuryAddress",
          "type": "address"
        },
        {
          "indexed": false,
          "internalType": "address",
          "name": "newTreasuryAddress",
          "type": "address"
        }
      ],
      "name": "NewTreasuryAddress",
      "type": "event"
    },
    {
      "anonymous": false,
      "inputs": [
        {
          "indexed": false,
          "internalType": "address",
          "name": "oldTreasuryGuardian",
          "type": "address"
        },
        {
          "indexed": false,
          "internalType": "address",
          "name": "newTreasuryGuardian",
          "type": "address"
        }
      ],
      "name": "NewTreasuryGuardian",
      "type": "event"
    },
    {
      "anonymous": false,
      "inputs": [
        {
          "indexed": false,
          "internalType": "uint256",
          "name": "oldTreasuryPercent",
          "type": "uint256"
        },
        {
          "indexed": false,
          "internalType": "uint256",
          "name": "newTreasuryPercent",
          "type": "uint256"
        }
      ],
      "name": "NewTreasuryPercent",
      "type": "event"
    },
    {
      "anonymous": false,
      "inputs": [
        {
          "indexed": false,
          "internalType": "contract VAIControllerInterface",
          "name": "oldVAIController",
          "type": "address"
        },
        {
          "indexed": false,
          "internalType": "contract VAIControllerInterface",
          "name": "newVAIController",
          "type": "address"
        }
      ],
      "name": "NewVAIController",
      "type": "event"
    },
    {
      "anonymous": false,
      "inputs": [
        {
          "indexed": false,
          "internalType": "uint256",
          "name": "oldVAIMintRate",
          "type": "uint256"
        },
        {
          "indexed": false,
          "internalType": "uint256",
          "name": "newVAIMintRate",
          "type": "uint256"
        }
      ],
      "name": "NewVAIMintRate",
      "type": "event"
    },
    {
      "anonymous": false,
      "inputs": [
        {
          "indexed": false,
          "internalType": "address",
          "name": "vault_",
          "type": "address"
        },
        {
          "indexed": false,
          "internalType": "uint256",
          "name": "releaseStartBlock_",
          "type": "uint256"
        },
        {
          "indexed": false,
          "internalType": "uint256",
          "name": "releaseInterval_",
          "type": "uint256"
        }
      ],
      "name": "NewVAIVaultInfo",
      "type": "event"
    },
    {
      "anonymous": false,
      "inputs": [
        {
          "indexed": false,
          "internalType": "uint256",
          "name": "oldVenusVAIVaultRate",
          "type": "uint256"
        },
        {
          "indexed": false,
          "internalType": "uint256",
          "name": "newVenusVAIVaultRate",
          "type": "uint256"
        }
      ],
      "name": "NewVenusVAIVaultRate",
      "type": "event"
    },
    {
      "anonymous": false,
      "inputs": [
        {
          "indexed": false,
          "internalType": "address",
          "name": "recipient",
          "type": "address"
        },
        {
          "indexed": false,
          "internalType": "uint256",
          "name": "amount",
          "type": "uint256"
        }
      ],
      "name": "VenusGranted",
      "type": "event"
    },
    {
      "anonymous": false,
      "inputs": [
        {
          "indexed": true,
          "internalType": "contract VToken",
          "name": "vToken",
          "type": "address"
        },
        {
          "indexed": false,
          "internalType": "uint256",
          "name": "newSpeed",
          "type": "uint256"
        }
      ],
      "name": "VenusSpeedUpdated",
      "type": "event"
    },
    {
      "constant": false,
      "inputs": [
        {
          "internalType": "contract Unitroller",
          "name": "unitroller",
          "type": "address"
        }
      ],
      "name": "_become",
      "outputs": [],
      "payable": false,
      "stateMutability": "nonpayable",
      "type": "function"
    },
    {
      "constant": false,
      "inputs": [
        {
          "internalType": "address",
          "name": "recipient",
          "type": "address"
        },
        {
          "internalType": "uint256",
          "name": "amount",
          "type": "uint256"
        }
      ],
      "name": "_grantXVS",
      "outputs": [],
      "payable": false,
      "stateMutability": "nonpayable",
      "type": "function"
    },
    {
      "constant": false,
      "inputs": [
        {
          "internalType": "address",
          "name": "newAccessControlAddress",
          "type": "address"
        }
      ],
      "name": "_setAccessControl",
      "outputs": [
        {
          "internalType": "uint256",
          "name": "",
          "type": "uint256"
        }
      ],
      "payable": false,
      "stateMutability": "nonpayable",
      "type": "function"
    },
    {
      "constant": false,
      "inputs": [
        {
          "internalType": "address[]",
          "name": "markets",
          "type": "address[]"
        },
        {
          "internalType": "enum ComptrollerV9Storage.Action[]",
          "name": "actions",
          "type": "uint8[]"
        },
        {
          "internalType": "bool",
          "name": "paused",
          "type": "bool"
        }
      ],
      "name": "_setActionsPaused",
      "outputs": [],
      "payable": false,
      "stateMutability": "nonpayable",
      "type": "function"
    },
    {
      "constant": false,
      "inputs": [
        {
          "internalType": "uint256",
          "name": "newCloseFactorMantissa",
          "type": "uint256"
        }
      ],
      "name": "_setCloseFactor",
      "outputs": [
        {
          "internalType": "uint256",
          "name": "",
          "type": "uint256"
        }
      ],
      "payable": false,
      "stateMutability": "nonpayable",
      "type": "function"
    },
    {
      "constant": false,
      "inputs": [
        {
          "internalType": "contract VToken",
          "name": "vToken",
          "type": "address"
        },
        {
          "internalType": "uint256",
          "name": "newCollateralFactorMantissa",
          "type": "uint256"
        }
      ],
      "name": "_setCollateralFactor",
      "outputs": [
        {
          "internalType": "uint256",
          "name": "",
          "type": "uint256"
        }
      ],
      "payable": false,
      "stateMutability": "nonpayable",
      "type": "function"
    },
    {
      "constant": false,
      "inputs": [
        {
          "internalType": "contract ComptrollerLensInterface",
          "name": "comptrollerLens_",
          "type": "address"
        }
      ],
      "name": "_setComptrollerLens",
      "outputs": [
        {
          "internalType": "uint256",
          "name": "",
          "type": "uint256"
        }
      ],
      "payable": false,
      "stateMutability": "nonpayable",
      "type": "function"
    },
    {
      "constant": false,
      "inputs": [
        {
          "internalType": "uint256",
          "name": "newLiquidationIncentiveMantissa",
          "type": "uint256"
        }
      ],
      "name": "_setLiquidationIncentive",
      "outputs": [
        {
          "internalType": "uint256",
          "name": "",
          "type": "uint256"
        }
      ],
      "payable": false,
      "stateMutability": "nonpayable",
      "type": "function"
    },
    {
      "constant": false,
      "inputs": [
        {
          "internalType": "address",
          "name": "newLiquidatorContract_",
          "type": "address"
        }
      ],
      "name": "_setLiquidatorContract",
      "outputs": [],
      "payable": false,
      "stateMutability": "nonpayable",
      "type": "function"
    },
    {
      "constant": false,
      "inputs": [
        {
          "internalType": "contract VToken[]",
          "name": "vTokens",
          "type": "address[]"
        },
        {
          "internalType": "uint256[]",
          "name": "newBorrowCaps",
          "type": "uint256[]"
        }
      ],
      "name": "_setMarketBorrowCaps",
      "outputs": [],
      "payable": false,
      "stateMutability": "nonpayable",
      "type": "function"
    },
    {
      "constant": false,
      "inputs": [
        {
          "internalType": "contract VToken[]",
          "name": "vTokens",
          "type": "address[]"
        },
        {
          "internalType": "uint256[]",
          "name": "newSupplyCaps",
          "type": "uint256[]"
        }
      ],
      "name": "_setMarketSupplyCaps",
      "outputs": [],
      "payable": false,
      "stateMutability": "nonpayable",
      "type": "function"
    },
    {
      "constant": false,
      "inputs": [
        {
          "internalType": "address",
          "name": "newPauseGuardian",
          "type": "address"
        }
      ],
      "name": "_setPauseGuardian",
      "outputs": [
        {
          "internalType": "uint256",
          "name": "",
          "type": "uint256"
        }
      ],
      "payable": false,
      "stateMutability": "nonpayable",
      "type": "function"
    },
    {
      "constant": false,
      "inputs": [
        {
          "internalType": "contract PriceOracle",
          "name": "newOracle",
          "type": "address"
        }
      ],
      "name": "_setPriceOracle",
      "outputs": [
        {
          "internalType": "uint256",
          "name": "",
          "type": "uint256"
        }
      ],
      "payable": false,
      "stateMutability": "nonpayable",
      "type": "function"
    },
    {
      "constant": false,
      "inputs": [
        {
          "internalType": "bool",
          "name": "state",
          "type": "bool"
        }
      ],
      "name": "_setProtocolPaused",
      "outputs": [
        {
          "internalType": "bool",
          "name": "",
          "type": "bool"
        }
      ],
      "payable": false,
      "stateMutability": "nonpayable",
      "type": "function"
    },
    {
      "constant": false,
      "inputs": [
        {
          "internalType": "address",
          "name": "newTreasuryGuardian",
          "type": "address"
        },
        {
          "internalType": "address",
          "name": "newTreasuryAddress",
          "type": "address"
        },
        {
          "internalType": "uint256",
          "name": "newTreasuryPercent",
          "type": "uint256"
        }
      ],
      "name": "_setTreasuryData",
      "outputs": [
        {
          "internalType": "uint256",
          "name": "",
          "type": "uint256"
        }
      ],
      "payable": false,
      "stateMutability": "nonpayable",
      "type": "function"
    },
    {
      "constant": false,
      "inputs": [
        {
          "internalType": "contract VAIControllerInterface",
          "name": "vaiController_",
          "type": "address"
        }
      ],
      "name": "_setVAIController",
      "outputs": [
        {
          "internalType": "uint256",
          "name": "",
          "type": "uint256"
        }
      ],
      "payable": false,
      "stateMutability": "nonpayable",
      "type": "function"
    },
    {
      "constant": false,
      "inputs": [
        {
          "internalType": "uint256",
          "name": "newVAIMintRate",
          "type": "uint256"
        }
      ],
      "name": "_setVAIMintRate",
      "outputs": [
        {
          "internalType": "uint256",
          "name": "",
          "type": "uint256"
        }
      ],
      "payable": false,
      "stateMutability": "nonpayable",
      "type": "function"
    },
    {
      "constant": false,
      "inputs": [
        {
          "internalType": "address",
          "name": "vault_",
          "type": "address"
        },
        {
          "internalType": "uint256",
          "name": "releaseStartBlock_",
          "type": "uint256"
        },
        {
          "internalType": "uint256",
          "name": "minReleaseAmount_",
          "type": "uint256"
        }
      ],
      "name": "_setVAIVaultInfo",
      "outputs": [],
      "payable": false,
      "stateMutability": "nonpayable",
      "type": "function"
    },
    {
      "constant": false,
      "inputs": [
        {
          "internalType": "contract VToken",
          "name": "vToken",
          "type": "address"
        },
        {
          "internalType": "uint256",
          "name": "venusSpeed",
          "type": "uint256"
        }
      ],
      "name": "_setVenusSpeed",
      "outputs": [],
      "payable": false,
      "stateMutability": "nonpayable",
      "type": "function"
    },
    {
      "constant": false,
      "inputs": [
        {
          "internalType": "uint256",
          "name": "venusVAIVaultRate_",
          "type": "uint256"
        }
      ],
      "name": "_setVenusVAIVaultRate",
      "outputs": [],
      "payable": false,
      "stateMutability": "nonpayable",
      "type": "function"
    },
    {
      "constant": false,
      "inputs": [
        {
          "internalType": "contract VToken",
          "name": "vToken",
          "type": "address"
        }
      ],
      "name": "_supportMarket",
      "outputs": [
        {
          "internalType": "uint256",
          "name": "",
          "type": "uint256"
        }
      ],
      "payable": false,
      "stateMutability": "nonpayable",
      "type": "function"
    },
    {
      "constant": true,
      "inputs": [
        {
          "internalType": "address",
          "name": "",
          "type": "address"
        },
        {
          "internalType": "uint256",
          "name": "",
          "type": "uint256"
        }
      ],
      "name": "accountAssets",
      "outputs": [
        {
          "internalType": "contract VToken",
          "name": "",
          "type": "address"
        }
      ],
      "payable": false,
      "stateMutability": "view",
      "type": "function"
    },
    {
      "constant": true,
      "inputs": [
        {
          "internalType": "address",
          "name": "market",
          "type": "address"
        },
        {
          "internalType": "enum ComptrollerV9Storage.Action",
          "name": "action",
          "type": "uint8"
        }
      ],
      "name": "actionPaused",
      "outputs": [
        {
          "internalType": "bool",
          "name": "",
          "type": "bool"
        }
      ],
      "payable": false,
      "stateMutability": "view",
      "type": "function"
    },
    {
      "constant": true,
      "inputs": [],
      "name": "admin",
      "outputs": [
        {
          "internalType": "address",
          "name": "",
          "type": "address"
        }
      ],
      "payable": false,
      "stateMutability": "view",
      "type": "function"
    },
    {
      "constant": true,
      "inputs": [
        {
          "internalType": "uint256",
          "name": "",
          "type": "uint256"
        }
      ],
      "name": "allMarkets",
      "outputs": [
        {
          "internalType": "contract VToken",
          "name": "",
          "type": "address"
        }
      ],
      "payable": false,
      "stateMutability": "view",
      "type": "function"
    },
    {
      "constant": false,
      "inputs": [
        {
          "internalType": "address",
          "name": "vToken",
          "type": "address"
        },
        {
          "internalType": "address",
          "name": "borrower",
          "type": "address"
        },
        {
          "internalType": "uint256",
          "name": "borrowAmount",
          "type": "uint256"
        }
      ],
      "name": "borrowAllowed",
      "outputs": [
        {
          "internalType": "uint256",
          "name": "",
          "type": "uint256"
        }
      ],
      "payable": false,
      "stateMutability": "nonpayable",
      "type": "function"
    },
    {
      "constant": true,
      "inputs": [],
      "name": "borrowCapGuardian",
      "outputs": [
        {
          "internalType": "address",
          "name": "",
          "type": "address"
        }
      ],
      "payable": false,
      "stateMutability": "view",
      "type": "function"
    },
    {
      "constant": true,
      "inputs": [
        {
          "internalType": "address",
          "name": "",
          "type": "address"
        }
      ],
      "name": "borrowCaps",
      "outputs": [
        {
          "internalType": "uint256",
          "name": "",
          "type": "uint256"
        }
      ],
      "payable": false,
      "stateMutability": "view",
      "type": "function"
    },
    {
      "constant": false,
      "inputs": [
        {
          "internalType": "address",
          "name": "vToken",
          "type": "address"
        },
        {
          "internalType": "address",
          "name": "borrower",
          "type": "address"
        },
        {
          "internalType": "uint256",
          "name": "borrowAmount",
          "type": "uint256"
        }
      ],
      "name": "borrowVerify",
      "outputs": [],
      "payable": false,
      "stateMutability": "nonpayable",
      "type": "function"
    },
    {
      "constant": true,
      "inputs": [
        {
          "internalType": "address",
          "name": "account",
          "type": "address"
        },
        {
          "internalType": "contract VToken",
          "name": "vToken",
          "type": "address"
        }
      ],
      "name": "checkMembership",
      "outputs": [
        {
          "internalType": "bool",
          "name": "",
          "type": "bool"
        }
      ],
      "payable": false,
      "stateMutability": "view",
      "type": "function"
    },
    {
      "constant": false,
      "inputs": [
        {
          "internalType": "address[]",
          "name": "holders",
          "type": "address[]"
        },
        {
          "internalType": "contract VToken[]",
          "name": "vTokens",
          "type": "address[]"
        },
        {
          "internalType": "bool",
          "name": "borrowers",
          "type": "bool"
        },
        {
          "internalType": "bool",
          "name": "suppliers",
          "type": "bool"
        },
        {
          "internalType": "bool",
          "name": "collateral",
          "type": "bool"
        }
      ],
      "name": "claimVenus",
      "outputs": [],
      "payable": false,
      "stateMutability": "nonpayable",
      "type": "function"
    },
    {
      "constant": false,
      "inputs": [
        {
          "internalType": "address",
          "name": "holder",
          "type": "address"
        },
        {
          "internalType": "contract VToken[]",
          "name": "vTokens",
          "type": "address[]"
        }
      ],
      "name": "claimVenus",
      "outputs": [],
      "payable": false,
      "stateMutability": "nonpayable",
      "type": "function"
    },
    {
      "constant": false,
      "inputs": [
        {
          "internalType": "address",
          "name": "holder",
          "type": "address"
        }
      ],
      "name": "claimVenus",
      "outputs": [],
      "payable": false,
      "stateMutability": "nonpayable",
      "type": "function"
    },
    {
      "constant": false,
      "inputs": [
        {
          "internalType": "address[]",
          "name": "holders",
          "type": "address[]"
        },
        {
          "internalType": "contract VToken[]",
          "name": "vTokens",
          "type": "address[]"
        },
        {
          "internalType": "bool",
          "name": "borrowers",
          "type": "bool"
        },
        {
          "internalType": "bool",
          "name": "suppliers",
          "type": "bool"
        }
      ],
      "name": "claimVenus",
      "outputs": [],
      "payable": false,
      "stateMutability": "nonpayable",
      "type": "function"
    },
    {
      "constant": false,
      "inputs": [
        {
          "internalType": "address",
          "name": "holder",
          "type": "address"
        }
      ],
      "name": "claimVenusAsCollateral",
      "outputs": [],
      "payable": false,
      "stateMutability": "nonpayable",
      "type": "function"
    },
    {
      "constant": true,
      "inputs": [],
      "name": "closeFactorMantissa",
      "outputs": [
        {
          "internalType": "uint256",
          "name": "",
          "type": "uint256"
        }
      ],
      "payable": false,
      "stateMutability": "view",
      "type": "function"
    },
    {
      "constant": true,
      "inputs": [],
      "name": "comptrollerImplementation",
      "outputs": [
        {
          "internalType": "address",
          "name": "",
          "type": "address"
        }
      ],
      "payable": false,
      "stateMutability": "view",
      "type": "function"
    },
    {
      "constant": true,
      "inputs": [],
      "name": "comptrollerLens",
      "outputs": [
        {
          "internalType": "contract ComptrollerLensInterface",
          "name": "",
          "type": "address"
        }
      ],
      "payable": false,
      "stateMutability": "view",
      "type": "function"
    },
    {
      "constant": false,
      "inputs": [
        {
          "internalType": "address[]",
          "name": "vTokens",
          "type": "address[]"
        }
      ],
      "name": "enterMarkets",
      "outputs": [
        {
          "internalType": "uint256[]",
          "name": "",
          "type": "uint256[]"
        }
      ],
      "payable": false,
      "stateMutability": "nonpayable",
      "type": "function"
    },
    {
      "constant": false,
      "inputs": [
        {
          "internalType": "address",
          "name": "vTokenAddress",
          "type": "address"
        }
      ],
      "name": "exitMarket",
      "outputs": [
        {
          "internalType": "uint256",
          "name": "",
          "type": "uint256"
        }
      ],
      "payable": false,
      "stateMutability": "nonpayable",
      "type": "function"
    },
    {
      "constant": true,
      "inputs": [
        {
          "internalType": "address",
          "name": "account",
          "type": "address"
        }
      ],
      "name": "getAccountLiquidity",
      "outputs": [
        {
          "internalType": "uint256",
          "name": "",
          "type": "uint256"
        },
        {
          "internalType": "uint256",
          "name": "",
          "type": "uint256"
        },
        {
          "internalType": "uint256",
          "name": "",
          "type": "uint256"
        }
      ],
      "payable": false,
      "stateMutability": "view",
      "type": "function"
    },
    {
      "constant": true,
      "inputs": [],
      "name": "getAllMarkets",
      "outputs": [
        {
          "internalType": "contract VToken[]",
          "name": "",
          "type": "address[]"
        }
      ],
      "payable": false,
      "stateMutability": "view",
      "type": "function"
    },
    {
      "constant": true,
      "inputs": [
        {
          "internalType": "address",
          "name": "account",
          "type": "address"
        }
      ],
      "name": "getAssetsIn",
      "outputs": [
        {
          "internalType": "contract VToken[]",
          "name": "",
          "type": "address[]"
        }
      ],
      "payable": false,
      "stateMutability": "view",
      "type": "function"
    },
    {
      "constant": true,
      "inputs": [],
      "name": "getBlockNumber",
      "outputs": [
        {
          "internalType": "uint256",
          "name": "",
          "type": "uint256"
        }
      ],
      "payable": false,
      "stateMutability": "view",
      "type": "function"
    },
    {
      "constant": true,
      "inputs": [
        {
          "internalType": "address",
          "name": "account",
          "type": "address"
        },
        {
          "internalType": "address",
          "name": "vTokenModify",
          "type": "address"
        },
        {
          "internalType": "uint256",
          "name": "redeemTokens",
          "type": "uint256"
        },
        {
          "internalType": "uint256",
          "name": "borrowAmount",
          "type": "uint256"
        }
      ],
      "name": "getHypotheticalAccountLiquidity",
      "outputs": [
        {
          "internalType": "uint256",
          "name": "",
          "type": "uint256"
        },
        {
          "internalType": "uint256",
          "name": "",
          "type": "uint256"
        },
        {
          "internalType": "uint256",
          "name": "",
          "type": "uint256"
        }
      ],
      "payable": false,
      "stateMutability": "view",
      "type": "function"
    },
    {
      "constant": true,
      "inputs": [],
      "name": "getXVSAddress",
      "outputs": [
        {
          "internalType": "address",
          "name": "",
          "type": "address"
        }
      ],
      "payable": false,
      "stateMutability": "view",
      "type": "function"
    },
    {
      "constant": true,
      "inputs": [],
      "name": "getXVSVTokenAddress",
      "outputs": [
        {
          "internalType": "address",
          "name": "",
          "type": "address"
        }
      ],
      "payable": false,
      "stateMutability": "view",
      "type": "function"
    },
    {
      "constant": true,
      "inputs": [],
      "name": "isComptroller",
      "outputs": [
        {
          "internalType": "bool",
          "name": "",
          "type": "bool"
        }
      ],
      "payable": false,
      "stateMutability": "view",
      "type": "function"
    },
    {
      "constant": false,
      "inputs": [
        {
          "internalType": "address",
          "name": "vTokenBorrowed",
          "type": "address"
        },
        {
          "internalType": "address",
          "name": "vTokenCollateral",
          "type": "address"
        },
        {
          "internalType": "address",
          "name": "liquidator",
          "type": "address"
        },
        {
          "internalType": "address",
          "name": "borrower",
          "type": "address"
        },
        {
          "internalType": "uint256",
          "name": "repayAmount",
          "type": "uint256"
        }
      ],
      "name": "liquidateBorrowAllowed",
      "outputs": [
        {
          "internalType": "uint256",
          "name": "",
          "type": "uint256"
        }
      ],
      "payable": false,
      "stateMutability": "nonpayable",
      "type": "function"
    },
    {
      "constant": false,
      "inputs": [
        {
          "internalType": "address",
          "name": "vTokenBorrowed",
          "type": "address"
        },
        {
          "internalType": "address",
          "name": "vTokenCollateral",
          "type": "address"
        },
        {
          "internalType": "address",
          "name": "liquidator",
          "type": "address"
        },
        {
          "internalType": "address",
          "name": "borrower",
          "type": "address"
        },
        {
          "internalType": "uint256",
          "name": "actualRepayAmount",
          "type": "uint256"
        },
        {
          "internalType": "uint256",
          "name": "seizeTokens",
          "type": "uint256"
        }
      ],
      "name": "liquidateBorrowVerify",
      "outputs": [],
      "payable": false,
      "stateMutability": "nonpayable",
      "type": "function"
    },
    {
      "constant": true,
      "inputs": [
        {
          "internalType": "address",
          "name": "vTokenBorrowed",
          "type": "address"
        },
        {
          "internalType": "address",
          "name": "vTokenCollateral",
          "type": "address"
        },
        {
          "internalType": "uint256",
          "name": "actualRepayAmount",
          "type": "uint256"
        }
      ],
      "name": "liquidateCalculateSeizeTokens",
      "outputs": [
        {
          "internalType": "uint256",
          "name": "",
          "type": "uint256"
        },
        {
          "internalType": "uint256",
          "name": "",
          "type": "uint256"
        }
      ],
      "payable": false,
      "stateMutability": "view",
      "type": "function"
    },
    {
      "constant": true,
      "inputs": [
        {
          "internalType": "address",
          "name": "vTokenCollateral",
          "type": "address"
        },
        {
          "internalType": "uint256",
          "name": "actualRepayAmount",
          "type": "uint256"
        }
      ],
      "name": "liquidateVAICalculateSeizeTokens",
      "outputs": [
        {
          "internalType": "uint256",
          "name": "",
          "type": "uint256"
        },
        {
          "internalType": "uint256",
          "name": "",
          "type": "uint256"
        }
      ],
      "payable": false,
      "stateMutability": "view",
      "type": "function"
    },
    {
      "constant": true,
      "inputs": [],
      "name": "liquidationIncentiveMantissa",
      "outputs": [
        {
          "internalType": "uint256",
          "name": "",
          "type": "uint256"
        }
      ],
      "payable": false,
      "stateMutability": "view",
      "type": "function"
    },
    {
      "constant": true,
      "inputs": [],
      "name": "liquidatorContract",
      "outputs": [
        {
          "internalType": "address",
          "name": "",
          "type": "address"
        }
      ],
      "payable": false,
      "stateMutability": "view",
      "type": "function"
    },
    {
      "constant": true,
      "inputs": [
        {
          "internalType": "address",
          "name": "",
          "type": "address"
        }
      ],
      "name": "markets",
      "outputs": [
        {
          "internalType": "bool",
          "name": "isListed",
          "type": "bool"
        },
        {
          "internalType": "uint256",
          "name": "collateralFactorMantissa",
          "type": "uint256"
        },
        {
          "internalType": "bool",
          "name": "isVenus",
          "type": "bool"
        }
      ],
      "payable": false,
      "stateMutability": "view",
      "type": "function"
    },
    {
      "constant": true,
      "inputs": [],
      "name": "maxAssets",
      "outputs": [
        {
          "internalType": "uint256",
          "name": "",
          "type": "uint256"
        }
      ],
      "payable": false,
      "stateMutability": "view",
      "type": "function"
    },
    {
      "constant": true,
      "inputs": [],
      "name": "minReleaseAmount",
      "outputs": [
        {
          "internalType": "uint256",
          "name": "",
          "type": "uint256"
        }
      ],
      "payable": false,
      "stateMutability": "view",
      "type": "function"
    },
    {
      "constant": false,
      "inputs": [
        {
          "internalType": "address",
          "name": "vToken",
          "type": "address"
        },
        {
          "internalType": "address",
          "name": "minter",
          "type": "address"
        },
        {
          "internalType": "uint256",
          "name": "mintAmount",
          "type": "uint256"
        }
      ],
      "name": "mintAllowed",
      "outputs": [
        {
          "internalType": "uint256",
          "name": "",
          "type": "uint256"
        }
      ],
      "payable": false,
      "stateMutability": "nonpayable",
      "type": "function"
    },
    {
      "constant": true,
      "inputs": [],
      "name": "mintVAIGuardianPaused",
      "outputs": [
        {
          "internalType": "bool",
          "name": "",
          "type": "bool"
        }
      ],
      "payable": false,
      "stateMutability": "view",
      "type": "function"
    },
    {
      "constant": false,
      "inputs": [
        {
          "internalType": "address",
          "name": "vToken",
          "type": "address"
        },
        {
          "internalType": "address",
          "name": "minter",
          "type": "address"
        },
        {
          "internalType": "uint256",
          "name": "actualMintAmount",
          "type": "uint256"
        },
        {
          "internalType": "uint256",
          "name": "mintTokens",
          "type": "uint256"
        }
      ],
      "name": "mintVerify",
      "outputs": [],
      "payable": false,
      "stateMutability": "nonpayable",
      "type": "function"
    },
    {
      "constant": true,
      "inputs": [
        {
          "internalType": "address",
          "name": "",
          "type": "address"
        }
      ],
      "name": "mintedVAIs",
      "outputs": [
        {
          "internalType": "uint256",
          "name": "",
          "type": "uint256"
        }
      ],
      "payable": false,
      "stateMutability": "view",
      "type": "function"
    },
    {
      "constant": true,
      "inputs": [],
      "name": "oracle",
      "outputs": [
        {
          "internalType": "contract PriceOracle",
          "name": "",
          "type": "address"
        }
      ],
      "payable": false,
      "stateMutability": "view",
      "type": "function"
    },
    {
      "constant": true,
      "inputs": [],
      "name": "pauseGuardian",
      "outputs": [
        {
          "internalType": "address",
          "name": "",
          "type": "address"
        }
      ],
      "payable": false,
      "stateMutability": "view",
      "type": "function"
    },
    {
      "constant": true,
      "inputs": [],
      "name": "pendingAdmin",
      "outputs": [
        {
          "internalType": "address",
          "name": "",
          "type": "address"
        }
      ],
      "payable": false,
      "stateMutability": "view",
      "type": "function"
    },
    {
      "constant": true,
      "inputs": [],
      "name": "pendingComptrollerImplementation",
      "outputs": [
        {
          "internalType": "address",
          "name": "",
          "type": "address"
        }
      ],
      "payable": false,
      "stateMutability": "view",
      "type": "function"
    },
    {
      "constant": true,
      "inputs": [],
      "name": "protocolPaused",
      "outputs": [
        {
          "internalType": "bool",
          "name": "",
          "type": "bool"
        }
      ],
      "payable": false,
      "stateMutability": "view",
      "type": "function"
    },
    {
      "constant": false,
      "inputs": [
        {
          "internalType": "address",
          "name": "vToken",
          "type": "address"
        },
        {
          "internalType": "address",
          "name": "redeemer",
          "type": "address"
        },
        {
          "internalType": "uint256",
          "name": "redeemTokens",
          "type": "uint256"
        }
      ],
      "name": "redeemAllowed",
      "outputs": [
        {
          "internalType": "uint256",
          "name": "",
          "type": "uint256"
        }
      ],
      "payable": false,
      "stateMutability": "nonpayable",
      "type": "function"
    },
    {
      "constant": false,
      "inputs": [
        {
          "internalType": "address",
          "name": "vToken",
          "type": "address"
        },
        {
          "internalType": "address",
          "name": "redeemer",
          "type": "address"
        },
        {
          "internalType": "uint256",
          "name": "redeemAmount",
          "type": "uint256"
        },
        {
          "internalType": "uint256",
          "name": "redeemTokens",
          "type": "uint256"
        }
      ],
      "name": "redeemVerify",
      "outputs": [],
      "payable": false,
      "stateMutability": "nonpayable",
      "type": "function"
    },
    {
      "constant": true,
      "inputs": [],
      "name": "releaseStartBlock",
      "outputs": [
        {
          "internalType": "uint256",
          "name": "",
          "type": "uint256"
        }
      ],
      "payable": false,
      "stateMutability": "view",
      "type": "function"
    },
    {
      "constant": false,
      "inputs": [],
      "name": "releaseToVault",
      "outputs": [],
      "payable": false,
      "stateMutability": "nonpayable",
      "type": "function"
    },
    {
      "constant": false,
      "inputs": [
        {
          "internalType": "address",
          "name": "vToken",
          "type": "address"
        },
        {
          "internalType": "address",
          "name": "payer",
          "type": "address"
        },
        {
          "internalType": "address",
          "name": "borrower",
          "type": "address"
        },
        {
          "internalType": "uint256",
          "name": "repayAmount",
          "type": "uint256"
        }
      ],
      "name": "repayBorrowAllowed",
      "outputs": [
        {
          "internalType": "uint256",
          "name": "",
          "type": "uint256"
        }
      ],
      "payable": false,
      "stateMutability": "nonpayable",
      "type": "function"
    },
    {
      "constant": false,
      "inputs": [
        {
          "internalType": "address",
          "name": "vToken",
          "type": "address"
        },
        {
          "internalType": "address",
          "name": "payer",
          "type": "address"
        },
        {
          "internalType": "address",
          "name": "borrower",
          "type": "address"
        },
        {
          "internalType": "uint256",
          "name": "actualRepayAmount",
          "type": "uint256"
        },
        {
          "internalType": "uint256",
          "name": "borrowerIndex",
          "type": "uint256"
        }
      ],
      "name": "repayBorrowVerify",
      "outputs": [],
      "payable": false,
      "stateMutability": "nonpayable",
      "type": "function"
    },
    {
      "constant": true,
      "inputs": [],
      "name": "repayVAIGuardianPaused",
      "outputs": [
        {
          "internalType": "bool",
          "name": "",
          "type": "bool"
        }
      ],
      "payable": false,
      "stateMutability": "view",
      "type": "function"
    },
    {
      "constant": false,
      "inputs": [
        {
          "internalType": "address",
          "name": "vTokenCollateral",
          "type": "address"
        },
        {
          "internalType": "address",
          "name": "vTokenBorrowed",
          "type": "address"
        },
        {
          "internalType": "address",
          "name": "liquidator",
          "type": "address"
        },
        {
          "internalType": "address",
          "name": "borrower",
          "type": "address"
        },
        {
          "internalType": "uint256",
          "name": "seizeTokens",
          "type": "uint256"
        }
      ],
      "name": "seizeAllowed",
      "outputs": [
        {
          "internalType": "uint256",
          "name": "",
          "type": "uint256"
        }
      ],
      "payable": false,
      "stateMutability": "nonpayable",
      "type": "function"
    },
    {
      "constant": false,
      "inputs": [
        {
          "internalType": "address",
          "name": "vTokenCollateral",
          "type": "address"
        },
        {
          "internalType": "address",
          "name": "vTokenBorrowed",
          "type": "address"
        },
        {
          "internalType": "address",
          "name": "liquidator",
          "type": "address"
        },
        {
          "internalType": "address",
          "name": "borrower",
          "type": "address"
        },
        {
          "internalType": "uint256",
          "name": "seizeTokens",
          "type": "uint256"
        }
      ],
      "name": "seizeVerify",
      "outputs": [],
      "payable": false,
      "stateMutability": "nonpayable",
      "type": "function"
    },
    {
      "constant": false,
      "inputs": [
        {
          "internalType": "address",
          "name": "owner",
          "type": "address"
        },
        {
          "internalType": "uint256",
          "name": "amount",
          "type": "uint256"
        }
      ],
      "name": "setMintedVAIOf",
      "outputs": [
        {
          "internalType": "uint256",
          "name": "",
          "type": "uint256"
        }
      ],
      "payable": false,
      "stateMutability": "nonpayable",
      "type": "function"
    },
    {
      "constant": true,
      "inputs": [
        {
          "internalType": "address",
          "name": "",
          "type": "address"
        }
      ],
      "name": "supplyCaps",
      "outputs": [
        {
          "internalType": "uint256",
          "name": "",
          "type": "uint256"
        }
      ],
      "payable": false,
      "stateMutability": "view",
      "type": "function"
    },
    {
      "constant": false,
      "inputs": [
        {
          "internalType": "address",
          "name": "vToken",
          "type": "address"
        },
        {
          "internalType": "address",
          "name": "src",
          "type": "address"
        },
        {
          "internalType": "address",
          "name": "dst",
          "type": "address"
        },
        {
          "internalType": "uint256",
          "name": "transferTokens",
          "type": "uint256"
        }
      ],
      "name": "transferAllowed",
      "outputs": [
        {
          "internalType": "uint256",
          "name": "",
          "type": "uint256"
        }
      ],
      "payable": false,
      "stateMutability": "nonpayable",
      "type": "function"
    },
    {
      "constant": false,
      "inputs": [
        {
          "internalType": "address",
          "name": "vToken",
          "type": "address"
        },
        {
          "internalType": "address",
          "name": "src",
          "type": "address"
        },
        {
          "internalType": "address",
          "name": "dst",
          "type": "address"
        },
        {
          "internalType": "uint256",
          "name": "transferTokens",
          "type": "uint256"
        }
      ],
      "name": "transferVerify",
      "outputs": [],
      "payable": false,
      "stateMutability": "nonpayable",
      "type": "function"
    },
    {
      "constant": true,
      "inputs": [],
      "name": "treasuryAddress",
      "outputs": [
        {
          "internalType": "address",
          "name": "",
          "type": "address"
        }
      ],
      "payable": false,
      "stateMutability": "view",
      "type": "function"
    },
    {
      "constant": true,
      "inputs": [],
      "name": "treasuryGuardian",
      "outputs": [
        {
          "internalType": "address",
          "name": "",
          "type": "address"
        }
      ],
      "payable": false,
      "stateMutability": "view",
      "type": "function"
    },
    {
      "constant": true,
      "inputs": [],
      "name": "treasuryPercent",
      "outputs": [
        {
          "internalType": "uint256",
          "name": "",
          "type": "uint256"
        }
      ],
      "payable": false,
      "stateMutability": "view",
      "type": "function"
    },
    {
      "constant": true,
      "inputs": [],
      "name": "vaiController",
      "outputs": [
        {
          "internalType": "contract VAIControllerInterface",
          "name": "",
          "type": "address"
        }
      ],
      "payable": false,
      "stateMutability": "view",
      "type": "function"
    },
    {
      "constant": true,
      "inputs": [],
      "name": "vaiMintRate",
      "outputs": [
        {
          "internalType": "uint256",
          "name": "",
          "type": "uint256"
        }
      ],
      "payable": false,
      "stateMutability": "view",
      "type": "function"
    },
    {
      "constant": true,
      "inputs": [],
      "name": "vaiVaultAddress",
      "outputs": [
        {
          "internalType": "address",
          "name": "",
          "type": "address"
        }
      ],
      "payable": false,
      "stateMutability": "view",
      "type": "function"
    },
    {
      "constant": true,
      "inputs": [
        {
          "internalType": "address",
          "name": "",
          "type": "address"
        }
      ],
      "name": "venusAccrued",
      "outputs": [
        {
          "internalType": "uint256",
          "name": "",
          "type": "uint256"
        }
      ],
      "payable": false,
      "stateMutability": "view",
      "type": "function"
    },
    {
      "constant": true,
      "inputs": [
        {
          "internalType": "address",
          "name": "",
          "type": "address"
        }
      ],
      "name": "venusBorrowState",
      "outputs": [
        {
          "internalType": "uint224",
          "name": "index",
          "type": "uint224"
        },
        {
          "internalType": "uint32",
          "name": "block",
          "type": "uint32"
        }
      ],
      "payable": false,
      "stateMutability": "view",
      "type": "function"
    },
    {
      "constant": true,
      "inputs": [
        {
          "internalType": "address",
          "name": "",
          "type": "address"
        },
        {
          "internalType": "address",
          "name": "",
          "type": "address"
        }
      ],
      "name": "venusBorrowerIndex",
      "outputs": [
        {
          "internalType": "uint256",
          "name": "",
          "type": "uint256"
        }
      ],
      "payable": false,
      "stateMutability": "view",
      "type": "function"
    },
    {
      "constant": true,
      "inputs": [],
      "name": "venusInitialIndex",
      "outputs": [
        {
          "internalType": "uint224",
          "name": "",
          "type": "uint224"
        }
      ],
      "payable": false,
      "stateMutability": "view",
      "type": "function"
    },
    {
      "constant": true,
      "inputs": [],
      "name": "venusRate",
      "outputs": [
        {
          "internalType": "uint256",
          "name": "",
          "type": "uint256"
        }
      ],
      "payable": false,
      "stateMutability": "view",
      "type": "function"
    },
    {
      "constant": true,
      "inputs": [
        {
          "internalType": "address",
          "name": "",
          "type": "address"
        }
      ],
      "name": "venusSpeeds",
      "outputs": [
        {
          "internalType": "uint256",
          "name": "",
          "type": "uint256"
        }
      ],
      "payable": false,
      "stateMutability": "view",
      "type": "function"
    },
    {
      "constant": true,
      "inputs": [
        {
          "internalType": "address",
          "name": "",
          "type": "address"
        },
        {
          "internalType": "address",
          "name": "",
          "type": "address"
        }
      ],
      "name": "venusSupplierIndex",
      "outputs": [
        {
          "internalType": "uint256",
          "name": "",
          "type": "uint256"
        }
      ],
      "payable": false,
      "stateMutability": "view",
      "type": "function"
    },
    {
      "constant": true,
      "inputs": [
        {
          "internalType": "address",
          "name": "",
          "type": "address"
        }
      ],
      "name": "venusSupplyState",
      "outputs": [
        {
          "internalType": "uint224",
          "name": "index",
          "type": "uint224"
        },
        {
          "internalType": "uint32",
          "name": "block",
          "type": "uint32"
        }
      ],
      "payable": false,
      "stateMutability": "view",
      "type": "function"
    },
    {
      "constant": true,
      "inputs": [],
      "name": "venusVAIVaultRate",
      "outputs": [
        {
          "internalType": "uint256",
          "name": "",
          "type": "uint256"
        }
      ],
      "payable": false,
      "stateMutability": "view",
      "type": "function"
    }
  ],
  "transactionHash": "0xb86547d1d4bee442918750daa37be7a436829d570ec1582df90813e020c4ed2e",
  "args": [],
  "numDeployments": 1,
  "solcInputHash": "424a2eb7ba7544c90693bf2d5e9578fa",
  "bytecode": "0x608060405234801561001057600080fd5b50600080546001600160a01b03191633179055615f3e80620000336000396000f3fe608060405234801561001057600080fd5b50600436106105195760003560e01c806386df31ee116102a4578063bf32442d11610172578063ddfd287e116100d9578063ede4edd011610092578063ede4edd014611647578063ededbae61461166d578063f519fc3014611675578063f851a4401461169b578063fa6331d8146116a3578063fd51a3ad146116ab57610519565b8063ddfd287e14611580578063e37d4b7914611588578063e4028eee146115ae578063e85a2960146115da578063e875544614611609578063eabe7d911461161157610519565b8063d09c54ba1161012b578063d09c54ba146113ac578063d24febad146114d8578063d3270f991461150e578063da3d454c14611516578063dce154491461154c578063dcfbc0c71461157857610519565b8063bf32442d1461128e578063c299823814611296578063c488847b14611304578063c5b4db551461133a578063c5f956af1461135e578063d02f73511461136657610519565b8063a7604b4111610216578063b2eafc39116101cf578063b2eafc39146111c6578063b8324c7c146111ce578063bb82aa5e1461121c578063bb85745014611224578063bdcdc2581461124a578063bec04f721461128657610519565b8063a7604b411461108b578063a76b3fda146110b7578063a78dc775146110dd578063abfceffc14611122578063adcd5fb914611198578063b0772d0b146111be57610519565b8063929fe9a111610268578063929fe9a114610fd557806394b2294b146110035780639bb27d621461100b5780639bf34cbb146110135780639cfdd9e614611039578063a06a87f11461105f57610519565b806386df31ee14610ea6578063879c2e1d14610f575780638a7dc16514610f5f5780638e8f294b14610f855780639254f5e514610fcd57610519565b80634a584432116103ec5780635f5af1aa1161035357806370bf66f01161030c57806370bf66f014610d2c578063719f701b14610e605780637655138314610e685780637858524d14610e705780637d172bd514610e965780637dc0d1d014610e9e57610519565b80635f5af1aa14610b635780635fc7e71e14610b89578063607ef6c114610bcf5780636662c7c914610c8d5780636a56947e14610caa5780636d35bf9114610ce657610519565b806351a485e4116103a557806351a485e4146109ca57806351dff98914610a8857806352d84d1e14610ac457806355ee1fe114610ae15780635c77860514610b075780635ec88c7914610b3d57610519565b80634a584432146108bd5780634ada90af146108e35780634e0853db146108eb5780634e79238f1461091d5780634ef4c3e1146109775780634fd42e17146109ad57610519565b806326782247116104905780634088c73e116104495780634088c73e146107ef57806341a18d2c146107f757806341c728b914610825578063425fad581461086157806342cbb15c1461086957806347ef3b3b1461087157610519565b806326782247146106a85780632a6a6065146106b05780632b5d790c146106cf5780632bc7e29e1461078f5780632ec04124146107b5578063317b0b77146107d257610519565b80631abcaa77116104e25780631abcaa77146105b05780631d504dc6146105d65780631ededc91146105fe57806321af45691461064057806324008a621461066457806324a3d622146106a057610519565b80627e3dd21461051e57806302c3bcbb1461053a57806304ef9d581461057257806308e0225c1461057a5780630db4b4e5146105a8575b600080fd5b6105266116d7565b604080519115158252519081900360200190f35b6105606004803603602081101561055057600080fd5b50356001600160a01b03166116dc565b60408051918252519081900360200190f35b6105606116ee565b6105606004803603604081101561059057600080fd5b506001600160a01b03813581169160200135166116f4565b610560611711565b610560600480360360208110156105c657600080fd5b50356001600160a01b0316611717565b6105fc600480360360208110156105ec57600080fd5b50356001600160a01b0316611729565b005b6105fc600480360360a081101561061457600080fd5b506001600160a01b03813581169160208101358216916040820135169060608101359060800135611897565b61064861189e565b604080516001600160a01b039092168252519081900360200190f35b6105606004803603608081101561067a57600080fd5b506001600160a01b038135811691602081013582169160408201351690606001356118ad565b610648611982565b610648611991565b610526600480360360208110156106c657600080fd5b503515156119a0565b6105fc600480360360608110156106e557600080fd5b810190602081018135600160201b8111156106ff57600080fd5b82018360208201111561071157600080fd5b803590602001918460208302840111600160201b8311171561073257600080fd5b919390929091602081019035600160201b81111561074f57600080fd5b82018360208201111561076157600080fd5b803590602001918460208302840111600160201b8311171561078257600080fd5b9193509150351515611a36565b610560600480360360208110156107a557600080fd5b50356001600160a01b0316611ad2565b610560600480360360208110156107cb57600080fd5b5035611ae4565b610560600480360360208110156107e857600080fd5b5035611b3b565b610526611b8f565b6105606004803603604081101561080d57600080fd5b506001600160a01b0381358116916020013516611b98565b6105fc6004803603608081101561083b57600080fd5b506001600160a01b03813581169160208101359091169060408101359060600135611bb5565b610526611bbb565b610560611bca565b6105fc600480360360c081101561088757600080fd5b506001600160a01b0381358116916020810135821691604082013581169160608101359091169060808101359060a00135611bcf565b610560600480360360208110156108d357600080fd5b50356001600160a01b0316611bd7565b610560611be9565b6105fc6004803603606081101561090157600080fd5b506001600160a01b038135169060208101359060400135611bef565b6109596004803603608081101561093357600080fd5b506001600160a01b03813581169160208101359091169060408101359060600135611c6d565b60408051938452602084019290925282820152519081900360600190f35b6105606004803603606081101561098d57600080fd5b506001600160a01b03813581169160208101359091169060400135611ca3565b610560600480360360208110156109c357600080fd5b5035611ea7565b6105fc600480360360408110156109e057600080fd5b810190602081018135600160201b8111156109fa57600080fd5b820183602082011115610a0c57600080fd5b803590602001918460208302840111600160201b83111715610a2d57600080fd5b919390929091602081019035600160201b811115610a4a57600080fd5b820183602082011115610a5c57600080fd5b803590602001918460208302840111600160201b83111715610a7d57600080fd5b509092509050611f71565b6105fc60048036036080811015610a9e57600080fd5b506001600160a01b038135811691602081013590911690604081013590606001356120c4565b61064860048036036020811015610ada57600080fd5b5035612115565b61056060048036036020811015610af757600080fd5b50356001600160a01b031661213c565b6105fc60048036036060811015610b1d57600080fd5b506001600160a01b038135811691602081013590911690604001356121b5565b61095960048036036020811015610b5357600080fd5b50356001600160a01b03166121ba565b61056060048036036020811015610b7957600080fd5b50356001600160a01b03166121ef565b610560600480360360a0811015610b9f57600080fd5b506001600160a01b0381358116916020810135821691604082013581169160608101359091169060800135612268565b6105fc60048036036040811015610be557600080fd5b810190602081018135600160201b811115610bff57600080fd5b820183602082011115610c1157600080fd5b803590602001918460208302840111600160201b83111715610c3257600080fd5b919390929091602081019035600160201b811115610c4f57600080fd5b820183602082011115610c6157600080fd5b803590602001918460208302840111600160201b83111715610c8257600080fd5b509092509050612459565b6105fc60048036036020811015610ca357600080fd5b50356125a3565b6105fc60048036036080811015610cc057600080fd5b506001600160a01b038135811691602081013582169160408201351690606001356125f2565b6105fc600480360360a0811015610cfc57600080fd5b506001600160a01b0381358116916020810135821691604082013581169160608101359091169060800135611897565b6105fc600480360360a0811015610d4257600080fd5b810190602081018135600160201b811115610d5c57600080fd5b820183602082011115610d6e57600080fd5b803590602001918460208302840111600160201b83111715610d8f57600080fd5b9190808060200260200160405190810160405280939291908181526020018383602002808284376000920191909152509295949360208101935035915050600160201b811115610dde57600080fd5b820183602082011115610df057600080fd5b803590602001918460208302840111600160201b83111715610e1157600080fd5b91908080602002602001604051908101604052809392919081815260200183836020028082843760009201919091525092955050505080351515915060208101351515906040013515156125f7565b6105606127e4565b6105266127ea565b6105fc60048036036020811015610e8657600080fd5b50356001600160a01b03166127f8565b6106486128b5565b6106486128c4565b6105fc60048036036040811015610ebc57600080fd5b6001600160a01b038235169190810190604081016020820135600160201b811115610ee657600080fd5b820183602082011115610ef857600080fd5b803590602001918460208302840111600160201b83111715610f1957600080fd5b9190808060200260200160405190810160405280939291908181526020018383602002808284376000920191909152509295506128d3945050505050565b610560612930565b61056060048036036020811015610f7557600080fd5b50356001600160a01b0316612936565b610fab60048036036020811015610f9b57600080fd5b50356001600160a01b0316612948565b6040805193151584526020840192909252151582820152519081900360600190f35b61064861296e565b61052660048036036040811015610feb57600080fd5b506001600160a01b038135811691602001351661297d565b6105606129b1565b6106486129b7565b6105606004803603602081101561102957600080fd5b50356001600160a01b03166129c6565b6105606004803603602081101561104f57600080fd5b50356001600160a01b0316612a3e565b6105fc6004803603604081101561107557600080fd5b506001600160a01b038135169060200135612ab7565b6105fc600480360360408110156110a157600080fd5b506001600160a01b038135169060200135612adf565b610560600480360360208110156110cd57600080fd5b50356001600160a01b0316612ba1565b611109600480360360408110156110f357600080fd5b506001600160a01b038135169060200135612d26565b6040805192835260208301919091528051918290030190f35b6111486004803603602081101561113857600080fd5b50356001600160a01b0316612dc5565b60408051602080825283518183015283519192839290830191858101910280838360005b8381101561118457818101518382015260200161116c565b505050509050019250505060405180910390f35b6105fc600480360360208110156111ae57600080fd5b50356001600160a01b0316612e3b565b611148612e9f565b610648612f01565b6111f4600480360360208110156111e457600080fd5b50356001600160a01b0316612f10565b604080516001600160e01b03909316835263ffffffff90911660208301528051918290030190f35b610648612f3a565b6105fc6004803603602081101561123a57600080fd5b50356001600160a01b0316612f49565b6105606004803603608081101561126057600080fd5b506001600160a01b03813581169160208101358216916040820135169060600135612fb4565b610560613002565b610648613008565b611148600480360360208110156112ac57600080fd5b810190602081018135600160201b8111156112c657600080fd5b8201836020820111156112d857600080fd5b803590602001918460208302840111600160201b831117156112f957600080fd5b509092509050613020565b6111096004803603606081101561131a57600080fd5b506001600160a01b038135811691602081013590911690604001356130b6565b61134261315e565b604080516001600160e01b039092168252519081900360200190f35b610648613171565b610560600480360360a081101561137c57600080fd5b506001600160a01b0381358116916020810135821691604082013581169160608101359091169060800135613180565b6105fc600480360360808110156113c257600080fd5b810190602081018135600160201b8111156113dc57600080fd5b8201836020820111156113ee57600080fd5b803590602001918460208302840111600160201b8311171561140f57600080fd5b9190808060200260200160405190810160405280939291908181526020018383602002808284376000920191909152509295949360208101935035915050600160201b81111561145e57600080fd5b82018360208201111561147057600080fd5b803590602001918460208302840111600160201b8311171561149157600080fd5b9190808060200260200160405190810160405280939291908181526020018383602002808284376000920191909152509295505050508035151591506020013515156132ff565b610560600480360360608110156114ee57600080fd5b506001600160a01b0381358116916020810135909116906040013561330d565b610648613498565b6105606004803603606081101561152c57600080fd5b506001600160a01b038135811691602081013590911690604001356134a7565b6106486004803603604081101561156257600080fd5b506001600160a01b0381351690602001356137f1565b610648613826565b6105fc613835565b6111f46004803603602081101561159e57600080fd5b50356001600160a01b0316613a65565b610560600480360360408110156115c457600080fd5b506001600160a01b038135169060200135613a8f565b610526600480360360408110156115f057600080fd5b5080356001600160a01b0316906020013560ff16613c31565b610560613c71565b6105606004803603606081101561162757600080fd5b506001600160a01b03813581169160208101359091169060400135613c77565b6105606004803603602081101561165d57600080fd5b50356001600160a01b0316613cc6565b610648613f7d565b6105606004803603602081101561168b57600080fd5b50356001600160a01b0316613f95565b61064861400d565b61056061401c565b610560600480360360408110156116c157600080fd5b506001600160a01b038135169060200135614022565b600181565b60276020526000908152604090205481565b60225481565b601360209081526000928352604080842090915290825290205481565b601d5481565b600f6020526000908152604090205481565b806001600160a01b031663f851a4406040518163ffffffff1660e01b815260040160206040518083038186803b15801561176257600080fd5b505afa158015611776573d6000803e3d6000fd5b505050506040513d602081101561178c57600080fd5b50516001600160a01b031633146117ea576040805162461bcd60e51b815260206004820152601960248201527f6f6e6c7920756e6974726f6c6c65722061646d696e2063616e00000000000000604482015290519081900360640190fd5b806001600160a01b031663c1e803346040518163ffffffff1660e01b8152600401602060405180830381600087803b15801561182557600080fd5b505af1158015611839573d6000803e3d6000fd5b505050506040513d602081101561184f57600080fd5b505115611894576040805162461bcd60e51b815260206004820152600e60248201526d1b9bdd08185d5d1a1bdc9a5e995960921b604482015290519081900360640190fd5b50565b5050505050565b601e546001600160a01b031681565b60006118b76140cf565b6118c2856003614122565b6001600160a01b03851660009081526009602052604090206118e390614171565b6118eb615d6e565b6040518060200160405280876001600160a01b031663aa5af0fd6040518163ffffffff1660e01b815260040160206040518083038186803b15801561192f57600080fd5b505afa158015611943573d6000803e3d6000fd5b505050506040513d602081101561195957600080fd5b50519052905061196986826141bb565b61197486858361444f565b60009150505b949350505050565b600a546001600160a01b031681565b6001546001600160a01b031681565b60006119e06040518060400160405280601881526020017f5f73657450726f746f636f6c50617573656428626f6f6c290000000000000000815250614632565b6018805483151562010000810262ff0000199092169190911790915560408051918252517fd7500633dd3ddd74daa7af62f8c8404c7fe4a81da179998db851696bed004b389181900360200190a150805b919050565b611a576040518060600160405280602b8152602001615e78602b9139614632565b838260005b82811015611ac85760005b82811015611abf57611ab7898984818110611a7e57fe5b905060200201356001600160a01b0316888884818110611a9a57fe5b90506020020135600881118015611ab057600080fd5b5087614753565b600101611a67565b50600101611a5c565b5050505050505050565b60166020526000908152604090205481565b6000611aee61480b565b6017805490839055604080518281526020810185905281517f73747d68b346dce1e932bcd238282e7ac84c01569e1f8d0469c222fdc6e9d5a4929181900390910190a160005b9392505050565b6000611b4561480b565b6005805490839055604080518281526020810185905281517f3b9670cf975d26958e754b57098eaa2ac914d8d2a31b83257997b9f346110fd9929181900390910190a16000611b34565b60185460ff1681565b601260209081526000928352604080842090915290825290205481565b50505050565b60185462010000900460ff1681565b435b90565b505050505050565b601f6020526000908152604090205481565b60065481565b611bf761480b565b611c008361485b565b601b80546001600160a01b0385166001600160a01b03199091168117909155601c839055601d8290556040805191825260208201849052818101839052517f7059037d74ee16b0fb06a4a30f3348dd2635f301f92e373c92899a25a522ef6e9181900360600190a1505050565b600080600080600080611c828a8a8a8a6148ae565b925092509250826012811115611c9457fe5b9a919950975095505050505050565b6000611cad6140cf565b611cb8846000614122565b6001600160a01b0384166000908152600960205260409020611cd990614171565b6001600160a01b03841660009081526027602052604090205480611d3d576040805162461bcd60e51b815260206004820152601660248201527506d61726b657420737570706c792063617020697320360541b604482015290519081900360640190fd5b6000856001600160a01b03166318160ddd6040518163ffffffff1660e01b815260040160206040518083038186803b158015611d7857600080fd5b505afa158015611d8c573d6000803e3d6000fd5b505050506040513d6020811015611da257600080fd5b50519050611dae615d6e565b6040518060200160405280886001600160a01b031663182df0f56040518163ffffffff1660e01b815260040160206040518083038186803b158015611df257600080fd5b505afa158015611e06573d6000803e3d6000fd5b505050506040513d6020811015611e1c57600080fd5b5051905290506000611e2f82848861496d565b905083811115611e86576040805162461bcd60e51b815260206004820152601960248201527f6d61726b657420737570706c7920636170207265616368656400000000000000604482015290519081900360640190fd5b611e8f88614995565b611e998888614c1f565b506000979650505050505050565b6000611eca604051806060016040528060218152602001615ddb60219139614632565b670de0b6b3a7640000821015611f27576040805162461bcd60e51b815260206004820152601b60248201527f696e63656e74697665206d757374206265206f76657220316531380000000000604482015290519081900360640190fd5b6006805490839055604080518281526020810185905281517faeba5a6c40a8ac138134bff1aaa65debf25971188a58804bad717f82f0ec1316929181900390910190a16000611b34565b611f92604051806060016040528060298152602001615dfc60299139614632565b82818115801590611fa257508082145b611fe3576040805162461bcd60e51b815260206004820152600d60248201526c1a5b9d985b1a59081a5b9c1d5d609a1b604482015290519081900360640190fd5b60005b828110156120bb57848482818110611ffa57fe5b905060200201356027600089898581811061201157fe5b905060200201356001600160a01b03166001600160a01b03166001600160a01b031681526020019081526020016000208190555086868281811061205157fe5b905060200201356001600160a01b03166001600160a01b03167f9e0ad9cee10bdf36b7fbd38910c0bdff0f275ace679b45b922381c2723d676f886868481811061209757fe5b905060200201356040518082815260200191505060405180910390a2600101611fe6565b50505050505050565b801515806120d0575081155b611bb5576040805162461bcd60e51b815260206004820152601160248201527072656465656d546f6b656e73207a65726f60781b604482015290519081900360640190fd5b600d818154811061212257fe5b6000918252602090912001546001600160a01b0316905081565b600061214661480b565b61214f8261485b565b600480546001600160a01b038481166001600160a01b0319831681179093556040805191909216808252602082019390935281517fd52b2b9b7e9ee655fcb95d2e5b9e0c9f69e7ef2b8e9d2d0ea78402d576d22e22929181900390910190a16000611b34565b505050565b6000806000806000806121d18760008060006148ae565b9250925092508260128111156121e357fe5b97919650945092505050565b60006121f961480b565b6122028261485b565b600a80546001600160a01b038481166001600160a01b0319831681179093556040805191909216808252602082019390935281517f0613b6ee6a04f0d09f390e4d9318894b9f6ac7fd83897cd8d18896ba579c401e929181900390910190a16000611b34565b60006122726140cf565b61227d866005614122565b6025546001600160a01b0316158015906122a557506025546001600160a01b03858116911614155b156122b45760015b9050612450565b6001600160a01b03851660009081526009602052604090206122d590614171565b6015546001600160a01b0387811691161461230b576001600160a01b038616600090815260096020526040902061230b90614171565b60008061231c8560008060006148ae565b9193509091506000905082601281111561233257fe5b1461234c5781601281111561234357fe5b92505050612450565b80612358576003612343565b6015546000906001600160a01b038a81169116146123f957886001600160a01b03166395dd9193876040518263ffffffff1660e01b815260040180826001600160a01b03166001600160a01b0316815260200191505060206040518083038186803b1580156123c657600080fd5b505afa1580156123da573d6000803e3d6000fd5b505050506040513d60208110156123f057600080fd5b50519050612414565b506001600160a01b0385166000908152601660205260409020545b6000612430604051806020016040528060055481525083614e4a565b905080861115612447576011945050505050612450565b60009450505050505b95945050505050565b61247a604051806060016040528060298152602001615e2560299139614632565b8281811580159061248a57508082145b6124cb576040805162461bcd60e51b815260206004820152600d60248201526c1a5b9d985b1a59081a5b9c1d5d609a1b604482015290519081900360640190fd5b60005b828110156120bb578484828181106124e257fe5b90506020020135601f60008989858181106124f957fe5b905060200201356001600160a01b03166001600160a01b03166001600160a01b031681526020019081526020016000208190555086868281811061253957fe5b905060200201356001600160a01b03166001600160a01b03167f6f1951b2aad10f3fc81b86d91105b413a5b3f847a34bbc5ce1904201b14438f686868481811061257f57fe5b905060200201356040518082815260200191505060405180910390a26001016124ce565b6125ab61480b565b601a805490829055604080518281526020810184905281517fe81d4ac15e5afa1e708e66664eddc697177423d950d133bda8262d8885e6da3b929181900390910190a15050565b611bb5565b6000805b855181101561275c57600086828151811061261257fe5b6020026020010151905061264960096000836001600160a01b03166001600160a01b03168152602001908152602001600020614171565b851561270e57612657615d6e565b6040518060200160405280836001600160a01b031663aa5af0fd6040518163ffffffff1660e01b815260040160206040518083038186803b15801561269b57600080fd5b505afa1580156126af573d6000803e3d6000fd5b505050506040513d60208110156126c557600080fd5b5051905290506126d582826141bb565b600093505b885184101561270c57612701828a86815181106126f357fe5b60200260200101518361444f565b6001909301926126da565b505b84156127535761271d81614995565b600092505b8751831015612753576127488189858151811061273b57fe5b6020026020010151614c1f565b600190920191612722565b506001016125fb565b50600090505b8551811015611bcf57600086828151811061277957fe5b6020026020010151905060006127938260008060006148ae565b6001600160a01b0385166000908152601460205260409020549093506127be92508491508387614e69565b6001600160a01b0390921660009081526014602052604090209190915550600101612762565b601c5481565b601854610100900460ff1681565b60408051600180825281830190925260609160208083019080388339019050509050818160008151811061282857fe5b60200260200101906001600160a01b031690816001600160a01b0316815250506128b181600d8054806020026020016040519081016040528092919081815260200182805480156128a257602002820191906000526020600020905b81546001600160a01b03168152600190910190602001808311612884575b505050505060018060016125f7565b5050565b601b546001600160a01b031681565b6004546001600160a01b031681565b60408051600180825281830190925260609160208083019080388339019050509050828160008151811061290357fe5b60200260200101906001600160a01b031690816001600160a01b0316815250506121b581836001806132ff565b600e5481565b60146020526000908152604090205481565b60096020526000908152604090208054600182015460039092015460ff91821692911683565b6015546001600160a01b031681565b6001600160a01b038082166000908152600960209081526040808320938616835260029093019052205460ff165b92915050565b60075481565b6025546001600160a01b031681565b60006129d061480b565b6129d98261485b565b602680546001600160a01b038481166001600160a01b0319831617928390556040805192821680845293909116602083015280517f0f7eb572d1b3053a0a3a33c04151364cf88d163182a5e4e1088cb8e52321e08a9281900390910190a16000611b34565b6000612a4861480b565b612a518261485b565b601580546001600160a01b038481166001600160a01b0319831681179093556040805191909216808252602082019390935281517fe1ddcb2dab8e5b03cfc8c67a0d5861d91d16f7bd2612fd381faf4541d212c9b2929181900390910190a16000611b34565b600254612acc906001600160a01b0316615228565b612ad58261485b565b6128b1828261528a565b600254612af4906001600160a01b0316615228565b6000612b038383600080614e69565b90508015612b58576040805162461bcd60e51b815260206004820152601a60248201527f696e73756666696369656e742078767320666f72206772616e74000000000000604482015290519081900360640190fd5b604080516001600160a01b03851681526020810184905281517fd7fe674cac9eee3998fe3cbd7a6f93c3bc70509d97ec1550a59364be6438147e929181900390910190a1505050565b6000612be16040518060400160405280601781526020017f5f737570706f72744d61726b6574286164647265737329000000000000000000815250614632565b6001600160a01b03821660009081526009602052604090205460ff1615612c1557612c0e600a60116155c8565b9050611a31565b816001600160a01b0316633d9ea3a16040518163ffffffff1660e01b815260040160206040518083038186803b158015612c4e57600080fd5b505afa158015612c62573d6000803e3d6000fd5b505050506040513d6020811015612c7857600080fd5b5050604080516060810182526001808252600060208381018281528486018381526001600160a01b03891684526009909252949091209251835490151560ff19918216178455935191830191909155516003909101805491151591909216179055612ce28261562e565b604080516001600160a01b038416815290517fcf583bb0c569eb967f806b11601c4cb93c10310485c67add5f8362c2f212321f9181900360200190a1600092915050565b602654604080516304f65f8b60e21b81523060048201526001600160a01b038581166024830152604482018590528251600094859485948594909216926313d97e2c926064808201939291829003018186803b158015612d8557600080fd5b505afa158015612d99573d6000803e3d6000fd5b505050506040513d6040811015612daf57600080fd5b5080516020909101519097909650945050505050565b6001600160a01b038116600090815260086020908152604091829020805483518184028101840190945280845260609392830182828015612e2f57602002820191906000526020600020905b81546001600160a01b03168152600190910190602001808311612e11575b50505050509050919050565b61189481600d805480602002602001604051908101604052809291908181526020018280548015612e9557602002820191906000526020600020905b81546001600160a01b03168152600190910190602001808311612e77575b50505050506128d3565b6060600d805480602002602001604051908101604052809291908181526020018280548015612ef757602002820191906000526020600020905b81546001600160a01b03168152600190910190602001808311612ed9575b5050505050905090565b6020546001600160a01b031681565b6010602052600090815260409020546001600160e01b03811690600160e01b900463ffffffff1682565b6002546001600160a01b031681565b612f5161480b565b602580546001600160a01b038381166001600160a01b0319831681179093556040805191909216808252602082019390935281517fa5ea5616d5f6dbbaa62fdfcf3856723216eed485c394d9e51ec8e6d40e1d1ac1929181900390910190a15050565b6000612fbe6140cf565b612fc9856006614122565b6000612fd686868561570c565b90508015612fe557905061197a565b612fee86614995565b612ff88686614c1f565b6119748685614c1f565b60175481565b73cf6bb5389c92bdda8a3747ddb454cb7a64626c6390565b60408051828152602080840282010190915260609082908290828015613050578160200160208202803883390190505b50905060005b828110156130ad5761308386868381811061306d57fe5b905060200201356001600160a01b0316336157b2565b601281111561308e57fe5b82828151811061309a57fe5b6020908102919091010152600101613056565b50949350505050565b60265460408051630779996560e11b81523060048201526001600160a01b038681166024830152858116604483015260648201859052825160009485948594859490921692630ef332ca926084808201939291829003018186803b15801561311d57600080fd5b505afa158015613131573d6000803e3d6000fd5b505050506040513d604081101561314757600080fd5b508051602090910151909890975095505050505050565b6ec097ce7bc90715b34b9f100000000081565b6021546001600160a01b031681565b600061318a6140cf565b613195866004614122565b6001600160a01b03861660009081526009602052604090206131b690614171565b6015546001600160a01b038681169116146131ec576001600160a01b03851660009081526009602052604090206131ec90614171565b846001600160a01b0316635fe3b5676040518163ffffffff1660e01b815260040160206040518083038186803b15801561322557600080fd5b505afa158015613239573d6000803e3d6000fd5b505050506040513d602081101561324f57600080fd5b505160408051635fe3b56760e01b815290516001600160a01b0392831692891691635fe3b567916004808301926020929190829003018186803b15801561329557600080fd5b505afa1580156132a9573d6000803e3d6000fd5b505050506040513d60208110156132bf57600080fd5b50516001600160a01b0316146132d65760026122ad565b6132df86614995565b6132e98684614c1f565b6132f38685614c1f565b60009695505050505050565b611bb58484848460006125f7565b602054600090613325906001600160a01b0316615228565b670de0b6b3a76400008210613381576040805162461bcd60e51b815260206004820152601d60248201527f74726561737572792070657263656e7420636170206f766572666c6f77000000604482015290519081900360640190fd5b61338a8461485b565b6133938361485b565b6020805460218054602280546001600160a01b038a81166001600160a01b0319808816821789558b8316908616179095559188905560408051958316808752968601949094528351929091169390927f29f06ea15931797ebaed313d81d100963dc22cb213cb4ce2737b5a62b1a8b1e892918290030190a1604080516001600160a01b0380851682528816602082015281517f8de763046d7b8f08b6c3d03543de1d615309417842bb5d2d62f110f65809ddac929181900390910190a1604080518281526020810187905281517f0893f8f4101baaabbeb513f96761e7a36eb837403c82cc651c292a4abdc94ed7929181900390910190a16000979650505050505050565b6026546001600160a01b031681565b60006134b16140cf565b6134bc846002614122565b6001600160a01b03841660009081526009602052604090206134dd90614171565b6001600160a01b038085166000908152600960209081526040808320938716835260029093019052205460ff1661359a57336001600160a01b03851614613563576040805162461bcd60e51b815260206004820152601560248201527439b2b73232b91036bab9ba103132903b2a37b5b2b760591b604482015290519081900360640190fd5b600061356f85856157b2565b9050600081601281111561357f57fe5b146135985780601281111561359057fe5b915050611b34565b505b600480546040805163fc57d4df60e01b81526001600160a01b03888116948201949094529051929091169163fc57d4df91602480820192602092909190829003018186803b1580156135eb57600080fd5b505afa1580156135ff573d6000803e3d6000fd5b505050506040513d602081101561361557600080fd5b505161362557600d5b9050611b34565b6001600160a01b0384166000908152601f60205260409020548015613712576000856001600160a01b03166347bd37186040518163ffffffff1660e01b815260040160206040518083038186803b15801561367f57600080fd5b505afa158015613693573d6000803e3d6000fd5b505050506040513d60208110156136a957600080fd5b5051905060006136b982866158a6565b905082811061370f576040805162461bcd60e51b815260206004820152601960248201527f6d61726b657420626f72726f7720636170207265616368656400000000000000604482015290519081900360640190fd5b50505b60008061372286886000886148ae565b9193509091506000905082601281111561373857fe5b146137535781601281111561374957fe5b9350505050611b34565b8015613760576004613749565b613768615d6e565b6040518060200160405280896001600160a01b031663aa5af0fd6040518163ffffffff1660e01b815260040160206040518083038186803b1580156137ac57600080fd5b505afa1580156137c0573d6000803e3d6000fd5b505050506040513d60208110156137d657600080fd5b5051905290506137e688826141bb565b611e9988888361444f565b6008602052816000526040600020818154811061380a57fe5b6000918252602090912001546001600160a01b03169150829050565b6003546001600160a01b031681565b601c54158061384c5750601c5461384a611bca565b105b1561385657613a63565b6000613860613008565b604080516370a0823160e01b815230600482015290519192506000916001600160a01b038416916370a08231916024808301926020929190829003018186803b1580156138ac57600080fd5b505afa1580156138c0573d6000803e3d6000fd5b505050506040513d60208110156138d657600080fd5b50519050806138e6575050613a63565b6000806138fc6138f4611bca565b601c546158dc565b9050600061390c601a5483615916565b905080841061391d57809250613921565b8392505b601d54831015613935575050505050613a63565b61393d611bca565b601c55601b546040805163a9059cbb60e01b81526001600160a01b0392831660048201526024810186905290519187169163a9059cbb916044808201926020929091908290030181600087803b15801561399657600080fd5b505af11580156139aa573d6000803e3d6000fd5b505050506040513d60208110156139c057600080fd5b50506040805184815290517ff6d4b8f74d85a6e2d7a50225957b8a6cfec69ad92f5905627260541aa0a5565d9181900360200190a1601b60009054906101000a90046001600160a01b03166001600160a01b031663faa1809e6040518163ffffffff1660e01b8152600401600060405180830381600087803b158015613a4557600080fd5b505af1158015613a59573d6000803e3d6000fd5b5050505050505050505b565b6011602052600090815260409020546001600160e01b03811690600160e01b900463ffffffff1682565b6000613ab2604051806060016040528060258152602001615ee560259139614632565b613abb8361485b565b6001600160a01b0383166000908152600960205260409020613adc81614171565b613ae4615d6e565b506040805160208101909152838152613afb615d6e565b506040805160208101909152670c7d713b49da00008152613b1c8183615958565b15613b3757613b2d600660086155c8565b93505050506129ab565b8415801590613bc05750600480546040805163fc57d4df60e01b81526001600160a01b038a8116948201949094529051929091169163fc57d4df91602480820192602092909190829003018186803b158015613b9257600080fd5b505afa158015613ba6573d6000803e3d6000fd5b505050506040513d6020811015613bbc57600080fd5b5051155b15613bd157613b2d600d60096155c8565b60018301805490869055604080516001600160a01b03891681526020810183905280820188905290517f70483e6592cd5182d45ac970e05bc62cdcc90e9d8ef2c2dbe686cf383bcd7fc59181900360600190a16000979650505050505050565b6001600160a01b038216600090815260296020526040812081836008811115613c5657fe5b815260208101919091526040016000205460ff169392505050565b60055481565b6000613c816140cf565b613c8c846001614122565b6000613c9985858561570c565b90508015613ca8579050611b34565b613cb185614995565b613cbb8585614c1f565b600095945050505050565b6000613cd3826008614122565b604080516361bfb47160e11b815233600482015290518391600091829182916001600160a01b0386169163c37f68e2916024808301926080929190829003018186803b158015613d2257600080fd5b505afa158015613d36573d6000803e3d6000fd5b505050506040513d6080811015613d4c57600080fd5b508051602082015160409092015190945090925090508215613db5576040805162461bcd60e51b815260206004820152601960248201527f6765744163636f756e74536e617073686f74206661696c656400000000000000604482015290519081900360640190fd5b8015613dd257613dc7600c60026155c8565b945050505050611a31565b6000613ddf87338561570c565b90508015613e0057613df4600e60038361595f565b95505050505050611a31565b6001600160a01b0385166000908152600960209081526040808320338452600281019092529091205460ff16613e3f5760009650505050505050611a31565b3360009081526002820160209081526040808320805460ff1916905560089091528120805490915b81811015613f2057886001600160a01b0316838281548110613e8557fe5b6000918252602090912001546001600160a01b03161415613f1857826001830381548110613eaf57fe5b9060005260206000200160009054906101000a90046001600160a01b0316838281548110613ed957fe5b600091825260209091200180546001600160a01b0319166001600160a01b03929092169190911790558254613f12846000198301615d81565b50613f20565b600101613e67565b818110613f2957fe5b604080516001600160a01b038b16815233602082015281517fe699a64c18b07ac5b7301aa273f36a2287239eb9501d81950672794afba29a0d929181900390910190a160009b9a5050505050505050505050565b73151b1e2635a717bcdc836ecd6fbb62b674fe3e1d90565b6000613f9f61480b565b613fa88261485b565b602880546001600160a01b038481166001600160a01b0319831617928390556040805192821680845293909116602083015280517f0f1eca7612e020f6e4582bcead0573eba4b5f7b56668754c6aed82ef12057dd49281900390910190a16000611b34565b6000546001600160a01b031681565b601a5481565b600061402c6140cf565b60185460ff161580156140475750601854610100900460ff16155b614088576040805162461bcd60e51b815260206004820152600d60248201526c159052481a5cc81c185d5cd959609a1b604482015290519081900360640190fd5b6015546001600160a01b031633146140ad576140a6600e60166155c8565b90506129ab565b6001600160a01b03831660009081526016602052604081208390559392505050565b60185462010000900460ff1615613a63576040805162461bcd60e51b81526020600482015260126024820152711c1c9bdd1bd8dbdb081a5cc81c185d5cd95960721b604482015290519081900360640190fd5b61412c8282613c31565b156128b1576040805162461bcd60e51b815260206004820152601060248201526f1858dd1a5bdb881a5cc81c185d5cd95960821b604482015290519081900360640190fd5b805460ff16611894576040805162461bcd60e51b81526020600482015260116024820152701b585c9ad95d081b9bdd081b1a5cdd1959607a1b604482015290519081900360640190fd5b6001600160a01b0382166000908152601160209081526040808320600f90925282205490916141e8611bca565b8354909150600090614208908390600160e01b900463ffffffff166158dc565b905060008111801561421a5750600083115b156143ea57600061428f876001600160a01b03166347bd37186040518163ffffffff1660e01b815260040160206040518083038186803b15801561425d57600080fd5b505afa158015614271573d6000803e3d6000fd5b505050506040513d602081101561428757600080fd5b5051876159c5565b9050600061429d8386615916565b90506142a7615d6e565b600083116142c457604051806020016040528060008152506142ce565b6142ce82846159e3565b90506142d8615d6e565b604080516020810190915288546001600160e01b031681526142fa9083615a21565b905060405180604001604052806143408360000151604051806040016040528060138152602001726e657720696e646578206f766572666c6f777360681b815250615a46565b6001600160e01b031681526020016143868860405180604001604052806016815260200175626c6f636b206e756d626572206f766572666c6f777360501b815250615ae0565b63ffffffff9081169091526001600160a01b038c166000908152601160209081526040909120835181549490920151909216600160e01b026001600160e01b039182166001600160e01b0319909416939093171691909117905550611bcf92505050565b8015611bcf576144288260405180604001604052806016815260200175626c6f636b206e756d626572206f766572666c6f777360501b815250615ae0565b845463ffffffff91909116600160e01b026001600160e01b03909116178455505050505050565b601b546001600160a01b03161561446857614468613835565b614470615da5565b506001600160a01b0383166000908152601160209081526040918290208251808401909352546001600160e01b0381168352600160e01b900463ffffffff16908201526144bb615d6e565b50604080516020810190915281516001600160e01b031681526144dc615d6e565b5060408051602080820183526001600160a01b0380891660009081526013835284812091891680825282845294812080548552865195909152915291909155805115611bcf5761452a615d6e565b6145348383615b35565b90506000614591886001600160a01b03166395dd9193896040518263ffffffff1660e01b815260040180826001600160a01b03166001600160a01b0316815260200191505060206040518083038186803b15801561425d57600080fd5b9050600061459f8284615b5a565b6001600160a01b038916600090815260146020526040812054919250906145c690836158a6565b6001600160a01b03808b166000818152601460209081526040918290208590558a5182518881529182015281519495509193928e16927f837bdc11fca9f17ce44167944475225a205279b17e88c791c3b1f66f354668fb9281900390910190a350505050505050505050565b602854604080516318c5e8ab60e01b81523360048201818152602483019384528551604484015285516001600160a01b03909516946318c5e8ab949293879391606490910190602085019080838360005b8381101561469b578181015183820152602001614683565b50505050905090810190601f1680156146c85780820380516001836020036101000a031916815260200191505b50935050505060206040518083038186803b1580156146e657600080fd5b505afa1580156146fa573d6000803e3d6000fd5b505050506040513d602081101561471057600080fd5b5051611894576040805162461bcd60e51b815260206004820152600d60248201526c1858d8d95cdcc819195b9a5959609a1b604482015290519081900360640190fd5b6001600160a01b038316600090815260096020526040902061477490614171565b6001600160a01b0383166000908152602960205260408120829184600881111561479a57fe5b81526020810191909152604001600020805460ff19169115159190911790558160088111156147c557fe5b60408051831515815290516001600160a01b038616917f35007a986bcd36d2f73fc7f1b73762e12eadb4406dd163194950fd3b5a6a827d919081900360200190a3505050565b6000546001600160a01b03163314613a63576040805162461bcd60e51b815260206004820152600e60248201526d37b7363c9030b236b4b71031b0b760911b604482015290519081900360640190fd5b6001600160a01b038116611894576040805162461bcd60e51b815260206004820152601560248201527463616e2774206265207a65726f206164647265737360581b604482015290519081900360640190fd5b6026546040805163a7032efb60e01b81523060048201526001600160a01b03878116602483015286811660448301526064820186905260848201859052915160009384938493849384938493169163a7032efb9160a4808301926060929190829003018186803b15801561492157600080fd5b505afa158015614935573d6000803e3d6000fd5b505050506040513d606081101561494b57600080fd5b50805160208201516040909201519094509092509050826012811115611c9457fe5b6000614977615d6e565b6149818585615b89565b905061245061498f82615baa565b846158a6565b6001600160a01b0381166000908152601060209081526040808320600f90925282205490916149c2611bca565b83549091506000906149e2908390600160e01b900463ffffffff166158dc565b90506000811180156149f45750600083115b15614bbb576000856001600160a01b03166318160ddd6040518163ffffffff1660e01b815260040160206040518083038186803b158015614a3457600080fd5b505afa158015614a48573d6000803e3d6000fd5b505050506040513d6020811015614a5e57600080fd5b505190506000614a6e8386615916565b9050614a78615d6e565b60008311614a955760405180602001604052806000815250614a9f565b614a9f82846159e3565b9050614aa9615d6e565b604080516020810190915288546001600160e01b03168152614acb9083615a21565b90506040518060400160405280614b118360000151604051806040016040528060138152602001726e657720696e646578206f766572666c6f777360681b815250615a46565b6001600160e01b03168152602001614b578860405180604001604052806016815260200175626c6f636b206e756d626572206f766572666c6f777360501b815250615ae0565b63ffffffff9081169091526001600160a01b038b166000908152601060209081526040909120835181549490920151909216600160e01b026001600160e01b039182166001600160e01b031990941693909317169190911790555061189792505050565b801561189757614bf98260405180604001604052806016815260200175626c6f636b206e756d626572206f766572666c6f777360501b815250615ae0565b845463ffffffff91909116600160e01b026001600160e01b039091161784555050505050565b601b546001600160a01b031615614c3857614c38613835565b614c40615da5565b506001600160a01b0382166000908152601060209081526040918290208251808401909352546001600160e01b0381168352600160e01b900463ffffffff1690820152614c8b615d6e565b50604080516020810190915281516001600160e01b03168152614cac615d6e565b5060408051602080820183526001600160a01b03808816600090815260128352848120918816808252828452948120805485528651959091529152919091558051158015614cfa5750815115155b15614d12576ec097ce7bc90715b34b9f100000000081525b614d1a615d6e565b614d248383615b35565b90506000866001600160a01b03166370a08231876040518263ffffffff1660e01b815260040180826001600160a01b03166001600160a01b0316815260200191505060206040518083038186803b158015614d7e57600080fd5b505afa158015614d92573d6000803e3d6000fd5b505050506040513d6020811015614da857600080fd5b505190506000614db88284615b5a565b6001600160a01b03881660009081526014602052604081205491925090614ddf90836158a6565b6001600160a01b03808a166000818152601460209081526040918290208590558a5182518881529182015281519495509193928d16927ffa9d964d891991c113b49e3db1932abd6c67263d387119707aafdd6c4010a3a99281900390910190a3505050505050505050565b6000614e54615d6e565b614e5e8484615b89565b905061197a81615baa565b600073ef044206db68e40520bfa82d45419d498b4bc7bf6001600160a01b03861614801590614eb55750737589dd3355dae848fdbf75044a3495351655cb1a6001600160a01b03861614155b8015614ede57507333df7a7f6d44307e1e5f3b15975b47515e5524c06001600160a01b03861614155b8015614f0757507324e77e5b74b30b026e9996e4bc3329c881e249686001600160a01b03861614155b614f46576040805162461bcd60e51b815260206004820152600b60248201526a109b1858dadb1a5cdd195960aa1b604482015290519081900360640190fd5b6000614f50613008565b604080516370a0823160e01b815230600482015290519192506000916001600160a01b038416916370a08231916024808301926020929190829003018186803b158015614f9c57600080fd5b505afa158015614fb0573d6000803e3d6000fd5b505050506040513d6020811015614fc657600080fd5b50519050841515861580614fd957508187115b15614fe95786935050505061197a565b8061508757826001600160a01b031663a9059cbb89896040518363ffffffff1660e01b815260040180836001600160a01b03166001600160a01b0316815260200182815260200192505050602060405180830381600087803b15801561504e57600080fd5b505af1158015615062573d6000803e3d6000fd5b505050506040513d602081101561507857600080fd5b506000945061197a9350505050565b846150c35760405162461bcd60e51b8152600401808060200182810382526042815260200180615ea36042913960600191505060405180910390fd5b826001600160a01b031663095ea7b36150da613f7d565b896040518363ffffffff1660e01b815260040180836001600160a01b03166001600160a01b0316815260200182815260200192505050602060405180830381600087803b15801561512a57600080fd5b505af115801561513e573d6000803e3d6000fd5b505050506040513d602081101561515457600080fd5b5060009050615161613f7d565b6001600160a01b03166323323e038a8a6040518363ffffffff1660e01b815260040180836001600160a01b03166001600160a01b0316815260200182815260200192505050602060405180830381600087803b1580156151c057600080fd5b505af11580156151d4573d6000803e3d6000fd5b505050506040513d60208110156151ea57600080fd5b505114611e995760405162461bcd60e51b815260040180806020018281038252602a815260200180615e4e602a913960400191505060405180910390fd5b6000546001600160a01b03163314806152495750336001600160a01b038216145b611894576040805162461bcd60e51b815260206004820152600d60248201526c1858d8d95cdcc819195b9a5959609a1b604482015290519081900360640190fd5b6001600160a01b0382166000908152600f6020526040902054801561533e576152b1615d6e565b6040518060200160405280856001600160a01b031663aa5af0fd6040518163ffffffff1660e01b815260040160206040518083038186803b1580156152f557600080fd5b505afa158015615309573d6000803e3d6000fd5b505050506040513d602081101561531f57600080fd5b50519052905061532e84614995565b61533884826141bb565b5061556c565b811561556c576001600160a01b038316600090815260096020526040902061536590614171565b6001600160a01b0383166000908152601060205260409020546001600160e01b03161580156153b757506001600160a01b038316600090815260106020526040902054600160e01b900463ffffffff16155b156154865760405180604001604052806ec097ce7bc90715b34b9f10000000006001600160e01b0316815260200161542b6153f0611bca565b6040518060400160405280601c81526020017f626c6f636b206e756d6265722065786365656473203332206269747300000000815250615ae0565b63ffffffff9081169091526001600160a01b0385166000908152601060209081526040909120835181549490920151909216600160e01b026001600160e01b039182166001600160e01b031990941693909317169190911790555b6001600160a01b0383166000908152601160205260409020546001600160e01b03161580156154d857506001600160a01b038316600090815260116020526040902054600160e01b900463ffffffff16155b1561556c5760405180604001604052806ec097ce7bc90715b34b9f10000000006001600160e01b031681526020016155116153f0611bca565b63ffffffff9081169091526001600160a01b0385166000908152601160209081526040909120835181549490920151909216600160e01b026001600160e01b039182166001600160e01b031990941693909317169190911790555b8181146121b5576001600160a01b0383166000818152600f6020908152604091829020859055815185815291517f2a0ce45ba05a83e75ba21e1a10d6b48a8395028cc6e1ae66f6c313648379d5489281900390910190a2505050565b60007f45b96fe442630264581b197e84bbada861235052c5a1aadfff9ea4e40a969aa08360128111156155f757fe5b83601781111561560357fe5b604080519283526020830191909152600082820152519081900360600190a1826012811115611b3457fe5b60005b600d548110156156b957816001600160a01b0316600d828154811061565257fe5b6000918252602090912001546001600160a01b031614156156b1576040805162461bcd60e51b81526020600482015260146024820152731b585c9ad95d08185b1c9958591e48185919195960621b604482015290519081900360640190fd5b600101615631565b50600d80546001810182556000919091527fd7b6990105719101dabeb77144f2a3385c8033acd3af97e9423a695e81ad1eb50180546001600160a01b0319166001600160a01b0392909216919091179055565b6001600160a01b038316600090815260096020526040812061572d90614171565b6001600160a01b038085166000908152600960209081526040808320938716835260029093019052205460ff1661576557600061361e565b60008061577585878660006148ae565b9193509091506000905082601281111561578b57fe5b146157a55781601281111561579c57fe5b92505050611b34565b80156132f357600461579c565b60006157bf836007614122565b6001600160a01b03831660009081526009602052604090206157e081614171565b6001600160a01b038316600090815260028201602052604090205460ff161561580d5760009150506129ab565b6001600160a01b0380841660008181526002840160209081526040808320805460ff19166001908117909155600883528184208054918201815584529282902090920180549489166001600160a01b031990951685179055815193845283019190915280517f3ab23ab0d51cccc0c3085aec51f99228625aa1a922b3a8ca89a26b0f2027a1a59281900390910190a15060009392505050565b6000611b348383604051806040016040528060118152602001706164646974696f6e206f766572666c6f7760781b815250615bb9565b6000611b348383604051806040016040528060158152602001747375627472616374696f6e20756e646572666c6f7760581b815250615c0e565b6000611b3483836040518060400160405280601781526020017f6d756c7469706c69636174696f6e206f766572666c6f77000000000000000000815250615c68565b5190511090565b60007f45b96fe442630264581b197e84bbada861235052c5a1aadfff9ea4e40a969aa084601281111561598e57fe5b84601781111561599a57fe5b604080519283526020830191909152818101859052519081900360600190a183601281111561197a57fe5b6000611b346159dc84670de0b6b3a7640000615916565b8351615cde565b6159eb615d6e565b6040518060200160405280615a18615a12866ec097ce7bc90715b34b9f1000000000615916565b85615cde565b90529392505050565b615a29615d6e565b6040518060200160405280615a18856000015185600001516158a6565b600081600160e01b8410615ad85760405162461bcd60e51b81526004018080602001828103825283818151815260200191508051906020019080838360005b83811015615a9d578181015183820152602001615a85565b50505050905090810190601f168015615aca5780820380516001836020036101000a031916815260200191505b509250505060405180910390fd5b509192915050565b600081600160201b8410615ad85760405162461bcd60e51b8152602060048201818152835160248401528351909283926044909101919085019080838360008315615a9d578181015183820152602001615a85565b615b3d615d6e565b6040518060200160405280615a18856000015185600001516158dc565b60006ec097ce7bc90715b34b9f1000000000615b7a848460000151615916565b81615b8157fe5b049392505050565b615b91615d6e565b6040518060200160405280615a18856000015185615916565b51670de0b6b3a7640000900490565b600083830182858210156130ad5760405162461bcd60e51b8152602060048201818152835160248401528351909283926044909101919085019080838360008315615a9d578181015183820152602001615a85565b60008184841115615c605760405162461bcd60e51b8152602060048201818152835160248401528351909283926044909101919085019080838360008315615a9d578181015183820152602001615a85565b505050900390565b6000831580615c75575082155b15615c8257506000611b34565b83830283858281615c8f57fe5b041483906130ad5760405162461bcd60e51b8152602060048201818152835160248401528351909283926044909101919085019080838360008315615a9d578181015183820152602001615a85565b6000611b3483836040518060400160405280600e81526020016d646976696465206279207a65726f60901b81525060008183615d5b5760405162461bcd60e51b8152602060048201818152835160248401528351909283926044909101919085019080838360008315615a9d578181015183820152602001615a85565b50828481615d6557fe5b04949350505050565b6040518060200160405280600081525090565b8154818355818111156121b5576000838152602090206121b5918101908301615dbc565b604080518082019091526000808252602082015290565b611bcc91905b80821115615dd65760008155600101615dc2565b509056fe5f7365744c69717569646174696f6e496e63656e746976652875696e74323536295f7365744d61726b6574537570706c794361707328616464726573735b5d2c75696e743235365b5d295f7365744d61726b6574426f72726f774361707328616464726573735b5d2c75696e743235365b5d296d696e7420626568616c66206572726f7220647572696e6720636f6c6c61746572616c697a65207876735f736574416374696f6e7350617573656428616464726573735b5d2c75696e743235365b5d2c626f6f6c2962616e6b72757074206163636f756e74732063616e206f6e6c7920636f6c6c61746572616c697a652074686569722070656e64696e672078767320726577617264735f736574436f6c6c61746572616c466163746f7228616464726573732c75696e7432353629a265627a7a723158205d62a757b1e343051a5d17b9570f2bf0af82430a0258994bf6502a1a1ae6e76e64736f6c63430005100032",
  "devdoc": {
    "author": "Venus",
    "methods": {
      "_grantXVS(address,uint256)": {
        "details": "Note: If there is not enough XVS, we do not perform the transfer all.",
        "params": {
          "amount": "The amount of XVS to (possibly) transfer",
          "recipient": "The address of the recipient to transfer XVS to"
        }
      },
      "_setAccessControl(address)": {
        "details": "Admin function to set the access control address",
        "params": {
          "newAccessControlAddress": "New address for the access control"
        },
        "return": "uint 0=success, otherwise will revert"
      },
      "_setActionsPaused(address[],uint8[],bool)": {
        "params": {
          "actions": "List of action ids to pause/unpause",
          "markets": "Markets to pause/unpause the actions on",
          "paused": "The new paused state (true=paused, false=unpaused)"
        }
      },
      "_setCloseFactor(uint256)": {
        "details": "Admin function to set closeFactor",
        "params": {
          "newCloseFactorMantissa": "New close factor, scaled by 1e18"
        },
        "return": "uint 0=success, otherwise will revert"
      },
      "_setCollateralFactor(address,uint256)": {
        "details": "Restricted function to set per-market collateralFactor",
        "params": {
          "newCollateralFactorMantissa": "The new collateral factor, scaled by 1e18",
          "vToken": "The market to set the factor on"
        },
        "return": "uint 0=success, otherwise a failure. (See ErrorReporter for details)"
      },
      "_setComptrollerLens(address)": {
        "details": "Set ComptrollerLens contract address"
      },
      "_setLiquidationIncentive(uint256)": {
        "details": "Admin function to set liquidationIncentive",
        "params": {
          "newLiquidationIncentiveMantissa": "New liquidationIncentive scaled by 1e18"
        },
        "return": "uint 0=success, otherwise a failure. (See ErrorReporter for details)"
      },
      "_setMarketBorrowCaps(address[],uint256[])": {
        "details": "Access is controled by ACM. A borrow cap of 0 corresponds to unlimited borrowing.",
        "params": {
          "newBorrowCaps": "The new borrow cap values in underlying to be set. A value of 0 corresponds to unlimited borrowing.",
          "vTokens": "The addresses of the markets (tokens) to change the borrow caps for"
        }
      },
      "_setMarketSupplyCaps(address[],uint256[])": {
        "details": "Admin function to set the supply caps. A supply cap of 0 corresponds to Minting NotAllowed.",
        "params": {
          "newSupplyCaps": "The new supply cap values in underlying to be set. A value of 0 corresponds to Minting NotAllowed.",
          "vTokens": "The addresses of the markets (tokens) to change the supply caps for"
        }
      },
      "_setPauseGuardian(address)": {
        "params": {
          "newPauseGuardian": "The address of the new Pause Guardian"
        },
        "return": "uint 0=success, otherwise a failure. (See enum Error for details)"
      },
      "_setPriceOracle(address)": {
        "details": "Admin function to set a new price oracle",
        "return": "uint 0=success, otherwise a failure (see ErrorReporter.sol for details)"
      },
      "_setVAIController(address)": {
        "details": "Admin function to set a new VAI controller",
        "return": "uint 0=success, otherwise a failure (see ErrorReporter.sol for details)"
      },
      "_setVAIVaultInfo(address,uint256,uint256)": {
        "params": {
          "minReleaseAmount_": "The minimum release amount to VAI Vault",
          "releaseStartBlock_": "The start block of release to VAI Vault",
          "vault_": "The address of the VAI Vault"
        }
      },
      "_setVenusSpeed(address,uint256)": {
        "params": {
          "vToken": "The market whose XVS speed to update",
          "venusSpeed": "New XVS speed for market"
        }
      },
      "_setVenusVAIVaultRate(uint256)": {
        "params": {
          "venusVAIVaultRate_": "The amount of XVS wei per block to distribute to VAI Vault"
        }
      },
      "_supportMarket(address)": {
        "details": "Admin function to set isListed and add support for the market",
        "params": {
          "vToken": "The address of the market (token) to list"
        },
        "return": "uint 0=success, otherwise a failure. (See enum Error for details)"
      },
      "actionPaused(address,uint8)": {
        "params": {
          "action": "Action id",
          "market": "vToken address"
        }
      },
      "borrowAllowed(address,address,uint256)": {
        "params": {
          "borrowAmount": "The amount of underlying the account would borrow",
          "borrower": "The account which would borrow the asset",
          "vToken": "The market to verify the borrow against"
        },
        "return": "0 if the borrow is allowed, otherwise a semi-opaque error code (See ErrorReporter.sol)"
      },
      "borrowVerify(address,address,uint256)": {
        "params": {
          "borrowAmount": "The amount of the underlying asset requested to borrow",
          "borrower": "The address borrowing the underlying",
          "vToken": "Asset whose underlying is being borrowed"
        }
      },
      "checkMembership(address,address)": {
        "params": {
          "account": "The address of the account to check",
          "vToken": "The vToken to check"
        },
        "return": "True if the account is in the asset, otherwise false."
      },
      "claimVenus(address)": {
        "params": {
          "holder": "The address to claim XVS for"
        }
      },
      "claimVenus(address,address[])": {
        "params": {
          "holder": "The address to claim XVS for",
          "vTokens": "The list of markets to claim XVS in"
        }
      },
      "claimVenus(address[],address[],bool,bool)": {
        "params": {
          "borrowers": "Whether or not to claim XVS earned by borrowing",
          "holders": "The addresses to claim XVS for",
          "suppliers": "Whether or not to claim XVS earned by supplying",
          "vTokens": "The list of markets to claim XVS in"
        }
      },
      "claimVenus(address[],address[],bool,bool,bool)": {
        "params": {
          "borrowers": "Whether or not to claim XVS earned by borrowing",
          "collateral": "Whether or not to use XVS earned as collateral, only takes effect when the holder has a shortfall",
          "holders": "The addresses to claim XVS for",
          "suppliers": "Whether or not to claim XVS earned by supplying",
          "vTokens": "The list of markets to claim XVS in"
        }
      },
      "claimVenusAsCollateral(address)": {
        "params": {
          "holder": "The address to claim XVS for"
        }
      },
      "enterMarkets(address[])": {
        "params": {
          "vTokens": "The list of addresses of the vToken markets to be enabled"
        },
        "return": "Success indicator for whether each corresponding market was entered"
      },
      "exitMarket(address)": {
        "details": "Sender must not have an outstanding borrow balance in the asset, or be providing necessary collateral for an outstanding borrow.",
        "params": {
          "vTokenAddress": "The address of the asset to be removed"
        },
        "return": "Whether or not the account successfully exited the market"
      },
      "getAccountLiquidity(address)": {
        "return": "(possible error code (semi-opaque), account liquidity in excess of collateral requirements,         account shortfall below collateral requirements)"
      },
      "getAllMarkets()": {
        "details": "The automatic getter may be used to access an individual market.",
        "return": "The list of market addresses"
      },
      "getAssetsIn(address)": {
        "params": {
          "account": "The address of the account to pull assets for"
        },
        "return": "A dynamic list with the assets the account has entered"
      },
      "getHypotheticalAccountLiquidity(address,address,uint256,uint256)": {
        "params": {
          "account": "The account to determine liquidity for",
          "borrowAmount": "The amount of underlying to hypothetically borrow",
          "redeemTokens": "The number of tokens to hypothetically redeem",
          "vTokenModify": "The market to hypothetically redeem/borrow in"
        },
        "return": "(possible error code (semi-opaque), hypothetical account liquidity in excess of collateral requirements,         hypothetical account shortfall below collateral requirements)"
      },
      "getXVSAddress()": {
        "return": "The address of XVS"
      },
      "getXVSVTokenAddress()": {
        "return": "The address of XVS vToken"
      },
      "liquidateBorrowAllowed(address,address,address,address,uint256)": {
        "params": {
          "borrower": "The address of the borrower",
          "liquidator": "The address repaying the borrow and seizing the collateral",
          "repayAmount": "The amount of underlying being repaid",
          "vTokenBorrowed": "Asset which was borrowed by the borrower",
          "vTokenCollateral": "Asset which was used as collateral and will be seized"
        }
      },
      "liquidateBorrowVerify(address,address,address,address,uint256,uint256)": {
        "params": {
          "actualRepayAmount": "The amount of underlying being repaid",
          "borrower": "The address of the borrower",
          "liquidator": "The address repaying the borrow and seizing the collateral",
          "seizeTokens": "The amount of collateral token that will be seized",
          "vTokenBorrowed": "Asset which was borrowed by the borrower",
          "vTokenCollateral": "Asset which was used as collateral and will be seized"
        }
      },
      "liquidateCalculateSeizeTokens(address,address,uint256)": {
        "details": "Used in liquidation (called in vToken.liquidateBorrowFresh)",
        "params": {
          "actualRepayAmount": "The amount of vTokenBorrowed underlying to convert into vTokenCollateral tokens",
          "vTokenBorrowed": "The address of the borrowed vToken",
          "vTokenCollateral": "The address of the collateral vToken"
        },
        "return": "(errorCode, number of vTokenCollateral tokens to be seized in a liquidation)"
      },
      "liquidateVAICalculateSeizeTokens(address,uint256)": {
        "details": "Used in liquidation (called in vToken.liquidateBorrowFresh)",
        "params": {
          "actualRepayAmount": "The amount of vTokenBorrowed underlying to convert into vTokenCollateral tokens",
          "vTokenCollateral": "The address of the collateral vToken"
        },
        "return": "(errorCode, number of vTokenCollateral tokens to be seized in a liquidation)"
      },
      "mintAllowed(address,address,uint256)": {
        "params": {
          "mintAmount": "The amount of underlying being supplied to the market in exchange for tokens",
          "minter": "The account which would get the minted tokens",
          "vToken": "The market to verify the mint against"
        },
        "return": "0 if the mint is allowed, otherwise a semi-opaque error code (See ErrorReporter.sol)"
      },
      "mintVerify(address,address,uint256,uint256)": {
        "params": {
          "actualMintAmount": "The amount of the underlying asset being minted",
          "mintTokens": "The number of tokens being minted",
          "minter": "The address minting the tokens",
          "vToken": "Asset being minted"
        }
      },
      "redeemAllowed(address,address,uint256)": {
        "params": {
          "redeemTokens": "The number of vTokens to exchange for the underlying asset in the market",
          "redeemer": "The account which would redeem the tokens",
          "vToken": "The market to verify the redeem against"
        },
        "return": "0 if the redeem is allowed, otherwise a semi-opaque error code (See ErrorReporter.sol)"
      },
      "redeemVerify(address,address,uint256,uint256)": {
        "params": {
          "redeemAmount": "The amount of the underlying asset being redeemed",
          "redeemTokens": "The number of tokens being redeemed",
          "redeemer": "The address redeeming the tokens",
          "vToken": "Asset being redeemed"
        }
      },
      "repayBorrowAllowed(address,address,address,uint256)": {
        "params": {
          "borrower": "The account which borrowed the asset",
          "payer": "The account which would repay the asset",
          "repayAmount": "The amount of the underlying asset the account would repay",
          "vToken": "The market to verify the repay against"
        },
        "return": "0 if the repay is allowed, otherwise a semi-opaque error code (See ErrorReporter.sol)"
      },
      "repayBorrowVerify(address,address,address,uint256,uint256)": {
        "params": {
          "actualRepayAmount": "The amount of underlying being repaid",
          "borrower": "The address of the borrower",
          "payer": "The address repaying the borrow",
          "vToken": "Asset being repaid"
        }
      },
      "seizeAllowed(address,address,address,address,uint256)": {
        "params": {
          "borrower": "The address of the borrower",
          "liquidator": "The address repaying the borrow and seizing the collateral",
          "seizeTokens": "The number of collateral tokens to seize",
          "vTokenBorrowed": "Asset which was borrowed by the borrower",
          "vTokenCollateral": "Asset which was used as collateral and will be seized"
        }
      },
      "seizeVerify(address,address,address,address,uint256)": {
        "params": {
          "borrower": "The address of the borrower",
          "liquidator": "The address repaying the borrow and seizing the collateral",
          "seizeTokens": "The number of collateral tokens to seize",
          "vTokenBorrowed": "Asset which was borrowed by the borrower",
          "vTokenCollateral": "Asset which was used as collateral and will be seized"
        }
      },
      "setMintedVAIOf(address,uint256)": {
        "params": {
          "amount": "The amount of VAI to set to the account",
          "owner": "The address of the account to set"
        },
        "return": "The number of minted VAI by `owner`"
      },
      "transferAllowed(address,address,address,uint256)": {
        "params": {
          "dst": "The account which receives the tokens",
          "src": "The account which sources the tokens",
          "transferTokens": "The number of vTokens to transfer",
          "vToken": "The market to verify the transfer against"
        },
        "return": "0 if the transfer is allowed, otherwise a semi-opaque error code (See ErrorReporter.sol)"
      },
      "transferVerify(address,address,address,uint256)": {
        "params": {
          "dst": "The account which receives the tokens",
          "src": "The account which sources the tokens",
          "transferTokens": "The number of vTokens to transfer",
          "vToken": "Asset being transferred"
        }
      }
    },
    "title": "Venus's Comptroller Contract"
  },
  "userdoc": {
    "methods": {
      "_grantXVS(address,uint256)": {
        "notice": "Transfer XVS to the recipient"
      },
      "_setAccessControl(address)": {
        "notice": "Sets the address of the access control of this contract"
      },
      "_setActionsPaused(address[],uint8[],bool)": {
        "notice": "Pause/unpause certain actions"
      },
      "_setCloseFactor(uint256)": {
        "notice": "Sets the closeFactor used when liquidating borrows"
      },
      "_setCollateralFactor(address,uint256)": {
        "notice": "Sets the collateralFactor for a market"
      },
      "_setLiquidationIncentive(uint256)": {
        "notice": "Sets liquidationIncentive"
      },
      "_setMarketBorrowCaps(address[],uint256[])": {
        "notice": "Set the given borrow caps for the given vToken markets. Borrowing that brings total borrows to or above borrow cap will revert."
      },
      "_setMarketSupplyCaps(address[],uint256[])": {
        "notice": "Set the given supply caps for the given vToken markets. Supply that brings total Supply to or above supply cap will revert."
      },
      "_setPauseGuardian(address)": {
        "notice": "Admin function to change the Pause Guardian"
      },
      "_setPriceOracle(address)": {
        "notice": "Sets a new price oracle for the comptroller"
      },
      "_setProtocolPaused(bool)": {
        "notice": "Set whole protocol pause/unpause state"
      },
      "_setVAIController(address)": {
        "notice": "Sets a new VAI controller"
      },
      "_setVAIVaultInfo(address,uint256,uint256)": {
        "notice": "Set the VAI Vault infos"
      },
      "_setVenusSpeed(address,uint256)": {
        "notice": "Set XVS speed for a single market"
      },
      "_setVenusVAIVaultRate(uint256)": {
        "notice": "Set the amount of XVS distributed per block to VAI Vault"
      },
      "_supportMarket(address)": {
        "notice": "Add the market to the markets mapping and set it as listed"
      },
      "actionPaused(address,uint8)": {
        "notice": "Checks if a certain action is paused on a market"
      },
      "borrowAllowed(address,address,uint256)": {
        "notice": "Checks if the account should be allowed to borrow the underlying asset of the given market"
      },
      "borrowVerify(address,address,uint256)": {
        "notice": "Validates borrow and reverts on rejection. May emit logs."
      },
      "checkMembership(address,address)": {
        "notice": "Returns whether the given account is entered in the given asset"
      },
      "claimVenus(address)": {
        "notice": "Claim all the xvs accrued by holder in all markets and VAI"
      },
      "claimVenus(address,address[])": {
        "notice": "Claim all the xvs accrued by holder in the specified markets"
      },
      "claimVenus(address[],address[],bool,bool)": {
        "notice": "Claim all xvs accrued by the holders"
      },
      "claimVenus(address[],address[],bool,bool,bool)": {
        "notice": "Claim all xvs accrued by the holders"
      },
      "claimVenusAsCollateral(address)": {
        "notice": "Claim all the xvs accrued by holder in all markets, a shorthand for `claimVenus` with collateral set to `true`"
      },
      "enterMarkets(address[])": {
        "notice": "Add assets to be included in account liquidity calculation"
      },
      "exitMarket(address)": {
        "notice": "Removes asset from sender's account liquidity calculation"
      },
      "getAccountLiquidity(address)": {
        "notice": "Determine the current account liquidity wrt collateral requirements"
      },
      "getAllMarkets()": {
        "notice": "Return all of the markets"
      },
      "getAssetsIn(address)": {
        "notice": "Returns the assets an account has entered"
      },
      "getHypotheticalAccountLiquidity(address,address,uint256,uint256)": {
        "notice": "Determine what the account liquidity would be if the given amounts were redeemed/borrowed"
      },
      "getXVSAddress()": {
        "notice": "Return the address of the XVS token"
      },
      "getXVSVTokenAddress()": {
        "notice": "Return the address of the XVS vToken"
      },
      "liquidateBorrowAllowed(address,address,address,address,uint256)": {
        "notice": "Checks if the liquidation should be allowed to occur"
      },
      "liquidateBorrowVerify(address,address,address,address,uint256,uint256)": {
        "notice": "Validates liquidateBorrow and reverts on rejection. May emit logs."
      },
      "liquidateCalculateSeizeTokens(address,address,uint256)": {
        "notice": "Calculate number of tokens of collateral asset to seize given an underlying amount"
      },
      "liquidateVAICalculateSeizeTokens(address,uint256)": {
        "notice": "Calculate number of tokens of collateral asset to seize given an underlying amount"
      },
      "mintAllowed(address,address,uint256)": {
        "notice": "Checks if the account should be allowed to mint tokens in the given market"
      },
      "mintVerify(address,address,uint256,uint256)": {
        "notice": "Validates mint and reverts on rejection. May emit logs."
      },
      "redeemAllowed(address,address,uint256)": {
        "notice": "Checks if the account should be allowed to redeem tokens in the given market"
      },
      "redeemVerify(address,address,uint256,uint256)": {
        "notice": "Validates redeem and reverts on rejection. May emit logs."
      },
      "releaseToVault()": {
        "notice": "Transfer XVS to VAI Vault"
      },
      "repayBorrowAllowed(address,address,address,uint256)": {
        "notice": "Checks if the account should be allowed to repay a borrow in the given market"
      },
      "repayBorrowVerify(address,address,address,uint256,uint256)": {
        "notice": "Validates repayBorrow and reverts on rejection. May emit logs."
      },
      "seizeAllowed(address,address,address,address,uint256)": {
        "notice": "Checks if the seizing of assets should be allowed to occur"
      },
      "seizeVerify(address,address,address,address,uint256)": {
        "notice": "Validates seize and reverts on rejection. May emit logs."
      },
      "setMintedVAIOf(address,uint256)": {
        "notice": "Set the minted VAI amount of the `owner`"
      },
      "transferAllowed(address,address,address,uint256)": {
        "notice": "Checks if the account should be allowed to transfer tokens in the given market"
      },
      "transferVerify(address,address,address,uint256)": {
        "notice": "Validates transfer and reverts on rejection. May emit logs."
      }
    }
  },
  "storageLayout": {
    "storage": [
      {
        "astId": 24529,
        "contract": "contracts/Comptroller.sol:Comptroller",
        "label": "admin",
        "offset": 0,
        "slot": "0",
        "type": "t_address"
      },
      {
        "astId": 24531,
        "contract": "contracts/Comptroller.sol:Comptroller",
        "label": "pendingAdmin",
        "offset": 0,
        "slot": "1",
        "type": "t_address"
      },
      {
        "astId": 24533,
        "contract": "contracts/Comptroller.sol:Comptroller",
        "label": "comptrollerImplementation",
        "offset": 0,
        "slot": "2",
        "type": "t_address"
      },
      {
        "astId": 24535,
        "contract": "contracts/Comptroller.sol:Comptroller",
        "label": "pendingComptrollerImplementation",
        "offset": 0,
        "slot": "3",
        "type": "t_address"
      },
      {
        "astId": 24540,
        "contract": "contracts/Comptroller.sol:Comptroller",
        "label": "oracle",
        "offset": 0,
        "slot": "4",
        "type": "t_contract(PriceOracle)34392"
      },
      {
        "astId": 24542,
        "contract": "contracts/Comptroller.sol:Comptroller",
        "label": "closeFactorMantissa",
        "offset": 0,
        "slot": "5",
        "type": "t_uint256"
      },
      {
        "astId": 24544,
        "contract": "contracts/Comptroller.sol:Comptroller",
        "label": "liquidationIncentiveMantissa",
        "offset": 0,
        "slot": "6",
        "type": "t_uint256"
      },
      {
        "astId": 24546,
        "contract": "contracts/Comptroller.sol:Comptroller",
        "label": "maxAssets",
        "offset": 0,
        "slot": "7",
        "type": "t_uint256"
      },
      {
        "astId": 24551,
        "contract": "contracts/Comptroller.sol:Comptroller",
        "label": "accountAssets",
        "offset": 0,
        "slot": "8",
        "type": "t_mapping(t_address,t_array(t_contract(VToken)48061)dyn_storage)"
      },
      {
        "astId": 24566,
        "contract": "contracts/Comptroller.sol:Comptroller",
        "label": "markets",
        "offset": 0,
        "slot": "9",
        "type": "t_mapping(t_address,t_struct(Market)24562_storage)"
      },
      {
        "astId": 24568,
        "contract": "contracts/Comptroller.sol:Comptroller",
        "label": "pauseGuardian",
        "offset": 0,
        "slot": "10",
        "type": "t_address"
      },
      {
        "astId": 24570,
        "contract": "contracts/Comptroller.sol:Comptroller",
        "label": "_mintGuardianPaused",
        "offset": 20,
        "slot": "10",
        "type": "t_bool"
      },
      {
        "astId": 24572,
        "contract": "contracts/Comptroller.sol:Comptroller",
        "label": "_borrowGuardianPaused",
        "offset": 21,
        "slot": "10",
        "type": "t_bool"
      },
      {
        "astId": 24574,
        "contract": "contracts/Comptroller.sol:Comptroller",
        "label": "transferGuardianPaused",
        "offset": 22,
        "slot": "10",
        "type": "t_bool"
      },
      {
        "astId": 24576,
        "contract": "contracts/Comptroller.sol:Comptroller",
        "label": "seizeGuardianPaused",
        "offset": 23,
        "slot": "10",
        "type": "t_bool"
      },
      {
        "astId": 24580,
        "contract": "contracts/Comptroller.sol:Comptroller",
        "label": "mintGuardianPaused",
        "offset": 0,
        "slot": "11",
        "type": "t_mapping(t_address,t_bool)"
      },
      {
        "astId": 24584,
        "contract": "contracts/Comptroller.sol:Comptroller",
        "label": "borrowGuardianPaused",
        "offset": 0,
        "slot": "12",
        "type": "t_mapping(t_address,t_bool)"
      },
      {
        "astId": 24592,
        "contract": "contracts/Comptroller.sol:Comptroller",
        "label": "allMarkets",
        "offset": 0,
        "slot": "13",
        "type": "t_array(t_contract(VToken)48061)dyn_storage"
      },
      {
        "astId": 24594,
        "contract": "contracts/Comptroller.sol:Comptroller",
        "label": "venusRate",
        "offset": 0,
        "slot": "14",
        "type": "t_uint256"
      },
      {
        "astId": 24598,
        "contract": "contracts/Comptroller.sol:Comptroller",
        "label": "venusSpeeds",
        "offset": 0,
        "slot": "15",
        "type": "t_mapping(t_address,t_uint256)"
      },
      {
        "astId": 24602,
        "contract": "contracts/Comptroller.sol:Comptroller",
        "label": "venusSupplyState",
        "offset": 0,
        "slot": "16",
        "type": "t_mapping(t_address,t_struct(VenusMarketState)24589_storage)"
      },
      {
        "astId": 24606,
        "contract": "contracts/Comptroller.sol:Comptroller",
        "label": "venusBorrowState",
        "offset": 0,
        "slot": "17",
        "type": "t_mapping(t_address,t_struct(VenusMarketState)24589_storage)"
      },
      {
        "astId": 24612,
        "contract": "contracts/Comptroller.sol:Comptroller",
        "label": "venusSupplierIndex",
        "offset": 0,
        "slot": "18",
        "type": "t_mapping(t_address,t_mapping(t_address,t_uint256))"
      },
      {
        "astId": 24618,
        "contract": "contracts/Comptroller.sol:Comptroller",
        "label": "venusBorrowerIndex",
        "offset": 0,
        "slot": "19",
        "type": "t_mapping(t_address,t_mapping(t_address,t_uint256))"
      },
      {
        "astId": 24622,
        "contract": "contracts/Comptroller.sol:Comptroller",
        "label": "venusAccrued",
        "offset": 0,
        "slot": "20",
        "type": "t_mapping(t_address,t_uint256)"
      },
      {
        "astId": 24624,
        "contract": "contracts/Comptroller.sol:Comptroller",
        "label": "vaiController",
        "offset": 0,
        "slot": "21",
        "type": "t_contract(VAIControllerInterface)38847"
      },
      {
        "astId": 24628,
        "contract": "contracts/Comptroller.sol:Comptroller",
        "label": "mintedVAIs",
        "offset": 0,
        "slot": "22",
        "type": "t_mapping(t_address,t_uint256)"
      },
      {
        "astId": 24630,
        "contract": "contracts/Comptroller.sol:Comptroller",
        "label": "vaiMintRate",
        "offset": 0,
        "slot": "23",
        "type": "t_uint256"
      },
      {
        "astId": 24632,
        "contract": "contracts/Comptroller.sol:Comptroller",
        "label": "mintVAIGuardianPaused",
        "offset": 0,
        "slot": "24",
        "type": "t_bool"
      },
      {
        "astId": 24634,
        "contract": "contracts/Comptroller.sol:Comptroller",
        "label": "repayVAIGuardianPaused",
        "offset": 1,
        "slot": "24",
        "type": "t_bool"
      },
      {
        "astId": 24636,
        "contract": "contracts/Comptroller.sol:Comptroller",
        "label": "protocolPaused",
        "offset": 2,
        "slot": "24",
        "type": "t_bool"
      },
      {
        "astId": 24638,
        "contract": "contracts/Comptroller.sol:Comptroller",
        "label": "venusVAIRate",
        "offset": 0,
        "slot": "25",
        "type": "t_uint256"
      },
      {
        "astId": 24643,
        "contract": "contracts/Comptroller.sol:Comptroller",
        "label": "venusVAIVaultRate",
        "offset": 0,
        "slot": "26",
        "type": "t_uint256"
      },
      {
        "astId": 24645,
        "contract": "contracts/Comptroller.sol:Comptroller",
        "label": "vaiVaultAddress",
        "offset": 0,
        "slot": "27",
        "type": "t_address"
      },
      {
        "astId": 24647,
        "contract": "contracts/Comptroller.sol:Comptroller",
        "label": "releaseStartBlock",
        "offset": 0,
        "slot": "28",
        "type": "t_uint256"
      },
      {
        "astId": 24649,
        "contract": "contracts/Comptroller.sol:Comptroller",
        "label": "minReleaseAmount",
        "offset": 0,
        "slot": "29",
        "type": "t_uint256"
      },
      {
        "astId": 24654,
        "contract": "contracts/Comptroller.sol:Comptroller",
        "label": "borrowCapGuardian",
        "offset": 0,
        "slot": "30",
        "type": "t_address"
      },
      {
        "astId": 24658,
        "contract": "contracts/Comptroller.sol:Comptroller",
        "label": "borrowCaps",
        "offset": 0,
        "slot": "31",
        "type": "t_mapping(t_address,t_uint256)"
      },
      {
        "astId": 24663,
        "contract": "contracts/Comptroller.sol:Comptroller",
        "label": "treasuryGuardian",
        "offset": 0,
        "slot": "32",
        "type": "t_address"
      },
      {
        "astId": 24665,
        "contract": "contracts/Comptroller.sol:Comptroller",
        "label": "treasuryAddress",
        "offset": 0,
        "slot": "33",
        "type": "t_address"
      },
      {
        "astId": 24667,
        "contract": "contracts/Comptroller.sol:Comptroller",
        "label": "treasuryPercent",
        "offset": 0,
        "slot": "34",
        "type": "t_uint256"
      },
      {
        "astId": 24674,
        "contract": "contracts/Comptroller.sol:Comptroller",
        "label": "venusContributorSpeeds",
        "offset": 0,
        "slot": "35",
        "type": "t_mapping(t_address,t_uint256)"
      },
      {
        "astId": 24678,
        "contract": "contracts/Comptroller.sol:Comptroller",
        "label": "lastContributorBlock",
        "offset": 0,
        "slot": "36",
        "type": "t_mapping(t_address,t_uint256)"
      },
      {
        "astId": 24683,
        "contract": "contracts/Comptroller.sol:Comptroller",
        "label": "liquidatorContract",
        "offset": 0,
        "slot": "37",
        "type": "t_address"
      },
      {
        "astId": 24688,
        "contract": "contracts/Comptroller.sol:Comptroller",
        "label": "comptrollerLens",
        "offset": 0,
        "slot": "38",
        "type": "t_contract(ComptrollerLensInterface)24521"
      },
      {
        "astId": 24695,
        "contract": "contracts/Comptroller.sol:Comptroller",
        "label": "supplyCaps",
        "offset": 0,
        "slot": "39",
        "type": "t_mapping(t_address,t_uint256)"
      },
      {
        "astId": 24700,
        "contract": "contracts/Comptroller.sol:Comptroller",
        "label": "accessControl",
        "offset": 0,
        "slot": "40",
        "type": "t_address"
      },
      {
        "astId": 24716,
        "contract": "contracts/Comptroller.sol:Comptroller",
        "label": "_actionPaused",
        "offset": 0,
        "slot": "41",
        "type": "t_mapping(t_address,t_mapping(t_uint256,t_bool))"
      }
    ],
    "types": {
      "t_address": {
        "encoding": "inplace",
        "label": "address",
        "numberOfBytes": "20"
      },
      "t_array(t_contract(VToken)48061)dyn_storage": {
        "base": "t_contract(VToken)48061",
        "encoding": "dynamic_array",
        "label": "contract VToken[]",
        "numberOfBytes": "32"
      },
      "t_bool": {
        "encoding": "inplace",
        "label": "bool",
        "numberOfBytes": "1"
      },
      "t_contract(ComptrollerLensInterface)24521": {
        "encoding": "inplace",
        "label": "contract ComptrollerLensInterface",
        "numberOfBytes": "20"
      },
      "t_contract(PriceOracle)34392": {
        "encoding": "inplace",
        "label": "contract PriceOracle",
        "numberOfBytes": "20"
      },
      "t_contract(VAIControllerInterface)38847": {
        "encoding": "inplace",
        "label": "contract VAIControllerInterface",
        "numberOfBytes": "20"
      },
      "t_contract(VToken)48061": {
        "encoding": "inplace",
        "label": "contract VToken",
        "numberOfBytes": "20"
      },
      "t_mapping(t_address,t_array(t_contract(VToken)48061)dyn_storage)": {
        "encoding": "mapping",
        "key": "t_address",
        "label": "mapping(address => contract VToken[])",
        "numberOfBytes": "32",
        "value": "t_array(t_contract(VToken)48061)dyn_storage"
      },
      "t_mapping(t_address,t_bool)": {
        "encoding": "mapping",
        "key": "t_address",
        "label": "mapping(address => bool)",
        "numberOfBytes": "32",
        "value": "t_bool"
      },
      "t_mapping(t_address,t_mapping(t_address,t_uint256))": {
        "encoding": "mapping",
        "key": "t_address",
        "label": "mapping(address => mapping(address => uint256))",
        "numberOfBytes": "32",
        "value": "t_mapping(t_address,t_uint256)"
      },
      "t_mapping(t_address,t_mapping(t_uint256,t_bool))": {
        "encoding": "mapping",
        "key": "t_address",
        "label": "mapping(address => mapping(uint256 => bool))",
        "numberOfBytes": "32",
        "value": "t_mapping(t_uint256,t_bool)"
      },
      "t_mapping(t_address,t_struct(Market)24562_storage)": {
        "encoding": "mapping",
        "key": "t_address",
        "label": "mapping(address => struct ComptrollerV1Storage.Market)",
        "numberOfBytes": "32",
        "value": "t_struct(Market)24562_storage"
      },
      "t_mapping(t_address,t_struct(VenusMarketState)24589_storage)": {
        "encoding": "mapping",
        "key": "t_address",
        "label": "mapping(address => struct ComptrollerV1Storage.VenusMarketState)",
        "numberOfBytes": "32",
        "value": "t_struct(VenusMarketState)24589_storage"
      },
      "t_mapping(t_address,t_uint256)": {
        "encoding": "mapping",
        "key": "t_address",
        "label": "mapping(address => uint256)",
        "numberOfBytes": "32",
        "value": "t_uint256"
      },
      "t_mapping(t_uint256,t_bool)": {
        "encoding": "mapping",
        "key": "t_uint256",
        "label": "mapping(uint256 => bool)",
        "numberOfBytes": "32",
        "value": "t_bool"
      },
      "t_struct(Market)24562_storage": {
        "encoding": "inplace",
        "label": "struct ComptrollerV1Storage.Market",
        "members": [
          {
            "astId": 24553,
            "contract": "contracts/Comptroller.sol:Comptroller",
            "label": "isListed",
            "offset": 0,
            "slot": "0",
            "type": "t_bool"
          },
          {
            "astId": 24555,
            "contract": "contracts/Comptroller.sol:Comptroller",
            "label": "collateralFactorMantissa",
            "offset": 0,
            "slot": "1",
            "type": "t_uint256"
          },
          {
            "astId": 24559,
            "contract": "contracts/Comptroller.sol:Comptroller",
            "label": "accountMembership",
            "offset": 0,
            "slot": "2",
            "type": "t_mapping(t_address,t_bool)"
          },
          {
            "astId": 24561,
            "contract": "contracts/Comptroller.sol:Comptroller",
            "label": "isVenus",
            "offset": 0,
            "slot": "3",
            "type": "t_bool"
          }
        ],
        "numberOfBytes": "128"
      },
      "t_struct(VenusMarketState)24589_storage": {
        "encoding": "inplace",
        "label": "struct ComptrollerV1Storage.VenusMarketState",
        "members": [
          {
            "astId": 24586,
            "contract": "contracts/Comptroller.sol:Comptroller",
            "label": "index",
            "offset": 0,
            "slot": "0",
            "type": "t_uint224"
          },
          {
            "astId": 24588,
            "contract": "contracts/Comptroller.sol:Comptroller",
            "label": "block",
            "offset": 28,
            "slot": "0",
            "type": "t_uint32"
          }
        ],
        "numberOfBytes": "32"
      },
      "t_uint224": {
        "encoding": "inplace",
        "label": "uint224",
        "numberOfBytes": "28"
      },
      "t_uint256": {
        "encoding": "inplace",
        "label": "uint256",
        "numberOfBytes": "32"
      },
      "t_uint32": {
        "encoding": "inplace",
        "label": "uint32",
        "numberOfBytes": "4"
      }
    }
  }
}