{
  "address": "0x8bAA6eB2FDd8582637f50d38b6a55cBA0ce07d31",
  "abi": [
    {
      "inputs": [
        {
          "internalType": "address",
          "name": "underlying_",
          "type": "address"
        },
        {
          "internalType": "contract ComptrollerInterface",
          "name": "comptroller_",
          "type": "address"
        },
        {
          "internalType": "contract InterestRateModel",
          "name": "interestRateModel_",
          "type": "address"
        },
        {
          "internalType": "uint256",
          "name": "initialExchangeRateMantissa_",
          "type": "uint256"
        },
        {
          "internalType": "string",
          "name": "name_",
          "type": "string"
        },
        {
          "internalType": "string",
          "name": "symbol_",
          "type": "string"
        },
        {
          "internalType": "uint8",
          "name": "decimals_",
          "type": "uint8"
        },
        {
          "internalType": "address payable",
          "name": "admin_",
          "type": "address"
        }
      ],
      "payable": false,
      "stateMutability": "nonpayable",
      "type": "constructor"
    },
    {
      "anonymous": false,
      "inputs": [
        {
          "indexed": false,
          "internalType": "uint256",
          "name": "cashPrior",
          "type": "uint256"
        },
        {
          "indexed": false,
          "internalType": "uint256",
          "name": "interestAccumulated",
          "type": "uint256"
        },
        {
          "indexed": false,
          "internalType": "uint256",
          "name": "borrowIndex",
          "type": "uint256"
        },
        {
          "indexed": false,
          "internalType": "uint256",
          "name": "totalBorrows",
          "type": "uint256"
        }
      ],
      "name": "AccrueInterest",
      "type": "event"
    },
    {
      "anonymous": false,
      "inputs": [
        {
          "indexed": true,
          "internalType": "address",
          "name": "owner",
          "type": "address"
        },
        {
          "indexed": true,
          "internalType": "address",
          "name": "spender",
          "type": "address"
        },
        {
          "indexed": false,
          "internalType": "uint256",
          "name": "amount",
          "type": "uint256"
        }
      ],
      "name": "Approval",
      "type": "event"
    },
    {
      "anonymous": false,
      "inputs": [
        {
          "indexed": false,
          "internalType": "address",
          "name": "borrower",
          "type": "address"
        },
        {
          "indexed": false,
          "internalType": "uint256",
          "name": "borrowAmount",
          "type": "uint256"
        },
        {
          "indexed": false,
          "internalType": "uint256",
          "name": "accountBorrows",
          "type": "uint256"
        },
        {
          "indexed": false,
          "internalType": "uint256",
          "name": "totalBorrows",
          "type": "uint256"
        }
      ],
      "name": "Borrow",
      "type": "event"
    },
    {
      "anonymous": false,
      "inputs": [
        {
          "indexed": false,
          "internalType": "uint256",
          "name": "error",
          "type": "uint256"
        },
        {
          "indexed": false,
          "internalType": "uint256",
          "name": "info",
          "type": "uint256"
        },
        {
          "indexed": false,
          "internalType": "uint256",
          "name": "detail",
          "type": "uint256"
        }
      ],
      "name": "Failure",
      "type": "event"
    },
    {
      "anonymous": false,
      "inputs": [
        {
          "indexed": false,
          "internalType": "address",
          "name": "liquidator",
          "type": "address"
        },
        {
          "indexed": false,
          "internalType": "address",
          "name": "borrower",
          "type": "address"
        },
        {
          "indexed": false,
          "internalType": "uint256",
          "name": "repayAmount",
          "type": "uint256"
        },
        {
          "indexed": false,
          "internalType": "address",
          "name": "vTokenCollateral",
          "type": "address"
        },
        {
          "indexed": false,
          "internalType": "uint256",
          "name": "seizeTokens",
          "type": "uint256"
        }
      ],
      "name": "LiquidateBorrow",
      "type": "event"
    },
    {
      "anonymous": false,
      "inputs": [
        {
          "indexed": false,
          "internalType": "address",
          "name": "minter",
          "type": "address"
        },
        {
          "indexed": false,
          "internalType": "uint256",
          "name": "mintAmount",
          "type": "uint256"
        },
        {
          "indexed": false,
          "internalType": "uint256",
          "name": "mintTokens",
          "type": "uint256"
        }
      ],
      "name": "Mint",
      "type": "event"
    },
    {
      "anonymous": false,
      "inputs": [
        {
          "indexed": false,
          "internalType": "address",
          "name": "payer",
          "type": "address"
        },
        {
          "indexed": false,
          "internalType": "address",
          "name": "receiver",
          "type": "address"
        },
        {
          "indexed": false,
          "internalType": "uint256",
          "name": "mintAmount",
          "type": "uint256"
        },
        {
          "indexed": false,
          "internalType": "uint256",
          "name": "mintTokens",
          "type": "uint256"
        }
      ],
      "name": "MintBehalf",
      "type": "event"
    },
    {
      "anonymous": false,
      "inputs": [
        {
          "indexed": false,
          "internalType": "address",
          "name": "oldAdmin",
          "type": "address"
        },
        {
          "indexed": false,
          "internalType": "address",
          "name": "newAdmin",
          "type": "address"
        }
      ],
      "name": "NewAdmin",
      "type": "event"
    },
    {
      "anonymous": false,
      "inputs": [
        {
          "indexed": false,
          "internalType": "contract ComptrollerInterface",
          "name": "oldComptroller",
          "type": "address"
        },
        {
          "indexed": false,
          "internalType": "contract ComptrollerInterface",
          "name": "newComptroller",
          "type": "address"
        }
      ],
      "name": "NewComptroller",
      "type": "event"
    },
    {
      "anonymous": false,
      "inputs": [
        {
          "indexed": false,
          "internalType": "contract InterestRateModel",
          "name": "oldInterestRateModel",
          "type": "address"
        },
        {
          "indexed": false,
          "internalType": "contract InterestRateModel",
          "name": "newInterestRateModel",
          "type": "address"
        }
      ],
      "name": "NewMarketInterestRateModel",
      "type": "event"
    },
    {
      "anonymous": false,
      "inputs": [
        {
          "indexed": false,
          "internalType": "address",
          "name": "oldPendingAdmin",
          "type": "address"
        },
        {
          "indexed": false,
          "internalType": "address",
          "name": "newPendingAdmin",
          "type": "address"
        }
      ],
      "name": "NewPendingAdmin",
      "type": "event"
    },
    {
      "anonymous": false,
      "inputs": [
        {
          "indexed": false,
          "internalType": "uint256",
          "name": "oldReserveFactorMantissa",
          "type": "uint256"
        },
        {
          "indexed": false,
          "internalType": "uint256",
          "name": "newReserveFactorMantissa",
          "type": "uint256"
        }
      ],
      "name": "NewReserveFactor",
      "type": "event"
    },
    {
      "anonymous": false,
      "inputs": [
        {
          "indexed": false,
          "internalType": "address",
          "name": "redeemer",
          "type": "address"
        },
        {
          "indexed": false,
          "internalType": "uint256",
          "name": "redeemAmount",
          "type": "uint256"
        },
        {
          "indexed": false,
          "internalType": "uint256",
          "name": "redeemTokens",
          "type": "uint256"
        }
      ],
      "name": "Redeem",
      "type": "event"
    },
    {
      "anonymous": false,
      "inputs": [
        {
          "indexed": false,
          "internalType": "address",
          "name": "redeemer",
          "type": "address"
        },
        {
          "indexed": false,
          "internalType": "uint256",
          "name": "feeAmount",
          "type": "uint256"
        },
        {
          "indexed": false,
          "internalType": "uint256",
          "name": "redeemTokens",
          "type": "uint256"
        }
      ],
      "name": "RedeemFee",
      "type": "event"
    },
    {
      "anonymous": false,
      "inputs": [
        {
          "indexed": false,
          "internalType": "address",
          "name": "payer",
          "type": "address"
        },
        {
          "indexed": false,
          "internalType": "address",
          "name": "borrower",
          "type": "address"
        },
        {
          "indexed": false,
          "internalType": "uint256",
          "name": "repayAmount",
          "type": "uint256"
        },
        {
          "indexed": false,
          "internalType": "uint256",
          "name": "accountBorrows",
          "type": "uint256"
        },
        {
          "indexed": false,
          "internalType": "uint256",
          "name": "totalBorrows",
          "type": "uint256"
        }
      ],
      "name": "RepayBorrow",
      "type": "event"
    },
    {
      "anonymous": false,
      "inputs": [
        {
          "indexed": false,
          "internalType": "address",
          "name": "benefactor",
          "type": "address"
        },
        {
          "indexed": false,
          "internalType": "uint256",
          "name": "addAmount",
          "type": "uint256"
        },
        {
          "indexed": false,
          "internalType": "uint256",
          "name": "newTotalReserves",
          "type": "uint256"
        }
      ],
      "name": "ReservesAdded",
      "type": "event"
    },
    {
      "anonymous": false,
      "inputs": [
        {
          "indexed": false,
          "internalType": "address",
          "name": "admin",
          "type": "address"
        },
        {
          "indexed": false,
          "internalType": "uint256",
          "name": "reduceAmount",
          "type": "uint256"
        },
        {
          "indexed": false,
          "internalType": "uint256",
          "name": "newTotalReserves",
          "type": "uint256"
        }
      ],
      "name": "ReservesReduced",
      "type": "event"
    },
    {
      "anonymous": false,
      "inputs": [
        {
          "indexed": true,
          "internalType": "address",
          "name": "from",
          "type": "address"
        },
        {
          "indexed": true,
          "internalType": "address",
          "name": "to",
          "type": "address"
        },
        {
          "indexed": false,
          "internalType": "uint256",
          "name": "amount",
          "type": "uint256"
        }
      ],
      "name": "Transfer",
      "type": "event"
    },
    {
      "constant": false,
      "inputs": [],
      "name": "_acceptAdmin",
      "outputs": [
        {
          "internalType": "uint256",
          "name": "",
          "type": "uint256"
        }
      ],
      "payable": false,
      "stateMutability": "nonpayable",
      "type": "function"
    },
    {
      "constant": false,
      "inputs": [
        {
          "internalType": "uint256",
          "name": "addAmount",
          "type": "uint256"
        }
      ],
      "name": "_addReserves",
      "outputs": [
        {
          "internalType": "uint256",
          "name": "",
          "type": "uint256"
        }
      ],
      "payable": false,
      "stateMutability": "nonpayable",
      "type": "function"
    },
    {
      "constant": false,
      "inputs": [
        {
          "internalType": "uint256",
          "name": "reduceAmount",
          "type": "uint256"
        }
      ],
      "name": "_reduceReserves",
      "outputs": [
        {
          "internalType": "uint256",
          "name": "",
          "type": "uint256"
        }
      ],
      "payable": false,
      "stateMutability": "nonpayable",
      "type": "function"
    },
    {
      "constant": false,
      "inputs": [
        {
          "internalType": "contract ComptrollerInterface",
          "name": "newComptroller",
          "type": "address"
        }
      ],
      "name": "_setComptroller",
      "outputs": [
        {
          "internalType": "uint256",
          "name": "",
          "type": "uint256"
        }
      ],
      "payable": false,
      "stateMutability": "nonpayable",
      "type": "function"
    },
    {
      "constant": false,
      "inputs": [
        {
          "internalType": "contract InterestRateModel",
          "name": "newInterestRateModel",
          "type": "address"
        }
      ],
      "name": "_setInterestRateModel",
      "outputs": [
        {
          "internalType": "uint256",
          "name": "",
          "type": "uint256"
        }
      ],
      "payable": false,
      "stateMutability": "nonpayable",
      "type": "function"
    },
    {
      "constant": false,
      "inputs": [
        {
          "internalType": "address payable",
          "name": "newPendingAdmin",
          "type": "address"
        }
      ],
      "name": "_setPendingAdmin",
      "outputs": [
        {
          "internalType": "uint256",
          "name": "",
          "type": "uint256"
        }
      ],
      "payable": false,
      "stateMutability": "nonpayable",
      "type": "function"
    },
    {
      "constant": false,
      "inputs": [
        {
          "internalType": "uint256",
          "name": "newReserveFactorMantissa",
          "type": "uint256"
        }
      ],
      "name": "_setReserveFactor",
      "outputs": [
        {
          "internalType": "uint256",
          "name": "",
          "type": "uint256"
        }
      ],
      "payable": false,
      "stateMutability": "nonpayable",
      "type": "function"
    },
    {
      "constant": true,
      "inputs": [],
      "name": "accrualBlockNumber",
      "outputs": [
        {
          "internalType": "uint256",
          "name": "",
          "type": "uint256"
        }
      ],
      "payable": false,
      "stateMutability": "view",
      "type": "function"
    },
    {
      "constant": false,
      "inputs": [],
      "name": "accrueInterest",
      "outputs": [
        {
          "internalType": "uint256",
          "name": "",
          "type": "uint256"
        }
      ],
      "payable": false,
      "stateMutability": "nonpayable",
      "type": "function"
    },
    {
      "constant": true,
      "inputs": [],
      "name": "admin",
      "outputs": [
        {
          "internalType": "address payable",
          "name": "",
          "type": "address"
        }
      ],
      "payable": false,
      "stateMutability": "view",
      "type": "function"
    },
    {
      "constant": true,
      "inputs": [
        {
          "internalType": "address",
          "name": "owner",
          "type": "address"
        },
        {
          "internalType": "address",
          "name": "spender",
          "type": "address"
        }
      ],
      "name": "allowance",
      "outputs": [
        {
          "internalType": "uint256",
          "name": "",
          "type": "uint256"
        }
      ],
      "payable": false,
      "stateMutability": "view",
      "type": "function"
    },
    {
      "constant": false,
      "inputs": [
        {
          "internalType": "address",
          "name": "spender",
          "type": "address"
        },
        {
          "internalType": "uint256",
          "name": "amount",
          "type": "uint256"
        }
      ],
      "name": "approve",
      "outputs": [
        {
          "internalType": "bool",
          "name": "",
          "type": "bool"
        }
      ],
      "payable": false,
      "stateMutability": "nonpayable",
      "type": "function"
    },
    {
      "constant": true,
      "inputs": [
        {
          "internalType": "address",
          "name": "owner",
          "type": "address"
        }
      ],
      "name": "balanceOf",
      "outputs": [
        {
          "internalType": "uint256",
          "name": "",
          "type": "uint256"
        }
      ],
      "payable": false,
      "stateMutability": "view",
      "type": "function"
    },
    {
      "constant": false,
      "inputs": [
        {
          "internalType": "address",
          "name": "owner",
          "type": "address"
        }
      ],
      "name": "balanceOfUnderlying",
      "outputs": [
        {
          "internalType": "uint256",
          "name": "",
          "type": "uint256"
        }
      ],
      "payable": false,
      "stateMutability": "nonpayable",
      "type": "function"
    },
    {
      "constant": false,
      "inputs": [
        {
          "internalType": "uint256",
          "name": "borrowAmount",
          "type": "uint256"
        }
      ],
      "name": "borrow",
      "outputs": [
        {
          "internalType": "uint256",
          "name": "",
          "type": "uint256"
        }
      ],
      "payable": false,
      "stateMutability": "nonpayable",
      "type": "function"
    },
    {
      "constant": false,
      "inputs": [
        {
          "internalType": "address",
          "name": "account",
          "type": "address"
        }
      ],
      "name": "borrowBalanceCurrent",
      "outputs": [
        {
          "internalType": "uint256",
          "name": "",
          "type": "uint256"
        }
      ],
      "payable": false,
      "stateMutability": "nonpayable",
      "type": "function"
    },
    {
      "constant": true,
      "inputs": [
        {
          "internalType": "address",
          "name": "account",
          "type": "address"
        }
      ],
      "name": "borrowBalanceStored",
      "outputs": [
        {
          "internalType": "uint256",
          "name": "",
          "type": "uint256"
        }
      ],
      "payable": false,
      "stateMutability": "view",
      "type": "function"
    },
    {
      "constant": true,
      "inputs": [],
      "name": "borrowIndex",
      "outputs": [
        {
          "internalType": "uint256",
          "name": "",
          "type": "uint256"
        }
      ],
      "payable": false,
      "stateMutability": "view",
      "type": "function"
    },
    {
      "constant": true,
      "inputs": [],
      "name": "borrowRatePerBlock",
      "outputs": [
        {
          "internalType": "uint256",
          "name": "",
          "type": "uint256"
        }
      ],
      "payable": false,
      "stateMutability": "view",
      "type": "function"
    },
    {
      "constant": true,
      "inputs": [],
      "name": "comptroller",
      "outputs": [
        {
          "internalType": "contract ComptrollerInterface",
          "name": "",
          "type": "address"
        }
      ],
      "payable": false,
      "stateMutability": "view",
      "type": "function"
    },
    {
      "constant": true,
      "inputs": [],
      "name": "decimals",
      "outputs": [
        {
          "internalType": "uint8",
          "name": "",
          "type": "uint8"
        }
      ],
      "payable": false,
      "stateMutability": "view",
      "type": "function"
    },
    {
      "constant": false,
      "inputs": [],
      "name": "exchangeRateCurrent",
      "outputs": [
        {
          "internalType": "uint256",
          "name": "",
          "type": "uint256"
        }
      ],
      "payable": false,
      "stateMutability": "nonpayable",
      "type": "function"
    },
    {
      "constant": true,
      "inputs": [],
      "name": "exchangeRateStored",
      "outputs": [
        {
          "internalType": "uint256",
          "name": "",
          "type": "uint256"
        }
      ],
      "payable": false,
      "stateMutability": "view",
      "type": "function"
    },
    {
      "constant": true,
      "inputs": [
        {
          "internalType": "address",
          "name": "account",
          "type": "address"
        }
      ],
      "name": "getAccountSnapshot",
      "outputs": [
        {
          "internalType": "uint256",
          "name": "",
          "type": "uint256"
        },
        {
          "internalType": "uint256",
          "name": "",
          "type": "uint256"
        },
        {
          "internalType": "uint256",
          "name": "",
          "type": "uint256"
        },
        {
          "internalType": "uint256",
          "name": "",
          "type": "uint256"
        }
      ],
      "payable": false,
      "stateMutability": "view",
      "type": "function"
    },
    {
      "constant": true,
      "inputs": [],
      "name": "getCash",
      "outputs": [
        {
          "internalType": "uint256",
          "name": "",
          "type": "uint256"
        }
      ],
      "payable": false,
      "stateMutability": "view",
      "type": "function"
    },
    {
      "constant": false,
      "inputs": [
        {
          "internalType": "address",
          "name": "underlying_",
          "type": "address"
        },
        {
          "internalType": "contract ComptrollerInterface",
          "name": "comptroller_",
          "type": "address"
        },
        {
          "internalType": "contract InterestRateModel",
          "name": "interestRateModel_",
          "type": "address"
        },
        {
          "internalType": "uint256",
          "name": "initialExchangeRateMantissa_",
          "type": "uint256"
        },
        {
          "internalType": "string",
          "name": "name_",
          "type": "string"
        },
        {
          "internalType": "string",
          "name": "symbol_",
          "type": "string"
        },
        {
          "internalType": "uint8",
          "name": "decimals_",
          "type": "uint8"
        }
      ],
      "name": "initialize",
      "outputs": [],
      "payable": false,
      "stateMutability": "nonpayable",
      "type": "function"
    },
    {
      "constant": false,
      "inputs": [
        {
          "internalType": "contract ComptrollerInterface",
          "name": "comptroller_",
          "type": "address"
        },
        {
          "internalType": "contract InterestRateModel",
          "name": "interestRateModel_",
          "type": "address"
        },
        {
          "internalType": "uint256",
          "name": "initialExchangeRateMantissa_",
          "type": "uint256"
        },
        {
          "internalType": "string",
          "name": "name_",
          "type": "string"
        },
        {
          "internalType": "string",
          "name": "symbol_",
          "type": "string"
        },
        {
          "internalType": "uint8",
          "name": "decimals_",
          "type": "uint8"
        }
      ],
      "name": "initialize",
      "outputs": [],
      "payable": false,
      "stateMutability": "nonpayable",
      "type": "function"
    },
    {
      "constant": true,
      "inputs": [],
      "name": "interestRateModel",
      "outputs": [
        {
          "internalType": "contract InterestRateModel",
          "name": "",
          "type": "address"
        }
      ],
      "payable": false,
      "stateMutability": "view",
      "type": "function"
    },
    {
      "constant": true,
      "inputs": [],
      "name": "isVToken",
      "outputs": [
        {
          "internalType": "bool",
          "name": "",
          "type": "bool"
        }
      ],
      "payable": false,
      "stateMutability": "view",
      "type": "function"
    },
    {
      "constant": false,
      "inputs": [
        {
          "internalType": "address",
          "name": "borrower",
          "type": "address"
        },
        {
          "internalType": "uint256",
          "name": "repayAmount",
          "type": "uint256"
        },
        {
          "internalType": "contract VTokenInterface",
          "name": "vTokenCollateral",
          "type": "address"
        }
      ],
      "name": "liquidateBorrow",
      "outputs": [
        {
          "internalType": "uint256",
          "name": "",
          "type": "uint256"
        }
      ],
      "payable": false,
      "stateMutability": "nonpayable",
      "type": "function"
    },
    {
      "constant": false,
      "inputs": [
        {
          "internalType": "uint256",
          "name": "mintAmount",
          "type": "uint256"
        }
      ],
      "name": "mint",
      "outputs": [
        {
          "internalType": "uint256",
          "name": "",
          "type": "uint256"
        }
      ],
      "payable": false,
      "stateMutability": "nonpayable",
      "type": "function"
    },
    {
      "constant": false,
      "inputs": [
        {
          "internalType": "address",
          "name": "receiver",
          "type": "address"
        },
        {
          "internalType": "uint256",
          "name": "mintAmount",
          "type": "uint256"
        }
      ],
      "name": "mintBehalf",
      "outputs": [
        {
          "internalType": "uint256",
          "name": "",
          "type": "uint256"
        }
      ],
      "payable": false,
      "stateMutability": "nonpayable",
      "type": "function"
    },
    {
      "constant": true,
      "inputs": [],
      "name": "name",
      "outputs": [
        {
          "internalType": "string",
          "name": "",
          "type": "string"
        }
      ],
      "payable": false,
      "stateMutability": "view",
      "type": "function"
    },
    {
      "constant": true,
      "inputs": [],
      "name": "pendingAdmin",
      "outputs": [
        {
          "internalType": "address payable",
          "name": "",
          "type": "address"
        }
      ],
      "payable": false,
      "stateMutability": "view",
      "type": "function"
    },
    {
      "constant": false,
      "inputs": [
        {
          "internalType": "uint256",
          "name": "redeemTokens",
          "type": "uint256"
        }
      ],
      "name": "redeem",
      "outputs": [
        {
          "internalType": "uint256",
          "name": "",
          "type": "uint256"
        }
      ],
      "payable": false,
      "stateMutability": "nonpayable",
      "type": "function"
    },
    {
      "constant": false,
      "inputs": [
        {
          "internalType": "uint256",
          "name": "redeemAmount",
          "type": "uint256"
        }
      ],
      "name": "redeemUnderlying",
      "outputs": [
        {
          "internalType": "uint256",
          "name": "",
          "type": "uint256"
        }
      ],
      "payable": false,
      "stateMutability": "nonpayable",
      "type": "function"
    },
    {
      "constant": false,
      "inputs": [
        {
          "internalType": "uint256",
          "name": "repayAmount",
          "type": "uint256"
        }
      ],
      "name": "repayBorrow",
      "outputs": [
        {
          "internalType": "uint256",
          "name": "",
          "type": "uint256"
        }
      ],
      "payable": false,
      "stateMutability": "nonpayable",
      "type": "function"
    },
    {
      "constant": false,
      "inputs": [
        {
          "internalType": "address",
          "name": "borrower",
          "type": "address"
        },
        {
          "internalType": "uint256",
          "name": "repayAmount",
          "type": "uint256"
        }
      ],
      "name": "repayBorrowBehalf",
      "outputs": [
        {
          "internalType": "uint256",
          "name": "",
          "type": "uint256"
        }
      ],
      "payable": false,
      "stateMutability": "nonpayable",
      "type": "function"
    },
    {
      "constant": true,
      "inputs": [],
      "name": "reserveFactorMantissa",
      "outputs": [
        {
          "internalType": "uint256",
          "name": "",
          "type": "uint256"
        }
      ],
      "payable": false,
      "stateMutability": "view",
      "type": "function"
    },
    {
      "constant": false,
      "inputs": [
        {
          "internalType": "address",
          "name": "liquidator",
          "type": "address"
        },
        {
          "internalType": "address",
          "name": "borrower",
          "type": "address"
        },
        {
          "internalType": "uint256",
          "name": "seizeTokens",
          "type": "uint256"
        }
      ],
      "name": "seize",
      "outputs": [
        {
          "internalType": "uint256",
          "name": "",
          "type": "uint256"
        }
      ],
      "payable": false,
      "stateMutability": "nonpayable",
      "type": "function"
    },
    {
      "constant": true,
      "inputs": [],
      "name": "supplyRatePerBlock",
      "outputs": [
        {
          "internalType": "uint256",
          "name": "",
          "type": "uint256"
        }
      ],
      "payable": false,
      "stateMutability": "view",
      "type": "function"
    },
    {
      "constant": true,
      "inputs": [],
      "name": "symbol",
      "outputs": [
        {
          "internalType": "string",
          "name": "",
          "type": "string"
        }
      ],
      "payable": false,
      "stateMutability": "view",
      "type": "function"
    },
    {
      "constant": true,
      "inputs": [],
      "name": "totalBorrows",
      "outputs": [
        {
          "internalType": "uint256",
          "name": "",
          "type": "uint256"
        }
      ],
      "payable": false,
      "stateMutability": "view",
      "type": "function"
    },
    {
      "constant": false,
      "inputs": [],
      "name": "totalBorrowsCurrent",
      "outputs": [
        {
          "internalType": "uint256",
          "name": "",
          "type": "uint256"
        }
      ],
      "payable": false,
      "stateMutability": "nonpayable",
      "type": "function"
    },
    {
      "constant": true,
      "inputs": [],
      "name": "totalReserves",
      "outputs": [
        {
          "internalType": "uint256",
          "name": "",
          "type": "uint256"
        }
      ],
      "payable": false,
      "stateMutability": "view",
      "type": "function"
    },
    {
      "constant": true,
      "inputs": [],
      "name": "totalSupply",
      "outputs": [
        {
          "internalType": "uint256",
          "name": "",
          "type": "uint256"
        }
      ],
      "payable": false,
      "stateMutability": "view",
      "type": "function"
    },
    {
      "constant": false,
      "inputs": [
        {
          "internalType": "address",
          "name": "dst",
          "type": "address"
        },
        {
          "internalType": "uint256",
          "name": "amount",
          "type": "uint256"
        }
      ],
      "name": "transfer",
      "outputs": [
        {
          "internalType": "bool",
          "name": "",
          "type": "bool"
        }
      ],
      "payable": false,
      "stateMutability": "nonpayable",
      "type": "function"
    },
    {
      "constant": false,
      "inputs": [
        {
          "internalType": "address",
          "name": "src",
          "type": "address"
        },
        {
          "internalType": "address",
          "name": "dst",
          "type": "address"
        },
        {
          "internalType": "uint256",
          "name": "amount",
          "type": "uint256"
        }
      ],
      "name": "transferFrom",
      "outputs": [
        {
          "internalType": "bool",
          "name": "",
          "type": "bool"
        }
      ],
      "payable": false,
      "stateMutability": "nonpayable",
      "type": "function"
    },
    {
      "constant": true,
      "inputs": [],
      "name": "underlying",
      "outputs": [
        {
          "internalType": "address",
          "name": "",
          "type": "address"
        }
      ],
      "payable": false,
      "stateMutability": "view",
      "type": "function"
    }
  ],
  "transactionHash": "0xc637d9ed5594a8481e9dfe7c8633ab462e27ffb9f95484273f8035d3d23c7447",
  "args": [
    "0xd9267eDd6cA4582d0713d8977ef80eB4e0A491A6",
    "0xb65b8F3b08DF73350c11EAA76DdED3cd506A0D32",
    "0xCD7A7337D3bD0406d07523911be3655248Ad5313",
    "2000000000000000000",
    "Venus USDC",
    "vUSDC",
    18,
    "0xAA2867301B5cd587Ce3Fb0effC571e87B273E7bB"
  ],
  "numDeployments": 1,
  "solcInputHash": "424a2eb7ba7544c90693bf2d5e9578fa",
  "bytecode": "0x60806040523480156200001157600080fd5b506040516200606d3803806200606d83398181016040526101008110156200003857600080fd5b81516020830151604080850151606086015160808701805193519597949692959194919392820192846401000000008211156200007457600080fd5b9083019060208201858111156200008a57600080fd5b8251640100000000811182820188101715620000a557600080fd5b82525081516020918201929091019080838360005b83811015620000d4578181015183820152602001620000ba565b50505050905090810190601f168015620001025780820380516001836020036101000a031916815260200191505b50604052602001805160405193929190846401000000008211156200012657600080fd5b9083019060208201858111156200013c57600080fd5b82516401000000008111828201881017156200015757600080fd5b82525081516020918201929091019080838360005b83811015620001865781810151838201526020016200016c565b50505050905090810190601f168015620001b45780820380516001836020036101000a031916815260200191505b506040908152602082015191015160038054610100600160a81b03191633610100021790559092509050620001ef8888888888888862000223565b600380546001600160a01b0390921661010002610100600160a81b0319909216919091179055506200090d95505050505050565b6200023e868686868686620002d260201b620012ba1760201c565b601180546001600160a01b0319166001600160a01b038981169190911791829055604080516318160ddd60e01b8152905192909116916318160ddd91600480820192602092909190829003018186803b1580156200029b57600080fd5b505afa158015620002b0573d6000803e3d6000fd5b505050506040513d6020811015620002c757600080fd5b505050505050505050565b60035461010090046001600160a01b03163314620003225760405162461bcd60e51b815260040180806020018281038252602481526020018062005fd46024913960400191505060405180910390fd5b600954158015620003335750600a54155b620003705760405162461bcd60e51b815260040180806020018281038252602381526020018062005ff86023913960400191505060405180910390fd5b600784905583620003b35760405162461bcd60e51b81526004018080602001828103825260308152602001806200601b6030913960400191505060405180910390fd5b6000620003c9876001600160e01b03620004e816565b905080156200041f576040805162461bcd60e51b815260206004820152601a60248201527f73657474696e6720636f6d7074726f6c6c6572206661696c6564000000000000604482015290519081900360640190fd5b620004326001600160e01b036200065016565b600955670de0b6b3a7640000600a5562000455866001600160e01b036200065516565b90508015620004965760405162461bcd60e51b81526004018080602001828103825260228152602001806200604b6022913960400191505060405180910390fd5b8351620004ab9060019060208701906200086b565b508251620004c19060029060208601906200086b565b50506003805460ff90921660ff199283161790556000805490911660011790555050505050565b60035460009061010090046001600160a01b0316331462000522576200051a6001603f6001600160e01b03620007fb16565b90506200064b565b60055460408051623f1ee960e11b815290516001600160a01b0392831692851691627e3dd2916004808301926020929190829003018186803b1580156200056857600080fd5b505afa1580156200057d573d6000803e3d6000fd5b505050506040513d60208110156200059457600080fd5b5051620005e8576040805162461bcd60e51b815260206004820152601c60248201527f6d61726b6572206d6574686f642072657475726e65642066616c736500000000604482015290519081900360640190fd5b600580546001600160a01b0319166001600160a01b03858116918217909255604080519284168352602083019190915280517f7ac369dbd14fa5ea3f473ed67cc9d598964a77501540ba6751eb0b3decf5870d9281900390910190a160005b9150505b919050565b435b90565b600354600090819061010090046001600160a01b03163314620006925762000689600160426001600160e01b03620007fb16565b9150506200064b565b620006a56001600160e01b036200065016565b60095414620006c55762000689600a60416001600160e01b03620007fb16565b600660009054906101000a90046001600160a01b03169050826001600160a01b0316632191f92a6040518163ffffffff1660e01b815260040160206040518083038186803b1580156200071757600080fd5b505afa1580156200072c573d6000803e3d6000fd5b505050506040513d60208110156200074357600080fd5b505162000797576040805162461bcd60e51b815260206004820152601c60248201527f6d61726b6572206d6574686f642072657475726e65642066616c736500000000604482015290519081900360640190fd5b600680546001600160a01b0319166001600160a01b03858116918217909255604080519284168352602083019190915280517fedffc32e068c7c95dfd4bdfd5c4d939a084d6b11c4199eac8436ed234d72f9269281900390910190a1600062000647565b60007f45b96fe442630264581b197e84bbada861235052c5a1aadfff9ea4e40a969aa08360118111156200082b57fe5b8360568111156200083857fe5b604080519283526020830191909152600082820152519081900360600190a18260118111156200086457fe5b9392505050565b828054600181600116156101000203166002900490600052602060002090601f016020900481019282601f10620008ae57805160ff1916838001178555620008de565b82800160010185558215620008de579182015b82811115620008de578251825591602001919060010190620008c1565b50620008ec929150620008f0565b5090565b6200065291905b80821115620008ec5760008155600101620008f7565b6156b7806200091d6000396000f3fe608060405234801561001057600080fd5b50600436106102bb5760003560e01c806373acee9811610182578063b71d1a0c116100e9578063e9c714f2116100a2578063f5e3c4621161007c578063f5e3c46214610a46578063f851a44014610a7c578063f8f9da2814610a84578063fca7820b14610a8c576102bb565b8063e9c714f214610a10578063f2b3abbd14610a18578063f3fdb15a14610a3e576102bb565b8063b71d1a0c1461092e578063bd6d894d14610954578063c37f68e21461095c578063c5ebeaec146109a8578063db006a75146109c5578063dd62ed3e146109e2576102bb565b8063a0712d681161013b578063a0712d6814610897578063a6afed95146108b4578063a9059cbb146108bc578063aa5af0fd146108e8578063ae9d70b0146108f0578063b2a02ff1146108f8576102bb565b806373acee98146106ee578063852a12e3146106f65780638f840ddd1461071357806395d89b411461071b57806395dd91931461072357806399d8c1b414610749576102bb565b8063313ce5671161022657806347bd3718116101df57806347bd37181461068b5780635fe3b56714610693578063601a0bf11461069b5780636c540baf146106b85780636f307dc3146106c057806370a08231146106c8576102bb565b8063313ce567146105f45780633af9e669146106125780633b1d21a2146106385780633d9ea3a1146106405780633e941010146106485780634576b5db14610665576102bb565b8063182df0f511610278578063182df0f5146103e25780631a31d465146103ea57806323323e031461054257806323b872dd1461056e5780632608f818146105a457806326782247146105d0576102bb565b806306fdde03146102c0578063095ea7b31461033d5780630e7527021461037d578063173b9904146103ac57806317bfdfbc146103b457806318160ddd146103da575b600080fd5b6102c8610aa9565b6040805160208082528351818301528351919283929083019185019080838360005b838110156103025781810151838201526020016102ea565b50505050905090810190601f16801561032f5780820380516001836020036101000a031916815260200191505b509250505060405180910390f35b6103696004803603604081101561035357600080fd5b506001600160a01b038135169060200135610b36565b604080519115158252519081900360200190f35b61039a6004803603602081101561039357600080fd5b5035610ba3565b60408051918252519081900360200190f35b61039a610bb9565b61039a600480360360208110156103ca57600080fd5b50356001600160a01b0316610bbf565b61039a610c7f565b61039a610c85565b610540600480360360e081101561040057600080fd5b6001600160a01b03823581169260208101358216926040820135909216916060820135919081019060a081016080820135600160201b81111561044257600080fd5b82018360208201111561045457600080fd5b803590602001918460018302840111600160201b8311171561047557600080fd5b91908080601f0160208091040260200160405190810160405280939291908181526020018383808284376000920191909152509295949360208101935035915050600160201b8111156104c757600080fd5b8201836020820111156104d957600080fd5b803590602001918460018302840111600160201b831117156104fa57600080fd5b91908080601f0160208091040260200160405190810160405280939291908181526020018383808284376000920191909152509295505050903560ff169150610ce89050565b005b61039a6004803603604081101561055857600080fd5b506001600160a01b038135169060200135610d87565b6103696004803603606081101561058457600080fd5b506001600160a01b03813581169160208101359091169060400135610d9d565b61039a600480360360408110156105ba57600080fd5b506001600160a01b038135169060200135610e0f565b6105d8610e1c565b604080516001600160a01b039092168252519081900360200190f35b6105fc610e2b565b6040805160ff9092168252519081900360200190f35b61039a6004803603602081101561062857600080fd5b50356001600160a01b0316610e34565b61039a610eea565b610369610ef9565b61039a6004803603602081101561065e57600080fd5b5035610efe565b61039a6004803603602081101561067b57600080fd5b50356001600160a01b0316610f09565b61039a61105e565b6105d8611064565b61039a600480360360208110156106b157600080fd5b5035611073565b61039a61110e565b6105d8611114565b61039a600480360360208110156106de57600080fd5b50356001600160a01b0316611123565b61039a61113e565b61039a6004803603602081101561070c57600080fd5b50356111f4565b61039a6111ff565b6102c8611205565b61039a6004803603602081101561073957600080fd5b50356001600160a01b031661125d565b610540600480360360c081101561075f57600080fd5b6001600160a01b03823581169260208101359091169160408201359190810190608081016060820135600160201b81111561079957600080fd5b8201836020820111156107ab57600080fd5b803590602001918460018302840111600160201b831117156107cc57600080fd5b91908080601f0160208091040260200160405190810160405280939291908181526020018383808284376000920191909152509295949360208101935035915050600160201b81111561081e57600080fd5b82018360208201111561083057600080fd5b803590602001918460018302840111600160201b8311171561085157600080fd5b91908080601f0160208091040260200160405190810160405280939291908181526020018383808284376000920191909152509295505050903560ff1691506112ba9050565b61039a600480360360208110156108ad57600080fd5b50356114a1565b61039a6114ad565b610369600480360360408110156108d257600080fd5b506001600160a01b038135169060200135611805565b61039a611876565b61039a61187c565b61039a6004803603606081101561090e57600080fd5b506001600160a01b0381358116916020810135909116906040013561191b565b61039a6004803603602081101561094457600080fd5b50356001600160a01b031661198c565b61039a611a18565b6109826004803603602081101561097257600080fd5b50356001600160a01b0316611ad4565b604080519485526020850193909352838301919091526060830152519081900360800190f35b61039a600480360360208110156109be57600080fd5b5035611b69565b61039a600480360360208110156109db57600080fd5b5035611b74565b61039a600480360360408110156109f857600080fd5b506001600160a01b0381358116916020013516611b7f565b61039a611baa565b61039a60048036036020811015610a2e57600080fd5b50356001600160a01b0316611ca2565b6105d8611cdc565b61039a60048036036060811015610a5c57600080fd5b506001600160a01b03813581169160208101359160409091013516611ceb565b6105d8611d03565b61039a611d17565b61039a60048036036020811015610aa257600080fd5b5035611d7b565b60018054604080516020600284861615610100026000190190941693909304601f81018490048402820184019092528181529291830182828015610b2e5780601f10610b0357610100808354040283529160200191610b2e565b820191906000526020600020905b815481529060010190602001808311610b1157829003601f168201915b505050505081565b336000818152600f602090815260408083206001600160a01b03871680855290835281842086905581518681529151939493909284927f8c5be1e5ebec7d5bd14f71427d1e84f3dd0314c0f7b2291e5b200ac8c7c3b925929081900390910190a360019150505b92915050565b600080610baf83611df9565b509150505b919050565b60085481565b6000805460ff16610c04576040805162461bcd60e51b815260206004820152600a6024820152691c994b595b9d195c995960b21b604482015290519081900360640190fd5b6000805460ff19168155610c166114ad565b14610c61576040805162461bcd60e51b81526020600482015260166024820152751858d8dc9d59481a5b9d195c995cdd0819985a5b195960521b604482015290519081900360640190fd5b610c6a8261125d565b90505b6000805460ff19166001179055919050565b600d5481565b6000806000610c92611ea2565b90925090506000826003811115610ca557fe5b14610ce15760405162461bcd60e51b81526004018080602001828103825260358152602001806155f26035913960400191505060405180910390fd5b9150505b90565b610cf68686868686866112ba565b601180546001600160a01b0319166001600160a01b038981169190911791829055604080516318160ddd60e01b8152905192909116916318160ddd91600480820192602092909190829003018186803b158015610d5257600080fd5b505afa158015610d66573d6000803e3d6000fd5b505050506040513d6020811015610d7c57600080fd5b505050505050505050565b600080610d948484611f51565b50949350505050565b6000805460ff16610de2576040805162461bcd60e51b815260206004820152600a6024820152691c994b595b9d195c995960b21b604482015290519081900360640190fd5b6000805460ff19168155610df833868686611ffc565b1490506000805460ff191660011790559392505050565b600080610d94848461230a565b6004546001600160a01b031681565b60035460ff1681565b6000610e3e6152e7565b6040518060200160405280610e51611a18565b90526001600160a01b0384166000908152600e6020526040812054919250908190610e7d90849061238c565b90925090506000826003811115610e9057fe5b14610ee2576040805162461bcd60e51b815260206004820152601f60248201527f62616c616e636520636f756c64206e6f742062652063616c63756c6174656400604482015290519081900360640190fd5b949350505050565b6000610ef46123e0565b905090565b600181565b6000610b9d82612460565b60035460009061010090046001600160a01b03163314610f3657610f2f6001603f6124f4565b9050610bb4565b60055460408051623f1ee960e11b815290516001600160a01b0392831692851691627e3dd2916004808301926020929190829003018186803b158015610f7b57600080fd5b505afa158015610f8f573d6000803e3d6000fd5b505050506040513d6020811015610fa557600080fd5b5051610ff8576040805162461bcd60e51b815260206004820152601c60248201527f6d61726b6572206d6574686f642072657475726e65642066616c736500000000604482015290519081900360640190fd5b600580546001600160a01b0319166001600160a01b03858116918217909255604080519284168352602083019190915280517f7ac369dbd14fa5ea3f473ed67cc9d598964a77501540ba6751eb0b3decf5870d9281900390910190a160005b9392505050565b600b5481565b6005546001600160a01b031681565b6000805460ff166110b8576040805162461bcd60e51b815260206004820152600a6024820152691c994b595b9d195c995960b21b604482015290519081900360640190fd5b6000805460ff191681556110ca6114ad565b905080156110f0576110e88160118111156110e157fe5b60306124f4565b915050610c6d565b6110f98361255a565b9150506000805460ff19166001179055919050565b60095481565b6011546001600160a01b031681565b6001600160a01b03166000908152600e602052604090205490565b6000805460ff16611183576040805162461bcd60e51b815260206004820152600a6024820152691c994b595b9d195c995960b21b604482015290519081900360640190fd5b6000805460ff191681556111956114ad565b146111e0576040805162461bcd60e51b81526020600482015260166024820152751858d8dc9d59481a5b9d195c995cdd0819985a5b195960521b604482015290519081900360640190fd5b50600b546000805460ff1916600117905590565b6000610b9d8261264e565b600c5481565b6002805460408051602060018416156101000260001901909316849004601f81018490048402820184019092528181529291830182828015610b2e5780601f10610b0357610100808354040283529160200191610b2e565b600080600061126b846126cf565b9092509050600082600381111561127e57fe5b146110575760405162461bcd60e51b81526004018080602001828103825260378152602001806154fd6037913960400191505060405180910390fd5b60035461010090046001600160a01b031633146113085760405162461bcd60e51b81526004018080602001828103825260248152602001806154396024913960400191505060405180910390fd5b6009541580156113185750600a54155b6113535760405162461bcd60e51b815260040180806020018281038252602381526020018061545d6023913960400191505060405180910390fd5b6007849055836113945760405162461bcd60e51b81526004018080602001828103825260308152602001806154806030913960400191505060405180910390fd5b600061139f87610f09565b905080156113f4576040805162461bcd60e51b815260206004820152601a60248201527f73657474696e6720636f6d7074726f6c6c6572206661696c6564000000000000604482015290519081900360640190fd5b6113fc612783565b600955670de0b6b3a7640000600a5561141486612787565b905080156114535760405162461bcd60e51b81526004018080602001828103825260228152602001806154b06022913960400191505060405180910390fd5b83516114669060019060208701906152fa565b50825161147a9060029060208601906152fa565b50506003805460ff90921660ff199283161790556000805490911660011790555050505050565b600080610baf836128fc565b6000806114b8612783565b600954909150808214156114d157600092505050610ce5565b60006114db6123e0565b600b54600c54600a54600654604080516315f2405360e01b815260048101879052602481018690526044810185905290519596509394929391926000926001600160a01b03909216916315f24053916064808301926020929190829003018186803b15801561154957600080fd5b505afa15801561155d573d6000803e3d6000fd5b505050506040513d602081101561157357600080fd5b5051905065048c273950008111156115d2576040805162461bcd60e51b815260206004820152601c60248201527f626f72726f772072617465206973206162737572646c79206869676800000000604482015290519081900360640190fd5b6000806115df8989612976565b909250905060008260038111156115f257fe5b14611644576040805162461bcd60e51b815260206004820152601f60248201527f636f756c64206e6f742063616c63756c61746520626c6f636b2064656c746100604482015290519081900360640190fd5b61164c6152e7565b60008060008061166a60405180602001604052808a81525087612999565b9097509450600087600381111561167d57fe5b146116af5761169a6009600689600381111561169557fe5b612a01565b9e505050505050505050505050505050610ce5565b6116b9858c61238c565b909750935060008760038111156116cc57fe5b146116e45761169a6009600189600381111561169557fe5b6116ee848c612a67565b9097509250600087600381111561170157fe5b146117195761169a6009600489600381111561169557fe5b6117346040518060200160405280600854815250858c612a8d565b9097509150600087600381111561174757fe5b1461175f5761169a6009600589600381111561169557fe5b61176a858a8b612a8d565b9097509050600087600381111561177d57fe5b146117955761169a6009600389600381111561169557fe5b60098e9055600a819055600b839055600c829055604080518d8152602081018690528082018390526060810185905290517f4dec04e750ca11537cabcd8a9eab06494de08da3735bc8871cd41250e190bc049181900360800190a160009e50505050505050505050505050505090565b6000805460ff1661184a576040805162461bcd60e51b815260206004820152600a6024820152691c994b595b9d195c995960b21b604482015290519081900360640190fd5b6000805460ff1916815561186033338686611ffc565b1490506000805460ff1916600117905592915050565b600a5481565b6006546000906001600160a01b031663b81688166118986123e0565b600b54600c546008546040518563ffffffff1660e01b81526004018085815260200184815260200183815260200182815260200194505050505060206040518083038186803b1580156118ea57600080fd5b505afa1580156118fe573d6000803e3d6000fd5b505050506040513d602081101561191457600080fd5b5051905090565b6000805460ff16611960576040805162461bcd60e51b815260206004820152600a6024820152691c994b595b9d195c995960b21b604482015290519081900360640190fd5b6000805460ff1916905561197633858585612ae9565b90506000805460ff191660011790559392505050565b60035460009061010090046001600160a01b031633146119b257610f2f600160456124f4565b600480546001600160a01b038481166001600160a01b0319831681179093556040805191909216808252602082019390935281517fca4f2f25d0898edd99413412fb94012f9e54ec8142f9b093e7720646a95b16a9929181900390910190a16000611057565b6000805460ff16611a5d576040805162461bcd60e51b815260206004820152600a6024820152691c994b595b9d195c995960b21b604482015290519081900360640190fd5b6000805460ff19168155611a6f6114ad565b14611aba576040805162461bcd60e51b81526020600482015260166024820152751858d8dc9d59481a5b9d195c995cdd0819985a5b195960521b604482015290519081900360640190fd5b611ac2610c85565b90506000805460ff1916600117905590565b6001600160a01b0381166000908152600e6020526040812054819081908190818080611aff896126cf565b935090506000816003811115611b1157fe5b14611b2f5760095b975060009650869550859450611b629350505050565b611b37611ea2565b925090506000816003811115611b4957fe5b14611b55576009611b19565b5060009650919450925090505b9193509193565b6000610b9d82612d4f565b6000610b9d82612dce565b6001600160a01b039182166000908152600f6020908152604080832093909416825291909152205490565b6004546000906001600160a01b03163314611bd257611bcb600160006124f4565b9050610ce5565b60038054600480546001600160a01b03818116610100818102610100600160a81b0319871617968790556001600160a01b031990931690935560408051948390048216808652929095041660208401528351909391927ff9ffabca9c8276e99321725bcb43fb076a6c66a54b7f21c4e8146d8519b417dc92908290030190a1600454604080516001600160a01b038085168252909216602083015280517fca4f2f25d0898edd99413412fb94012f9e54ec8142f9b093e7720646a95b16a99281900390910190a160009250505090565b600080611cad6114ad565b90508015611cd357611ccb816011811115611cc457fe5b60406124f4565b915050610bb4565b61105783612787565b6006546001600160a01b031681565b600080611cf9858585612e48565b5095945050505050565b60035461010090046001600160a01b031681565b6006546000906001600160a01b03166315f24053611d336123e0565b600b54600c546040518463ffffffff1660e01b815260040180848152602001838152602001828152602001935050505060206040518083038186803b1580156118ea57600080fd5b6000805460ff16611dc0576040805162461bcd60e51b815260206004820152600a6024820152691c994b595b9d195c995960b21b604482015290519081900360640190fd5b6000805460ff19168155611dd26114ad565b90508015611df0576110e8816011811115611de957fe5b60466124f4565b6110f983612f7a565b60008054819060ff16611e40576040805162461bcd60e51b815260206004820152600a6024820152691c994b595b9d195c995960b21b604482015290519081900360640190fd5b6000805460ff19168155611e526114ad565b90508015611e7d57611e70816011811115611e6957fe5b60366124f4565b925060009150611e8e9050565b611e88333386613022565b92509250505b6000805460ff191660011790559092909150565b600d54600090819080611ebd57505060075460009150611f4d565b6000611ec76123e0565b90506000611ed36152e7565b6000611ee484600b54600c54613407565b935090506000816003811115611ef657fe5b14611f0b57955060009450611f4d9350505050565b611f158386613445565b925090506000816003811115611f2757fe5b14611f3c57955060009450611f4d9350505050565b5051600095509350611f4d92505050565b9091565b60008054819060ff16611f98576040805162461bcd60e51b815260206004820152600a6024820152691c994b595b9d195c995960b21b604482015290519081900360640190fd5b6000805460ff19168155611faa6114ad565b90508015611fd557611fc8816011811115611fc157fe5b601e6124f4565b925060009150611fe69050565b611fe03386866134f5565b92509250505b6000805460ff1916600117905590939092509050565b600554604080516317b9b84b60e31b81523060048201526001600160a01b03868116602483015285811660448301526064820185905291516000938493169163bdcdc25891608480830192602092919082900301818787803b15801561206157600080fd5b505af1158015612075573d6000803e3d6000fd5b505050506040513d602081101561208b57600080fd5b5051905080156120aa576120a26003604a83612a01565b915050610ee2565b836001600160a01b0316856001600160a01b031614156120d0576120a26002604b6124f4565b60006001600160a01b0387811690871614156120ef5750600019612117565b506001600160a01b038086166000908152600f60209081526040808320938a16835292905220545b6000806000806121278589612976565b9094509250600084600381111561213a57fe5b146121585761214b6009604b6124f4565b9650505050505050610ee2565b6001600160a01b038a166000908152600e602052604090205461217b9089612976565b9094509150600084600381111561218e57fe5b1461219f5761214b6009604c6124f4565b6001600160a01b0389166000908152600e60205260409020546121c29089612a67565b909450905060008460038111156121d557fe5b146121e65761214b6009604d6124f4565b6001600160a01b03808b166000908152600e6020526040808220859055918b16815220819055600019851461223e576001600160a01b03808b166000908152600f60209081526040808320938f168352929052208390555b886001600160a01b03168a6001600160a01b031660008051602061556e8339815191528a6040518082815260200191505060405180910390a36005546040805163352b4a3f60e11b81523060048201526001600160a01b038d811660248301528c81166044830152606482018c905291519190921691636a56947e91608480830192600092919082900301818387803b1580156122da57600080fd5b505af11580156122ee573d6000803e3d6000fd5b50600092506122fb915050565b9b9a5050505050505050505050565b60008054819060ff16612351576040805162461bcd60e51b815260206004820152600a6024820152691c994b595b9d195c995960b21b604482015290519081900360640190fd5b6000805460ff191681556123636114ad565b9050801561238157611fc881601181111561237a57fe5b60356124f4565b611fe0338686613022565b60008060006123996152e7565b6123a38686612999565b909250905060008260038111156123b657fe5b146123c757509150600090506123d9565b60006123d282613981565b9350935050505b9250929050565b601154604080516370a0823160e01b815230600482015290516000926001600160a01b03169182916370a0823191602480820192602092909190829003018186803b15801561242e57600080fd5b505afa158015612442573d6000803e3d6000fd5b505050506040513d602081101561245857600080fd5b505191505090565b6000805460ff166124a5576040805162461bcd60e51b815260206004820152600a6024820152691c994b595b9d195c995960b21b604482015290519081900360640190fd5b6000805460ff191681556124b76114ad565b905080156124d5576110e88160118111156124ce57fe5b604e6124f4565b6124de83613990565b509150506000805460ff19166001179055919050565b60007f45b96fe442630264581b197e84bbada861235052c5a1aadfff9ea4e40a969aa083601181111561252357fe5b83605681111561252f57fe5b604080519283526020830191909152600082820152519081900360600190a182601181111561105757fe5b600354600090819061010090046001600160a01b0316331461258257611ccb600160316124f4565b61258a612783565b6009541461259e57611ccb600a60336124f4565b826125a76123e0565b10156125b957611ccb600e60326124f4565b600c548311156125cf57611ccb600260346124f4565b50600c8054839003908190556003546125f69061010090046001600160a01b031684613a78565b600354604080516101009092046001600160a01b0316825260208201859052818101839052517f3bad0c59cf2f06e7314077049f48a93578cd16f5ef92329f1dab1420a99c177e916060908290030190a16000611057565b6000805460ff16612693576040805162461bcd60e51b815260206004820152600a6024820152691c994b595b9d195c995960b21b604482015290519081900360640190fd5b6000805460ff191681556126a56114ad565b905080156126c3576110e88160118111156126bc57fe5b60276124f4565b6110f933600085613b6f565b6001600160a01b03811660009081526010602052604081208054829182918291829161270657506000945084935061277e92505050565b6127168160000154600a546142ea565b9094509250600084600381111561272957fe5b1461273e57509193506000925061277e915050565b61274c838260010154614329565b9094509150600084600381111561275f57fe5b1461277457509193506000925061277e915050565b5060009450925050505b915091565b4390565b600354600090819061010090046001600160a01b031633146127af57611ccb600160426124f4565b6127b7612783565b600954146127cb57611ccb600a60416124f4565b600660009054906101000a90046001600160a01b03169050826001600160a01b0316632191f92a6040518163ffffffff1660e01b815260040160206040518083038186803b15801561281c57600080fd5b505afa158015612830573d6000803e3d6000fd5b505050506040513d602081101561284657600080fd5b5051612899576040805162461bcd60e51b815260206004820152601c60248201527f6d61726b6572206d6574686f642072657475726e65642066616c736500000000604482015290519081900360640190fd5b600680546001600160a01b0319166001600160a01b03858116918217909255604080519284168352602083019190915280517fedffc32e068c7c95dfd4bdfd5c4d939a084d6b11c4199eac8436ed234d72f9269281900390910190a16000611057565b60008054819060ff16612943576040805162461bcd60e51b815260206004820152600a6024820152691c994b595b9d195c995960b21b604482015290519081900360640190fd5b6000805460ff191681556129556114ad565b9050801561296c57611e70816011811115611fc157fe5b611e883385614354565b60008083831161298d5750600090508183036123d9565b506003905060006123d9565b60006129a36152e7565b6000806129b48660000151866142ea565b909250905060008260038111156129c757fe5b146129e6575060408051602081019091526000815290925090506123d9565b60408051602081019091529081526000969095509350505050565b60007f45b96fe442630264581b197e84bbada861235052c5a1aadfff9ea4e40a969aa0846011811115612a3057fe5b846056811115612a3c57fe5b604080519283526020830191909152818101859052519081900360600190a1836011811115610ee257fe5b600080838301848110612a7f576000925090506123d9565b5060029150600090506123d9565b6000806000612a9a6152e7565b612aa48787612999565b90925090506000826003811115612ab757fe5b14612ac85750915060009050612ae1565b612ada612ad482613981565b86612a67565b9350935050505b935093915050565b6005546040805163d02f735160e01b81523060048201526001600160a01b038781166024830152868116604483015285811660648301526084820185905291516000938493169163d02f73519160a480830192602092919082900301818787803b158015612b5657600080fd5b505af1158015612b6a573d6000803e3d6000fd5b505050506040513d6020811015612b8057600080fd5b505190508015612b97576120a26003601b83612a01565b846001600160a01b0316846001600160a01b03161415612bbd576120a26006601c6124f4565b6001600160a01b0384166000908152600e602052604081205481908190612be49087612976565b90935091506000836003811115612bf757fe5b14612c1a57612c0f6009601a85600381111561169557fe5b945050505050610ee2565b6001600160a01b0388166000908152600e6020526040902054612c3d9087612a67565b90935090506000836003811115612c5057fe5b14612c6857612c0f6009601985600381111561169557fe5b6001600160a01b038088166000818152600e60209081526040808320879055938c168083529184902085905583518a81529351919360008051602061556e833981519152929081900390910190a360055460408051636d35bf9160e01b81523060048201526001600160a01b038c811660248301528b811660448301528a81166064830152608482018a905291519190921691636d35bf919160a480830192600092919082900301818387803b158015612d2157600080fd5b505af1158015612d35573d6000803e3d6000fd5b5060009250612d42915050565b9998505050505050505050565b6000805460ff16612d94576040805162461bcd60e51b815260206004820152600a6024820152691c994b595b9d195c995960b21b604482015290519081900360640190fd5b6000805460ff19168155612da66114ad565b90508015612dc4576110e8816011811115612dbd57fe5b60086124f4565b6110f9338461479b565b6000805460ff16612e13576040805162461bcd60e51b815260206004820152600a6024820152691c994b595b9d195c995960b21b604482015290519081900360640190fd5b6000805460ff19168155612e256114ad565b90508015612e3c576110e88160118111156126bc57fe5b6110f933846000613b6f565b60008054819060ff16612e8f576040805162461bcd60e51b815260206004820152600a6024820152691c994b595b9d195c995960b21b604482015290519081900360640190fd5b6000805460ff19168155612ea16114ad565b90508015612ecc57612ebf816011811115612eb857fe5b600f6124f4565b925060009150612f639050565b836001600160a01b031663a6afed956040518163ffffffff1660e01b8152600401602060405180830381600087803b158015612f0757600080fd5b505af1158015612f1b573d6000803e3d6000fd5b505050506040513d6020811015612f3157600080fd5b505190508015612f5157612ebf816011811115612f4a57fe5b60106124f4565b612f5d33878787614aa9565b92509250505b6000805460ff191660011790559094909350915050565b60035460009061010090046001600160a01b03163314612fa057610f2f600160476124f4565b612fa8612783565b60095414612fbc57610f2f600a60486124f4565b670de0b6b3a7640000821115612fd857610f2f600260496124f4565b6008805490839055604080518281526020810185905281517faaa68312e2ea9d50e16af5068410ab56e1a1fd06037b1a35664812c30f821460929181900390910190a16000611057565b60055460408051631200453160e11b81523060048201526001600160a01b0386811660248301528581166044830152606482018590529151600093849384939116916324008a629160848082019260209290919082900301818787803b15801561308b57600080fd5b505af115801561309f573d6000803e3d6000fd5b505050506040513d60208110156130b557600080fd5b5051905080156130d9576130cc6003603883612a01565b925060009150612ae19050565b6130e1612783565b600954146130f5576130cc600a60396124f4565b6130fd615378565b6001600160a01b0386166000908152601060205260409020600101546060820152613127866126cf565b608083018190526020830182600381111561313e57fe5b600381111561314957fe5b905250600090508160200151600381111561316057fe5b1461318a5761317c600960378360200151600381111561169557fe5b935060009250612ae1915050565b6000198514156131a357608081015160408201526131ab565b604081018590525b6131b987826040015161502c565b60e0820181905260808201516131ce91612976565b60a08301819052602083018260038111156131e557fe5b60038111156131f057fe5b905250600090508160200151600381111561320757fe5b146132435760405162461bcd60e51b815260040180806020018281038252603a815260200180615534603a913960400191505060405180910390fd5b613253600b548260e00151612976565b60c083018190526020830182600381111561326a57fe5b600381111561327557fe5b905250600090508160200151600381111561328c57fe5b146132c85760405162461bcd60e51b815260040180806020018281038252603181526020018061558e6031913960400191505060405180910390fd5b60a080820180516001600160a01b03808a16600081815260106020908152604091829020948555600a5460019095019490945560c0870151600b81905560e088015195518251948f16855294840192909252828101949094526060820192909252608081019190915290517f1a2a22cb034d26d1854bdc6666a5b91fe25efbbb5dcad3b0355478d6f5c362a1929181900390910190a160055460e0820151606083015160408051631ededc9160e01b81523060048201526001600160a01b038c811660248301528b8116604483015260648201949094526084810192909252519190921691631ededc919160a480830192600092919082900301818387803b1580156133d357600080fd5b505af11580156133e7573d6000803e3d6000fd5b50600092506133f4915050565b8160e00151935093505050935093915050565b6000806000806134178787612a67565b9092509050600082600381111561342a57fe5b1461343b5750915060009050612ae1565b612ada8186612976565b600061344f6152e7565b60008061346486670de0b6b3a76400006142ea565b9092509050600082600381111561347757fe5b14613496575060408051602081019091526000815290925090506123d9565b6000806134a38388614329565b909250905060008260038111156134b657fe5b146134d8575060408051602081019091526000815290945092506123d9915050565b604080516020810190915290815260009890975095505050505050565b6000806001600160a01b038416613549576040805162461bcd60e51b81526020600482015260136024820152721c9958d95a5d995c881a5cc81a5b9d985b1a59606a1b604482015290519081900360640190fd5b60055460408051634ef4c3e160e01b81523060048201526001600160a01b0387811660248301526044820187905291516000939290921691634ef4c3e19160648082019260209290919082900301818787803b1580156135a857600080fd5b505af11580156135bc573d6000803e3d6000fd5b505050506040513d60208110156135d257600080fd5b5051905080156135e9576130cc6003601f83612a01565b6135f1612783565b60095414613605576130cc600a60226124f4565b61360d6153be565b613615611ea2565b602083018190528282600381111561362957fe5b600381111561363457fe5b905250600090508151600381111561364857fe5b146136645761317c600960218360000151600381111561169557fe5b61366e878661502c565b60a082018190526040805160208082019092529083015181526136919190615276565b60408301819052828260038111156136a557fe5b60038111156136b057fe5b90525060009050815160038111156136c457fe5b14613716576040805162461bcd60e51b815260206004820181905260248201527f4d494e545f45584348414e47455f43414c43554c4154494f4e5f4641494c4544604482015290519081900360640190fd5b613726600d548260400151612a67565b606083018190528282600381111561373a57fe5b600381111561374557fe5b905250600090508151600381111561375957fe5b146137955760405162461bcd60e51b81526004018080602001828103825260288152602001806156276028913960400191505060405180910390fd5b6001600160a01b0386166000908152600e60205260409081902054908201516137be9190612a67565b60808301819052828260038111156137d257fe5b60038111156137dd57fe5b90525060009050815160038111156137f157fe5b1461382d5760405162461bcd60e51b815260040180806020018281038252602b8152602001806154d2602b913960400191505060405180910390fd5b606080820151600d556080808301516001600160a01b03808a166000818152600e60209081526040918290209490945560a0870151818801518251948f16855294840192909252828101919091529381019190915291517f297989b84a5f5b82d2ee0c266504c19bd9b10b410f187dc72ca4b0f0faecb3459281900390910190a1604080820151815190815290516001600160a01b03881691309160008051602061556e8339815191529181900360200190a360055460a082015160408084015181516341c728b960e01b81523060048201526001600160a01b038b8116602483015260448201949094526064810191909152905191909216916341c728b991608480830192600092919082900301818387803b15801561394d57600080fd5b505af1158015613961573d6000803e3d6000fd5b506000925061396e915050565b8160a00151935093505050935093915050565b51670de0b6b3a7640000900490565b60008060008061399e612783565b600954146139bd576139b2600a604f6124f4565b9350915061277e9050565b6139c7338661502c565b905080600c54019150600c54821015613a27576040805162461bcd60e51b815260206004820181905260248201527f61646420726573657276657320756e6578706563746564206f766572666c6f77604482015290519081900360640190fd5b600c829055604080513381526020810183905280820184905290517fa91e67c5ea634cd43a12c5a482724b03de01e85ca68702a53d0c2f45cb7c1dc59181900360600190a160009350915050915091565b6011546040805163a9059cbb60e01b81526001600160a01b0385811660048301526024820185905291519190921691829163a9059cbb9160448082019260009290919082900301818387803b158015613ad057600080fd5b505af1158015613ae4573d6000803e3d6000fd5b5050505060003d60008114613b005760208114613b0a57600080fd5b6000199150613b16565b60206000803e60005191505b5080613b69576040805162461bcd60e51b815260206004820152601960248201527f544f4b454e5f5452414e534645525f4f55545f4641494c454400000000000000604482015290519081900360640190fd5b50505050565b6000821580613b7c575081155b613bb75760405162461bcd60e51b815260040180806020018281038252603481526020018061564f6034913960400191505060405180910390fd5b613bbf6153be565b613bc7611ea2565b6020830181905282826003811115613bdb57fe5b6003811115613be657fe5b9052506000905081516003811115613bfa57fe5b14613c1e57613c166009602b8360000151600381111561169557fe5b915050611057565b8315613c9a57604080820185905280516020808201909252908201518152613c46908561238c565b6060830181905282826003811115613c5a57fe5b6003811115613c6557fe5b9052506000905081516003811115613c7957fe5b14613c9557613c16600960298360000151600381111561169557fe5b613d0d565b613cb68360405180602001604052808460200151815250615276565b6040830181905282826003811115613cca57fe5b6003811115613cd557fe5b9052506000905081516003811115613ce957fe5b14613d0557613c166009602a8360000151600381111561169557fe5b606081018390525b600554604080830151815163eabe7d9160e01b81523060048201526001600160a01b03898116602483015260448201929092529151600093919091169163eabe7d9191606480830192602092919082900301818787803b158015613d7057600080fd5b505af1158015613d84573d6000803e3d6000fd5b505050506040513d6020811015613d9a57600080fd5b505190508015613dba57613db16003602883612a01565b92505050611057565b613dc2612783565b60095414613dd657613db1600a602c6124f4565b613de6600d548360400151612976565b6080840181905283826003811115613dfa57fe5b6003811115613e0557fe5b9052506000905082516003811115613e1957fe5b14613e3557613db16009602e8460000151600381111561169557fe5b6001600160a01b0386166000908152600e6020526040908190205490830151613e5e9190612976565b60a0840181905283826003811115613e7257fe5b6003811115613e7d57fe5b9052506000905082516003811115613e9157fe5b14613ead57613db16009602d8460000151600381111561169557fe5b8160600151613eba6123e0565b1015613ecc57613db1600e602f6124f4565b600080600560009054906101000a90046001600160a01b03166001600160a01b03166304ef9d586040518163ffffffff1660e01b815260040160206040518083038186803b158015613f1d57600080fd5b505afa158015613f31573d6000803e3d6000fd5b505050506040513d6020811015613f4757600080fd5b5051156141a157606084015160055460408051629df3ab60e31b81529051613fca93926001600160a01b0316916304ef9d58916004808301926020929190829003018186803b158015613f9957600080fd5b505afa158015613fad573d6000803e3d6000fd5b505050506040513d6020811015613fc357600080fd5b50516142ea565b92508285826003811115613fda57fe5b6003811115613fe557fe5b9052506000905084516003811115613ff957fe5b1461402057614015600960568660000151600381111561169557fe5b945050505050611057565b61403282670de0b6b3a7640000614329565b9250828582600381111561404257fe5b600381111561404d57fe5b905250600090508451600381111561406157fe5b1461407d57614015600960568660000151600381111561169557fe5b61408b846060015183612976565b9150818582600381111561409b57fe5b60038111156140a657fe5b90525060009050845160038111156140ba57fe5b146140d657614015600960568660000151600381111561169557fe5b6005546040805163c5f956af60e01b8152905161414e926001600160a01b03169163c5f956af916004808301926020929190829003018186803b15801561411c57600080fd5b505afa158015614130573d6000803e3d6000fd5b505050506040513d602081101561414657600080fd5b505183613a78565b60408085015181516001600160a01b038b168152602081018590528083019190915290517fccf8e53b86a99b7e9ecf796342c165764d66154780f638c08e6241d711fba6d49181900360600190a16141a8565b5060608301515b6141b28882613a78565b6080840151600d5560a08401516001600160a01b0389166000818152600e6020908152604091829020939093558087015181519081529051309360008051602061556e833981519152928290030190a360408085015181516001600160a01b038b168152602081018490528083019190915290517fe5b754fb1abb7f01b499791d0b820ae3b6af3424ac1c59768edb53f4ec31a9299181900360600190a1600554606085015160408087015181516351dff98960e01b81523060048201526001600160a01b038d8116602483015260448201949094526064810191909152905191909216916351dff98991608480830192600092919082900301818387803b1580156142bd57600080fd5b505af11580156142d1573d6000803e3d6000fd5b50600092506142de915050565b98975050505050505050565b600080836142fd575060009050806123d9565b8383028385828161430a57fe5b041461431e575060029150600090506123d9565b6000925090506123d9565b6000808261433d57506001905060006123d9565b600083858161434857fe5b04915091509250929050565b60055460408051634ef4c3e160e01b81523060048201526001600160a01b03858116602483015260448201859052915160009384938493911691634ef4c3e19160648082019260209290919082900301818787803b1580156143b557600080fd5b505af11580156143c9573d6000803e3d6000fd5b505050506040513d60208110156143df57600080fd5b505190508015614403576143f66003601f83612a01565b9250600091506123d99050565b61440b612783565b6009541461441f576143f6600a60226124f4565b6144276153be565b61442f611ea2565b602083018190528282600381111561444357fe5b600381111561444e57fe5b905250600090508151600381111561446257fe5b1461448c5761447e600960218360000151600381111561169557fe5b9350600092506123d9915050565b614496868661502c565b60a082018190526040805160208082019092529083015181526144b99190615276565b60408301819052828260038111156144cd57fe5b60038111156144d857fe5b90525060009050815160038111156144ec57fe5b1461453e576040805162461bcd60e51b815260206004820181905260248201527f4d494e545f45584348414e47455f43414c43554c4154494f4e5f4641494c4544604482015290519081900360640190fd5b61454e600d548260400151612a67565b606083018190528282600381111561456257fe5b600381111561456d57fe5b905250600090508151600381111561458157fe5b146145bd5760405162461bcd60e51b81526004018080602001828103825260288152602001806156276028913960400191505060405180910390fd5b6001600160a01b0386166000908152600e60205260409081902054908201516145e69190612a67565b60808301819052828260038111156145fa57fe5b600381111561460557fe5b905250600090508151600381111561461957fe5b146146555760405162461bcd60e51b815260040180806020018281038252602b8152602001806154d2602b913960400191505060405180910390fd5b606080820151600d5560808201516001600160a01b0388166000818152600e60209081526040918290209390935560a0850151818601518251938452938301528181019290925290517f4c209b5fc8ad50758f13e2e1088ba56a560dff690a1c6fef26394f4c03821c4f929181900390910190a1604080820151815190815290516001600160a01b03881691309160008051602061556e8339815191529181900360200190a360055460a082015160408084015181516341c728b960e01b81523060048201526001600160a01b038b8116602483015260448201949094526064810191909152905191909216916341c728b991608480830192600092919082900301818387803b15801561476857600080fd5b505af115801561477c573d6000803e3d6000fd5b5060009250614789915050565b8160a001519350935050509250929050565b6005546040805163368f515360e21b81523060048201526001600160a01b0385811660248301526044820185905291516000938493169163da3d454c91606480830192602092919082900301818787803b1580156147f857600080fd5b505af115801561480c573d6000803e3d6000fd5b505050506040513d602081101561482257600080fd5b505190508015614841576148396003600e83612a01565b915050610b9d565b614849612783565b6009541461485c57614839600a806124f4565b826148656123e0565b101561487757614839600e60096124f4565b61487f6153f5565b614888856126cf565b602083018190528282600381111561489c57fe5b60038111156148a757fe5b90525060009050815160038111156148bb57fe5b146148e0576148d7600960078360000151600381111561169557fe5b92505050610b9d565b6148ee816020015185612a67565b604083018190528282600381111561490257fe5b600381111561490d57fe5b905250600090508151600381111561492157fe5b1461493d576148d76009600c8360000151600381111561169557fe5b614949600b5485612a67565b606083018190528282600381111561495d57fe5b600381111561496857fe5b905250600090508151600381111561497c57fe5b14614998576148d76009600b8360000151600381111561169557fe5b6149a28585613a78565b604080820180516001600160a01b03881660008181526010602090815290859020928355600a54600190930192909255606080860151600b81905593518551928352928201899052818501929092529081019190915290517f13ed6866d4e1ee6da46f845c46d7e54120883d75c5ea9a2dacc1c4ca8984ab809181900360800190a160055460408051635c77860560e01b81523060048201526001600160a01b0388811660248301526044820188905291519190921691635c77860591606480830192600092919082900301818387803b158015614a7f57600080fd5b505af1158015614a93573d6000803e3d6000fd5b5060009250614aa0915050565b95945050505050565b60055460408051632fe3f38f60e11b81523060048201526001600160a01b0384811660248301528781166044830152868116606483015260848201869052915160009384938493911691635fc7e71e9160a48082019260209290919082900301818787803b158015614b1a57600080fd5b505af1158015614b2e573d6000803e3d6000fd5b505050506040513d6020811015614b4457600080fd5b505190508015614b6857614b5b6003601283612a01565b9250600091506150239050565b614b70612783565b60095414614b8457614b5b600a60166124f4565b614b8c612783565b846001600160a01b0316636c540baf6040518163ffffffff1660e01b815260040160206040518083038186803b158015614bc557600080fd5b505afa158015614bd9573d6000803e3d6000fd5b505050506040513d6020811015614bef57600080fd5b505114614c0257614b5b600a60116124f4565b866001600160a01b0316866001600160a01b03161415614c2857614b5b600660176124f4565b84614c3957614b5b600760156124f4565b600019851415614c4f57614b5b600760146124f4565b600080614c5d898989613022565b90925090508115614c8d57614c7e826011811115614c7757fe5b60186124f4565b94506000935061502392505050565b6005546040805163c488847b60e01b81523060048201526001600160a01b038981166024830152604482018590528251600094859492169263c488847b926064808301939192829003018186803b158015614ce757600080fd5b505afa158015614cfb573d6000803e3d6000fd5b505050506040513d6040811015614d1157600080fd5b50805160209091015190925090508115614d5c5760405162461bcd60e51b81526004018080602001828103825260338152602001806155bf6033913960400191505060405180910390fd5b80886001600160a01b03166370a082318c6040518263ffffffff1660e01b815260040180826001600160a01b03166001600160a01b0316815260200191505060206040518083038186803b158015614db357600080fd5b505afa158015614dc7573d6000803e3d6000fd5b505050506040513d6020811015614ddd57600080fd5b50511015614e32576040805162461bcd60e51b815260206004820152601860248201527f4c49515549444154455f5345495a455f544f4f5f4d5543480000000000000000604482015290519081900360640190fd5b60006001600160a01b038916301415614e5857614e51308d8d85612ae9565b9050614ee2565b6040805163b2a02ff160e01b81526001600160a01b038e811660048301528d81166024830152604482018590529151918b169163b2a02ff1916064808201926020929091908290030181600087803b158015614eb357600080fd5b505af1158015614ec7573d6000803e3d6000fd5b505050506040513d6020811015614edd57600080fd5b505190505b8015614f2c576040805162461bcd60e51b81526020600482015260146024820152731d1bdad95b881cd95a5e9d5c994819985a5b195960621b604482015290519081900360640190fd5b604080516001600160a01b03808f168252808e1660208301528183018790528b1660608201526080810184905290517f298637f684da70674f26509b10f07ec2fbc77a335ab1e7d6215a4b2484d8bb529181900360a00190a1600554604080516347ef3b3b60e01b81523060048201526001600160a01b038c811660248301528f811660448301528e811660648301526084820188905260a48201869052915191909216916347ef3b3b9160c480830192600092919082900301818387803b158015614ff757600080fd5b505af115801561500b573d6000803e3d6000fd5b5060009250615018915050565b975092955050505050505b94509492505050565b601154604080516370a0823160e01b815230600482015290516000926001600160a01b031691839183916370a08231916024808301926020929190829003018186803b15801561507b57600080fd5b505afa15801561508f573d6000803e3d6000fd5b505050506040513d60208110156150a557600080fd5b5051604080516323b872dd60e01b81526001600160a01b038881166004830152306024830152604482018890529151929350908416916323b872dd9160648082019260009290919082900301818387803b15801561510257600080fd5b505af1158015615116573d6000803e3d6000fd5b5050505060003d60008114615132576020811461513c57600080fd5b6000199150615148565b60206000803e60005191505b508061519b576040805162461bcd60e51b815260206004820152601860248201527f544f4b454e5f5452414e534645525f494e5f4641494c45440000000000000000604482015290519081900360640190fd5b601154604080516370a0823160e01b815230600482015290516000926001600160a01b0316916370a08231916024808301926020929190829003018186803b1580156151e657600080fd5b505afa1580156151fa573d6000803e3d6000fd5b505050506040513d602081101561521057600080fd5b5051905082811015615269576040805162461bcd60e51b815260206004820152601a60248201527f544f4b454e5f5452414e534645525f494e5f4f564552464c4f57000000000000604482015290519081900360640190fd5b9190910395945050505050565b60008060006152836152e7565b6123a3868660006152926152e7565b6000806152a7670de0b6b3a7640000876142ea565b909250905060008260038111156152ba57fe5b146152d9575060408051602081019091526000815290925090506123d9565b6123d2818660000151613445565b6040518060200160405280600081525090565b828054600181600116156101000203166002900490600052602060002090601f016020900481019282601f1061533b57805160ff1916838001178555615368565b82800160010185558215615368579182015b8281111561536857825182559160200191906001019061534d565b5061537492915061541e565b5090565b6040805161010081019091528060008152602001600081526020016000815260200160008152602001600081526020016000815260200160008152602001600081525090565b6040805160c08101909152806000815260200160008152602001600081526020016000815260200160008152602001600081525090565b604080516080810190915280600081526020016000815260200160008152602001600081525090565b610ce591905b80821115615374576000815560010161542456fe6f6e6c792061646d696e206d617920696e697469616c697a6520746865206d61726b65746d61726b6574206d6179206f6e6c7920626520696e697469616c697a6564206f6e6365696e697469616c2065786368616e67652072617465206d7573742062652067726561746572207468616e207a65726f2e73657474696e6720696e7465726573742072617465206d6f64656c206661696c65644d494e545f4e45575f4143434f554e545f42414c414e43455f43414c43554c4154494f4e5f4641494c4544626f72726f7742616c616e636553746f7265643a20626f72726f7742616c616e636553746f726564496e7465726e616c206661696c656452455041595f424f52524f575f4e45575f4143434f554e545f424f52524f575f42414c414e43455f43414c43554c4154494f4e5f4641494c4544ddf252ad1be2c89b69c2b068fc378daa952ba7f163c4a11628f55a4df523b3ef52455041595f424f52524f575f4e45575f544f54414c5f42414c414e43455f43414c43554c4154494f4e5f4641494c45444c49515549444154455f434f4d5054524f4c4c45525f43414c43554c4154455f414d4f554e545f5345495a455f4641494c454465786368616e67655261746553746f7265643a2065786368616e67655261746553746f726564496e7465726e616c206661696c65644d494e545f4e45575f544f54414c5f535550504c595f43414c43554c4154494f4e5f4641494c45446f6e65206f662072656465656d546f6b656e73496e206f722072656465656d416d6f756e74496e206d757374206265207a65726fa265627a7a7231582009b772c70ce91d76286101b13a6e4c127e52732a904ee96cacd19652f86d757d64736f6c634300051000326f6e6c792061646d696e206d617920696e697469616c697a6520746865206d61726b65746d61726b6574206d6179206f6e6c7920626520696e697469616c697a6564206f6e6365696e697469616c2065786368616e67652072617465206d7573742062652067726561746572207468616e207a65726f2e73657474696e6720696e7465726573742072617465206d6f64656c206661696c6564",
  "devdoc": {
    "author": "Venus",
    "methods": {
      "_acceptAdmin()": {
        "details": "Admin function for pending admin to accept role and update admin",
        "return": "uint 0=success, otherwise a failure (see ErrorReporter.sol for details)"
      },
      "_addReserves(uint256)": {
        "params": {
          "addAmount": "The amount fo underlying token to add as reserves"
        },
        "return": "uint 0=success, otherwise a failure (see ErrorReporter.sol for details)"
      },
      "_reduceReserves(uint256)": {
        "params": {
          "reduceAmount": "Amount of reduction to reserves"
        },
        "return": "uint 0=success, otherwise a failure (see ErrorReporter.sol for details)"
      },
      "_setComptroller(address)": {
        "details": "Admin function to set a new comptroller",
        "return": "uint 0=success, otherwise a failure (see ErrorReporter.sol for details)"
      },
      "_setInterestRateModel(address)": {
        "details": "Admin function to accrue interest and update the interest rate model",
        "params": {
          "newInterestRateModel": "the new interest rate model to use"
        },
        "return": "uint 0=success, otherwise a failure (see ErrorReporter.sol for details)"
      },
      "_setPendingAdmin(address)": {
        "details": "Admin function to begin change of admin. The newPendingAdmin must call `_acceptAdmin` to finalize the transfer.",
        "params": {
          "newPendingAdmin": "New pending admin."
        },
        "return": "uint 0=success, otherwise a failure (see ErrorReporter.sol for details)"
      },
      "_setReserveFactor(uint256)": {
        "details": "Admin function to accrue interest and set a new reserve factor",
        "return": "uint 0=success, otherwise a failure (see ErrorReporter.sol for details)"
      },
      "accrueInterest()": {
        "details": "This calculates interest accrued from the last checkpointed block  up to the current block and writes new checkpoint to storage."
      },
      "allowance(address,address)": {
        "params": {
          "owner": "The address of the account which owns the tokens to be spent",
          "spender": "The address of the account which may transfer tokens"
        },
        "return": "The number of tokens allowed to be spent (-1 means infinite)"
      },
      "approve(address,uint256)": {
        "details": "This will overwrite the approval amount for `spender` and is subject to issues noted [here](https://eips.ethereum.org/EIPS/eip-20#approve)",
        "params": {
          "amount": "The number of tokens that are approved (-1 means infinite)",
          "spender": "The address of the account which may transfer tokens"
        },
        "return": "Whether or not the approval succeeded"
      },
      "balanceOf(address)": {
        "params": {
          "owner": "The address of the account to query"
        },
        "return": "The number of tokens owned by `owner`"
      },
      "balanceOfUnderlying(address)": {
        "details": "This also accrues interest in a transaction",
        "params": {
          "owner": "The address of the account to query"
        },
        "return": "The amount of underlying owned by `owner`"
      },
      "borrow(uint256)": {
        "params": {
          "borrowAmount": "The amount of the underlying asset to borrow"
        },
        "return": "uint 0=success, otherwise a failure (see ErrorReporter.sol for details)"
      },
      "borrowBalanceCurrent(address)": {
        "params": {
          "account": "The address whose balance should be calculated after updating borrowIndex"
        },
        "return": "The calculated balance"
      },
      "borrowBalanceStored(address)": {
        "params": {
          "account": "The address whose balance should be calculated"
        },
        "return": "The calculated balance"
      },
      "borrowRatePerBlock()": {
        "return": "The borrow interest rate per block, scaled by 1e18"
      },
      "constructor": {
        "params": {
          "admin_": "Address of the administrator of this token",
          "comptroller_": "The address of the Comptroller",
          "decimals_": "BEP-20 decimal precision of this token",
          "initialExchangeRateMantissa_": "The initial exchange rate, scaled by 1e18",
          "interestRateModel_": "The address of the interest rate model",
          "name_": "BEP-20 name of this token",
          "symbol_": "BEP-20 symbol of this token",
          "underlying_": "The address of the underlying asset"
        }
      },
      "exchangeRateCurrent()": {
        "return": "Calculated exchange rate scaled by 1e18"
      },
      "exchangeRateStored()": {
        "details": "This function does not accrue interest before calculating the exchange rate",
        "return": "Calculated exchange rate scaled by 1e18"
      },
      "getAccountSnapshot(address)": {
        "details": "This is used by comptroller to more efficiently perform liquidity checks.",
        "params": {
          "account": "Address of the account to snapshot"
        },
        "return": "(possible error, token balance, borrow balance, exchange rate mantissa)"
      },
      "getCash()": {
        "return": "The quantity of underlying asset owned by this contract"
      },
      "initialize(address,address,address,uint256,string,string,uint8)": {
        "params": {
          "comptroller_": "The address of the Comptroller",
          "decimals_": "BEP-20 decimal precision of this token",
          "initialExchangeRateMantissa_": "The initial exchange rate, scaled by 1e18",
          "interestRateModel_": "The address of the interest rate model",
          "name_": "BEP-20 name of this token",
          "symbol_": "BEP-20 symbol of this token",
          "underlying_": "The address of the underlying asset"
        }
      },
      "initialize(address,address,uint256,string,string,uint8)": {
        "params": {
          "comptroller_": "The address of the Comptroller",
          "decimals_": "EIP-20 decimal precision of this token",
          "initialExchangeRateMantissa_": "The initial exchange rate, scaled by 1e18",
          "interestRateModel_": "The address of the interest rate model",
          "name_": "EIP-20 name of this token",
          "symbol_": "EIP-20 symbol of this token"
        }
      },
      "liquidateBorrow(address,uint256,address)": {
        "params": {
          "borrower": "The borrower of this vToken to be liquidated",
          "repayAmount": "The amount of the underlying borrowed asset to repay",
          "vTokenCollateral": "The market in which to seize collateral from the borrower"
        },
        "return": "uint 0=success, otherwise a failure (see ErrorReporter.sol for details)"
      },
      "mint(uint256)": {
        "details": "Accrues interest whether or not the operation succeeds, unless reverted",
        "params": {
          "mintAmount": "The amount of the underlying asset to supply"
        },
        "return": "uint 0=success, otherwise a failure (see ErrorReporter.sol for details)"
      },
      "mintBehalf(address,uint256)": {
        "details": "Accrues interest whether or not the operation succeeds, unless reverted",
        "params": {
          "mintAmount": "The amount of the underlying asset to supply",
          "receiver": "the account which is receiving the vTokens"
        },
        "return": "uint 0=success, otherwise a failure (see ErrorReporter.sol for details)"
      },
      "redeem(uint256)": {
        "details": "Accrues interest whether or not the operation succeeds, unless reverted",
        "params": {
          "redeemTokens": "The number of vTokens to redeem into underlying"
        },
        "return": "uint 0=success, otherwise a failure (see ErrorReporter.sol for details)"
      },
      "redeemUnderlying(uint256)": {
        "details": "Accrues interest whether or not the operation succeeds, unless reverted",
        "params": {
          "redeemAmount": "The amount of underlying to redeem"
        },
        "return": "uint 0=success, otherwise a failure (see ErrorReporter.sol for details)"
      },
      "repayBorrow(uint256)": {
        "params": {
          "repayAmount": "The amount to repay"
        },
        "return": "uint 0=success, otherwise a failure (see ErrorReporter.sol for details)"
      },
      "repayBorrowBehalf(address,uint256)": {
        "params": {
          "borrower": "the account with the debt being payed off",
          "repayAmount": "The amount to repay"
        },
        "return": "uint 0=success, otherwise a failure (see ErrorReporter.sol for details)"
      },
      "seize(address,address,uint256)": {
        "details": "Will fail unless called by another vToken during the process of liquidation. Its absolutely critical to use msg.sender as the borrowed vToken and not a parameter.",
        "params": {
          "borrower": "The account having collateral seized",
          "liquidator": "The account receiving seized collateral",
          "seizeTokens": "The number of vTokens to seize"
        },
        "return": "uint 0=success, otherwise a failure (see ErrorReporter.sol for details)"
      },
      "supplyRatePerBlock()": {
        "return": "The supply interest rate per block, scaled by 1e18"
      },
      "totalBorrowsCurrent()": {
        "return": "The total borrows with interest"
      },
      "transfer(address,uint256)": {
        "params": {
          "amount": "The number of tokens to transfer",
          "dst": "The address of the destination account"
        },
        "return": "Whether or not the transfer succeeded"
      },
      "transferFrom(address,address,uint256)": {
        "params": {
          "amount": "The number of tokens to transfer",
          "dst": "The address of the destination account",
          "src": "The address of the source account"
        },
        "return": "Whether or not the transfer succeeded"
      }
    },
    "title": "Venus's VBep20Immutable Contract"
  },
  "userdoc": {
    "methods": {
      "_acceptAdmin()": {
        "notice": "Accepts transfer of admin rights. msg.sender must be pendingAdmin"
      },
      "_addReserves(uint256)": {
        "notice": "The sender adds to reserves."
      },
      "_reduceReserves(uint256)": {
        "notice": "Accrues interest and reduces reserves by transferring to admin"
      },
      "_setComptroller(address)": {
        "notice": "Sets a new comptroller for the market"
      },
      "_setInterestRateModel(address)": {
        "notice": "accrues interest and updates the interest rate model using _setInterestRateModelFresh"
      },
      "_setPendingAdmin(address)": {
        "notice": "Begins transfer of admin rights. The newPendingAdmin must call `_acceptAdmin` to finalize the transfer."
      },
      "_setReserveFactor(uint256)": {
        "notice": "accrues interest and sets a new reserve factor for the protocol using _setReserveFactorFresh"
      },
      "accrueInterest()": {
        "notice": "Applies accrued interest to total borrows and reserves"
      },
      "allowance(address,address)": {
        "notice": "Get the current allowance from `owner` for `spender`"
      },
      "approve(address,uint256)": {
        "notice": "Approve `spender` to transfer up to `amount` from `src`"
      },
      "balanceOf(address)": {
        "notice": "Get the token balance of the `owner`"
      },
      "balanceOfUnderlying(address)": {
        "notice": "Get the underlying balance of the `owner`"
      },
      "borrow(uint256)": {
        "notice": "Sender borrows assets from the protocol to their own address"
      },
      "borrowBalanceCurrent(address)": {
        "notice": "Accrue interest to updated borrowIndex and then calculate account's borrow balance using the updated borrowIndex"
      },
      "borrowBalanceStored(address)": {
        "notice": "Return the borrow balance of account based on stored data"
      },
      "borrowRatePerBlock()": {
        "notice": "Returns the current per-block borrow interest rate for this vToken"
      },
      "constructor": "Construct a new money market",
      "exchangeRateCurrent()": {
        "notice": "Accrue interest then return the up-to-date exchange rate"
      },
      "exchangeRateStored()": {
        "notice": "Calculates the exchange rate from the underlying to the VToken"
      },
      "getAccountSnapshot(address)": {
        "notice": "Get a snapshot of the account's balances, and the cached exchange rate"
      },
      "getCash()": {
        "notice": "Get cash balance of this vToken in the underlying asset"
      },
      "initialize(address,address,address,uint256,string,string,uint8)": {
        "notice": "Initialize the new money market"
      },
      "initialize(address,address,uint256,string,string,uint8)": {
        "notice": "Initialize the money market"
      },
      "liquidateBorrow(address,uint256,address)": {
        "notice": "The sender liquidates the borrowers collateral. The collateral seized is transferred to the liquidator."
      },
      "mint(uint256)": {
        "notice": "Sender supplies assets into the market and receives vTokens in exchange"
      },
      "mintBehalf(address,uint256)": {
        "notice": "Sender supplies assets into the market and receiver receives vTokens in exchange"
      },
      "redeem(uint256)": {
        "notice": "Sender redeems vTokens in exchange for the underlying asset"
      },
      "redeemUnderlying(uint256)": {
        "notice": "Sender redeems vTokens in exchange for a specified amount of underlying asset"
      },
      "repayBorrow(uint256)": {
        "notice": "Sender repays their own borrow"
      },
      "repayBorrowBehalf(address,uint256)": {
        "notice": "Sender repays a borrow belonging to borrower"
      },
      "seize(address,address,uint256)": {
        "notice": "Transfers collateral tokens (this market) to the liquidator."
      },
      "supplyRatePerBlock()": {
        "notice": "Returns the current per-block supply interest rate for this vToken"
      },
      "totalBorrowsCurrent()": {
        "notice": "Returns the current total borrows plus accrued interest"
      },
      "transfer(address,uint256)": {
        "notice": "Transfer `amount` tokens from `msg.sender` to `dst`"
      },
      "transferFrom(address,address,uint256)": {
        "notice": "Transfer `amount` tokens from `src` to `dst`"
      }
    },
    "notice": "VTokens which wrap an EIP-20 underlying and are immutable"
  },
  "storageLayout": {
    "storage": [
      {
        "astId": 48067,
        "contract": "contracts/VBep20Immutable.sol:VBep20Immutable",
        "label": "_notEntered",
        "offset": 0,
        "slot": "0",
        "type": "t_bool"
      },
      {
        "astId": 48069,
        "contract": "contracts/VBep20Immutable.sol:VBep20Immutable",
        "label": "name",
        "offset": 0,
        "slot": "1",
        "type": "t_string_storage"
      },
      {
        "astId": 48071,
        "contract": "contracts/VBep20Immutable.sol:VBep20Immutable",
        "label": "symbol",
        "offset": 0,
        "slot": "2",
        "type": "t_string_storage"
      },
      {
        "astId": 48073,
        "contract": "contracts/VBep20Immutable.sol:VBep20Immutable",
        "label": "decimals",
        "offset": 0,
        "slot": "3",
        "type": "t_uint8"
      },
      {
        "astId": 48081,
        "contract": "contracts/VBep20Immutable.sol:VBep20Immutable",
        "label": "admin",
        "offset": 1,
        "slot": "3",
        "type": "t_address_payable"
      },
      {
        "astId": 48083,
        "contract": "contracts/VBep20Immutable.sol:VBep20Immutable",
        "label": "pendingAdmin",
        "offset": 0,
        "slot": "4",
        "type": "t_address_payable"
      },
      {
        "astId": 48085,
        "contract": "contracts/VBep20Immutable.sol:VBep20Immutable",
        "label": "comptroller",
        "offset": 0,
        "slot": "5",
        "type": "t_contract(ComptrollerInterface)24449"
      },
      {
        "astId": 48087,
        "contract": "contracts/VBep20Immutable.sol:VBep20Immutable",
        "label": "interestRateModel",
        "offset": 0,
        "slot": "6",
        "type": "t_contract(InterestRateModel)30388"
      },
      {
        "astId": 48089,
        "contract": "contracts/VBep20Immutable.sol:VBep20Immutable",
        "label": "initialExchangeRateMantissa",
        "offset": 0,
        "slot": "7",
        "type": "t_uint256"
      },
      {
        "astId": 48091,
        "contract": "contracts/VBep20Immutable.sol:VBep20Immutable",
        "label": "reserveFactorMantissa",
        "offset": 0,
        "slot": "8",
        "type": "t_uint256"
      },
      {
        "astId": 48093,
        "contract": "contracts/VBep20Immutable.sol:VBep20Immutable",
        "label": "accrualBlockNumber",
        "offset": 0,
        "slot": "9",
        "type": "t_uint256"
      },
      {
        "astId": 48095,
        "contract": "contracts/VBep20Immutable.sol:VBep20Immutable",
        "label": "borrowIndex",
        "offset": 0,
        "slot": "10",
        "type": "t_uint256"
      },
      {
        "astId": 48097,
        "contract": "contracts/VBep20Immutable.sol:VBep20Immutable",
        "label": "totalBorrows",
        "offset": 0,
        "slot": "11",
        "type": "t_uint256"
      },
      {
        "astId": 48099,
        "contract": "contracts/VBep20Immutable.sol:VBep20Immutable",
        "label": "totalReserves",
        "offset": 0,
        "slot": "12",
        "type": "t_uint256"
      },
      {
        "astId": 48101,
        "contract": "contracts/VBep20Immutable.sol:VBep20Immutable",
        "label": "totalSupply",
        "offset": 0,
        "slot": "13",
        "type": "t_uint256"
      },
      {
        "astId": 48105,
        "contract": "contracts/VBep20Immutable.sol:VBep20Immutable",
        "label": "accountTokens",
        "offset": 0,
        "slot": "14",
        "type": "t_mapping(t_address,t_uint256)"
      },
      {
        "astId": 48111,
        "contract": "contracts/VBep20Immutable.sol:VBep20Immutable",
        "label": "transferAllowances",
        "offset": 0,
        "slot": "15",
        "type": "t_mapping(t_address,t_mapping(t_address,t_uint256))"
      },
      {
        "astId": 48120,
        "contract": "contracts/VBep20Immutable.sol:VBep20Immutable",
        "label": "accountBorrows",
        "offset": 0,
        "slot": "16",
        "type": "t_mapping(t_address,t_struct(BorrowSnapshot)48116_storage)"
      },
      {
        "astId": 48442,
        "contract": "contracts/VBep20Immutable.sol:VBep20Immutable",
        "label": "underlying",
        "offset": 0,
        "slot": "17",
        "type": "t_address"
      }
    ],
    "types": {
      "t_address": {
        "encoding": "inplace",
        "label": "address",
        "numberOfBytes": "20"
      },
      "t_address_payable": {
        "encoding": "inplace",
        "label": "address payable",
        "numberOfBytes": "20"
      },
      "t_bool": {
        "encoding": "inplace",
        "label": "bool",
        "numberOfBytes": "1"
      },
      "t_contract(ComptrollerInterface)24449": {
        "encoding": "inplace",
        "label": "contract ComptrollerInterface",
        "numberOfBytes": "20"
      },
      "t_contract(InterestRateModel)30388": {
        "encoding": "inplace",
        "label": "contract InterestRateModel",
        "numberOfBytes": "20"
      },
      "t_mapping(t_address,t_mapping(t_address,t_uint256))": {
        "encoding": "mapping",
        "key": "t_address",
        "label": "mapping(address => mapping(address => uint256))",
        "numberOfBytes": "32",
        "value": "t_mapping(t_address,t_uint256)"
      },
      "t_mapping(t_address,t_struct(BorrowSnapshot)48116_storage)": {
        "encoding": "mapping",
        "key": "t_address",
        "label": "mapping(address => struct VTokenStorage.BorrowSnapshot)",
        "numberOfBytes": "32",
        "value": "t_struct(BorrowSnapshot)48116_storage"
      },
      "t_mapping(t_address,t_uint256)": {
        "encoding": "mapping",
        "key": "t_address",
        "label": "mapping(address => uint256)",
        "numberOfBytes": "32",
        "value": "t_uint256"
      },
      "t_string_storage": {
        "encoding": "bytes",
        "label": "string",
        "numberOfBytes": "32"
      },
      "t_struct(BorrowSnapshot)48116_storage": {
        "encoding": "inplace",
        "label": "struct VTokenStorage.BorrowSnapshot",
        "members": [
          {
            "astId": 48113,
            "contract": "contracts/VBep20Immutable.sol:VBep20Immutable",
            "label": "principal",
            "offset": 0,
            "slot": "0",
            "type": "t_uint256"
          },
          {
            "astId": 48115,
            "contract": "contracts/VBep20Immutable.sol:VBep20Immutable",
            "label": "interestIndex",
            "offset": 0,
            "slot": "1",
            "type": "t_uint256"
          }
        ],
        "numberOfBytes": "64"
      },
      "t_uint256": {
        "encoding": "inplace",
        "label": "uint256",
        "numberOfBytes": "32"
      },
      "t_uint8": {
        "encoding": "inplace",
        "label": "uint8",
        "numberOfBytes": "1"
      }
    }
  }
}